{
  "contractName": "AccountManager",
  "abi": [
    {
      "inputs": [],
      "name": "get_account_list",
      "outputs": [
        {
          "internalType": "bytes32[]",
          "name": "",
          "type": "bytes32[]"
        },
        {
          "internalType": "address[]",
          "name": "",
          "type": "address[]"
        }
      ],
      "stateMutability": "view",
      "type": "function",
      "constant": true
    },
    {
      "inputs": [
        {
          "internalType": "bytes32",
          "name": "uid",
          "type": "bytes32"
        },
        {
          "internalType": "contract UserAccount",
          "name": "account",
          "type": "address"
        }
      ],
      "name": "add_account",
      "outputs": [],
      "stateMutability": "nonpayable",
      "type": "function"
    },
    {
      "inputs": [
        {
          "internalType": "bytes32",
          "name": "_uid",
          "type": "bytes32"
        }
      ],
      "name": "get_account",
      "outputs": [
        {
          "internalType": "address",
          "name": "",
          "type": "address"
        }
      ],
      "stateMutability": "view",
      "type": "function",
      "constant": true
    }
  ],
  "bytecode": "0x608060405234801561001057600080fd5b50610429806100206000396000f3fe608060405234801561001057600080fd5b50600436106100415760003560e01c8063180bdb941461004657806325516f21146100ed5780633a4f78301461013b575b600080fd5b61004e6101a9565b604051808060200180602001838103835285818151815260200191508051906020019060200280838360005b8381101561009557808201518184015260208101905061007a565b50505050905001838103825284818151815260200191508051906020019060200280838360005b838110156100d75780820151818401526020810190506100bc565b5050505090500194505050505060405180910390f35b6101396004803603604081101561010357600080fd5b8101908080359060200190929190803573ffffffffffffffffffffffffffffffffffffffff169060200190929190505050610339565b005b6101676004803603602081101561015157600080fd5b81019080803590602001909291905050506103b7565b604051808273ffffffffffffffffffffffffffffffffffffffff1673ffffffffffffffffffffffffffffffffffffffff16815260200191505060405180910390f35b606080606060018054905067ffffffffffffffff811180156101ca57600080fd5b506040519080825280602002602001820160405280156101f95781602001602082028036833780820191505090505b509050606060018054905067ffffffffffffffff8111801561021a57600080fd5b506040519080825280602002602001820160405280156102495781602001602082028036833780820191505090505b50905060008090505b60018054905081101561032c576000806001838154811061026f57fe5b9060005260206000200154815260200190815260200160002060009054906101000a900473ffffffffffffffffffffffffffffffffffffffff168382815181106102b557fe5b602002602001019073ffffffffffffffffffffffffffffffffffffffff16908173ffffffffffffffffffffffffffffffffffffffff1681525050600181815481106102fc57fe5b906000526020600020015482828151811061031357fe5b6020026020010181815250508080600101915050610252565b5080829350935050509091565b8060008084815260200190815260200160002060006101000a81548173ffffffffffffffffffffffffffffffffffffffff021916908373ffffffffffffffffffffffffffffffffffffffff16021790555060018290806001815401808255809150506001900390600052602060002001600090919091909150555050565b600080600083815260200190815260200160002060009054906101000a900473ffffffffffffffffffffffffffffffffffffffff16905091905056fea2646970667358221220bd71dc86ac65942134b6f39a9221273f3920331444e50786e86d6be274f2730a64736f6c63430006060033",
  "source": "pragma solidity >=0.4.22 <0.8.0;\nimport \"./User.sol\";\nimport \"./UserAccount.sol\";\n\ncontract AccountManager {\n    mapping(bytes32 => UserAccount) private accounts; //使用者名稱對應帳戶位址\n    bytes32[] private user_list; //使用者名稱集合\n\n    function get_account_list()\n        public\n        view\n        returns (bytes32[] memory, address[] memory)\n    {\n        address[] memory account_addrs = new address[](user_list.length);\n        bytes32[] memory uids = new bytes32[](user_list.length);\n\n        for (uint256 i = 0; i < user_list.length; i++) {\n            account_addrs[i] = address(accounts[user_list[i]]);\n            uids[i] = user_list[i];\n        }\n        return (uids, account_addrs);\n    }\n\n    function add_account(bytes32 uid, UserAccount account) public {\n        accounts[uid] = account;\n        user_list.push(uid);\n    }\n\n    function get_account(bytes32 _uid) public view returns (address) {\n        return address(accounts[_uid]);\n    }\n}\n",
  "sourcePath": "/Users/hongwei/Documents/Project/ethereum-platform/contracts/AccountManager.sol",
  "compiler": {
    "name": "solc",
    "version": "0.6.6+commit.6c089d02.Emscripten.clang"
  },
  "schemaVersion": "3.0.20",
  "updatedAt": "2020-10-07T14:10:57.877Z",
  "networkType": "ethereum",
  "devdoc": {
    "methods": {}
  },
  "userdoc": {
    "methods": {}
  }
}