{
  "contractName": "Announce",
  "abi": [
    {
      "inputs": [
        {
          "internalType": "bytes32",
          "name": "uid",
          "type": "bytes32"
        },
        {
          "internalType": "bytes32",
          "name": "name",
          "type": "bytes32"
        },
        {
          "internalType": "bytes32",
          "name": "dates",
          "type": "bytes32"
        },
        {
          "internalType": "bytes32",
          "name": "destination",
          "type": "bytes32"
        },
        {
          "internalType": "bytes32",
          "name": "traffic",
          "type": "bytes32"
        },
        {
          "internalType": "bytes32",
          "name": "people",
          "type": "bytes32"
        },
        {
          "internalType": "bytes32",
          "name": "money",
          "type": "bytes32"
        }
      ],
      "name": "create_user",
      "outputs": [],
      "stateMutability": "nonpayable",
      "type": "function"
    },
    {
      "inputs": [
        {
          "internalType": "uint256",
          "name": "count",
          "type": "uint256"
        }
      ],
      "name": "update",
      "outputs": [
        {
          "internalType": "address",
          "name": "",
          "type": "address"
        },
        {
          "internalType": "uint256",
          "name": "",
          "type": "uint256"
        }
      ],
      "stateMutability": "nonpayable",
      "type": "function"
    },
    {
      "inputs": [
        {
          "internalType": "bytes32",
          "name": "uid",
          "type": "bytes32"
        }
      ],
      "name": "get_user",
      "outputs": [
        {
          "internalType": "bytes32",
          "name": "_name",
          "type": "bytes32"
        },
        {
          "internalType": "bytes32",
          "name": "_dates",
          "type": "bytes32"
        },
        {
          "internalType": "bytes32",
          "name": "_destination",
          "type": "bytes32"
        },
        {
          "internalType": "bytes32",
          "name": "_traffic",
          "type": "bytes32"
        },
        {
          "internalType": "bytes32",
          "name": "_people",
          "type": "bytes32"
        },
        {
          "internalType": "bytes32",
          "name": "_money",
          "type": "bytes32"
        }
      ],
      "stateMutability": "view",
      "type": "function",
      "constant": true
    }
  ],
  "bytecode": "0x608060405234801561001057600080fd5b50610c75806100206000396000f3fe608060405234801561001057600080fd5b50600436106100415760003560e01c806360368e9f146100465780636632a986146100ab57806382ab890a14610115575b600080fd5b6100726004803603602081101561005c57600080fd5b810190808035906020019092919050505061018a565b60405180878152602001868152602001858152602001848152602001838152602001828152602001965050505050505060405180910390f35b610113600480360360e08110156100c157600080fd5b810190808035906020019092919080359060200190929190803590602001909291908035906020019092919080359060200190929190803590602001909291908035906020019092919050505061050a565b005b6101416004803603602081101561012b57600080fd5b81019080803590602001909291905050506105c5565b604051808373ffffffffffffffffffffffffffffffffffffffff1673ffffffffffffffffffffffffffffffffffffffff1681526020018281526020019250505060405180910390f35b600080600080600080600080600089815260200190815260200160002060009054906101000a900473ffffffffffffffffffffffffffffffffffffffff16905060008173ffffffffffffffffffffffffffffffffffffffff16633a525c296040518163ffffffff1660e01b815260040160206040518083038186803b15801561021257600080fd5b505afa158015610226573d6000803e3d6000fd5b505050506040513d602081101561023c57600080fd5b8101908080519060200190929190505050905060008273ffffffffffffffffffffffffffffffffffffffff16632a4a14c36040518163ffffffff1660e01b815260040160206040518083038186803b15801561029757600080fd5b505afa1580156102ab573d6000803e3d6000fd5b505050506040513d60208110156102c157600080fd5b8101908080519060200190929190505050905060008373ffffffffffffffffffffffffffffffffffffffff16630877e5e56040518163ffffffff1660e01b815260040160206040518083038186803b15801561031c57600080fd5b505afa158015610330573d6000803e3d6000fd5b505050506040513d602081101561034657600080fd5b8101908080519060200190929190505050905060008473ffffffffffffffffffffffffffffffffffffffff16633cb2b12a6040518163ffffffff1660e01b815260040160206040518083038186803b1580156103a157600080fd5b505afa1580156103b5573d6000803e3d6000fd5b505050506040513d60208110156103cb57600080fd5b8101908080519060200190929190505050905060008573ffffffffffffffffffffffffffffffffffffffff1663fcfb1e736040518163ffffffff1660e01b815260040160206040518083038186803b15801561042657600080fd5b505afa15801561043a573d6000803e3d6000fd5b505050506040513d602081101561045057600080fd5b8101908080519060200190929190505050905060008673ffffffffffffffffffffffffffffffffffffffff1663b80292696040518163ffffffff1660e01b815260040160206040518083038186803b1580156104ab57600080fd5b505afa1580156104bf573d6000803e3d6000fd5b505050506040513d60208110156104d557600080fd5b810190808051906020019092919050505090508585858585859c509c509c509c509c509c505050505050505091939550919395565b600086868686868660405161051e906105e8565b808781526020018681526020018581526020018481526020018381526020018281526020019650505050505050604051809103906000f080158015610567573d6000803e3d6000fd5b509050806000808a815260200190815260200160002060006101000a81548173ffffffffffffffffffffffffffffffffffffffff021916908373ffffffffffffffffffffffffffffffffffffffff1602179055505050505050505050565b600080826001600082825401925050819055503360015481915091509150915091565b61064a806105f68339019056fe608060405234801561001057600080fd5b5060405161064a38038061064a833981810160405260c081101561003357600080fd5b810190808051906020019092919080519060200190929190805190602001909291908051906020019092919080519060200190929190805190602001909291905050506000602060ff1614156100f1576040517f08c379a00000000000000000000000000000000000000000000000000000000081526004018080602001828103825260098152602001807f4e656564206e616d65000000000000000000000000000000000000000000000081525060200191505060405180910390fd5b6000602060ff16141561016c576040517f08c379a000000000000000000000000000000000000000000000000000000000815260040180806020018281038252600a8152602001807f4e6565642064617465730000000000000000000000000000000000000000000081525060200191505060405180910390fd5b6000602060ff1614156101e7576040517f08c379a00000000000000000000000000000000000000000000000000000000081526004018080602001828103825260108152602001807f4e6565642064657374696e6174696f6e0000000000000000000000000000000081525060200191505060405180910390fd5b6000602060ff161415610262576040517f08c379a000000000000000000000000000000000000000000000000000000000815260040180806020018281038252600c8152602001807f4e6565642074726166666963000000000000000000000000000000000000000081525060200191505060405180910390fd5b6000602060ff1614156102dd576040517f08c379a000000000000000000000000000000000000000000000000000000000815260040180806020018281038252600b8152602001807f4e6565642070656f706c6500000000000000000000000000000000000000000081525060200191505060405180910390fd5b85600081905550846001819055508360028190555082600381905550816004819055508060058190555050505050505061032e8061031c6000396000f3fe608060405234801561001057600080fd5b50600436106100b45760003560e01c806390b6c7fa1161007157806390b6c7fa1461018d578063a322c813146101bb578063b8029269146101e9578063c450dc7914610207578063d79a4b9514610235578063fcfb1e7314610263576100b4565b80630877e5e5146100b95780632a4a14c3146100d75780633a525c29146100f55780633cb2b12a146101135780637042f94d146101315780637ba332e91461015f575b600080fd5b6100c1610281565b6040518082815260200191505060405180910390f35b6100df61028b565b6040518082815260200191505060405180910390f35b6100fd610295565b6040518082815260200191505060405180910390f35b61011b61029e565b6040518082815260200191505060405180910390f35b61015d6004803603602081101561014757600080fd5b81019080803590602001909291905050506102a8565b005b61018b6004803603602081101561017557600080fd5b81019080803590602001909291905050506102b2565b005b6101b9600480360360208110156101a357600080fd5b81019080803590602001909291905050506102bc565b005b6101e7600480360360208110156101d157600080fd5b81019080803590602001909291905050506102c6565b005b6101f16102d0565b6040518082815260200191505060405180910390f35b6102336004803603602081101561021d57600080fd5b81019080803590602001909291905050506102da565b005b6102616004803603602081101561024b57600080fd5b81019080803590602001909291905050506102e4565b005b61026b6102ee565b6040518082815260200191505060405180910390f35b6000600254905090565b6000600154905090565b60008054905090565b6000600354905090565b8060058190555050565b8060008190555050565b8060048190555050565b8060018190555050565b6000600554905090565b8060038190555050565b8060028190555050565b600060045490509056fea2646970667358221220e3e3de5352925348cf42a4789db90a498d06409b32b0f17445e76e9f95f6cba964736f6c63430006060033a26469706673582212207d6d5559571fbaa6c9f9ffe05a4dfa790e9d0ff5f6c813ac2240e078b3a5c13f64736f6c63430006060033",
  "immutableReferences": {},
  "source": "// SPDX-License-Identifier: MIT\r\npragma solidity >=0.4.22 <0.8.0;\r\nimport \"./Ownable.sol\";\r\ncontract Announce {\r\n    mapping(bytes32 => Ownable) private Users;\r\n\r\n    function create_user(\r\n        bytes32 uid,\r\n        bytes32 name,\r\n        bytes32 dates,\r\n        bytes32 destination,\r\n        bytes32 traffic,\r\n        bytes32 people,\r\n        bytes32 money\r\n\r\n    ) public {\r\n        Ownable user = new Ownable(name, dates,destination,traffic,people,money);\r\n        Users[uid] = user;\r\n    }\r\n\r\n    uint balance;\r\n    function update(uint count) public returns (address, uint){\r\n        balance += count;\r\n        return (msg.sender, balance);\r\n    }\r\n\r\n    function get_user(bytes32 uid)\r\n        public\r\n        view\r\n        returns (bytes32 _name, bytes32 _dates, bytes32 _destination, bytes32 _traffic, bytes32 _people, bytes32 _money)\r\n    {\r\n        Ownable user = Users[uid];\r\n        bytes32 name = user.get_name();\r\n        bytes32 dates = user.get_dates();\r\n        bytes32 destination = user.get_destination();\r\n        bytes32 traffic = user.get_traffic();\r\n        bytes32 people = user.get_people();\r\n        bytes32 money = user.get_money();\r\n\r\n        return (name, dates, destination,traffic,people,money);\r\n    }\r\n}\r\n",
  "sourcePath": "C:/Users/User/Desktop/ethereum-platform/contracts/Announce.sol",
  "compiler": {
    "name": "solc",
    "version": "0.6.6+commit.6c089d02.Emscripten.clang"
  },
  "schemaVersion": "3.2.4",
  "updatedAt": "2020-09-15T10:08:06.689Z",
  "networkType": "ethereum",
  "devdoc": {
    "methods": {}
  },
  "userdoc": {
    "methods": {}
  }
}