{
  "contractName": "Announce",
  "abi": [
    {
      "inputs": [
        {
          "internalType": "bytes32",
          "name": "uid",
          "type": "bytes32"
        },
        {
          "internalType": "bytes32",
          "name": "name",
          "type": "bytes32"
        },
        {
          "internalType": "bytes32",
          "name": "dates",
          "type": "bytes32"
        },
        {
          "internalType": "bytes32",
          "name": "destination",
          "type": "bytes32"
        },
        {
          "internalType": "bytes32",
          "name": "traffic",
          "type": "bytes32"
        },
        {
          "internalType": "bytes32",
          "name": "people",
          "type": "bytes32"
        },
        {
          "internalType": "bytes32",
          "name": "money",
          "type": "bytes32"
        },
        {
          "internalType": "address",
          "name": "user_addr",
          "type": "address"
        }
      ],
      "name": "create_user",
      "outputs": [],
      "stateMutability": "nonpayable",
      "type": "function"
    },
    {
      "inputs": [
        {
          "internalType": "uint256",
          "name": "count",
          "type": "uint256"
        }
      ],
      "name": "update",
      "outputs": [
        {
          "internalType": "address",
          "name": "",
          "type": "address"
        },
        {
          "internalType": "uint256",
          "name": "",
          "type": "uint256"
        }
      ],
      "stateMutability": "nonpayable",
      "type": "function"
    },
    {
      "inputs": [
        {
          "internalType": "bytes32",
          "name": "uid",
          "type": "bytes32"
        }
      ],
      "name": "get_user",
      "outputs": [
        {
          "internalType": "bytes32",
          "name": "_name",
          "type": "bytes32"
        },
        {
          "internalType": "bytes32",
          "name": "_dates",
          "type": "bytes32"
        },
        {
          "internalType": "bytes32",
          "name": "_destination",
          "type": "bytes32"
        },
        {
          "internalType": "bytes32",
          "name": "_traffic",
          "type": "bytes32"
        },
        {
          "internalType": "bytes32",
          "name": "_people",
          "type": "bytes32"
        },
        {
          "internalType": "bytes32",
          "name": "_money",
          "type": "bytes32"
        },
        {
          "internalType": "contract User",
          "name": "_u",
          "type": "address"
        }
      ],
      "stateMutability": "view",
      "type": "function",
      "constant": true
    },
    {
      "inputs": [],
      "name": "get_all_user",
      "outputs": [
        {
          "internalType": "bytes32[]",
          "name": "",
          "type": "bytes32[]"
        },
        {
          "internalType": "address[]",
          "name": "",
          "type": "address[]"
        }
      ],
      "stateMutability": "view",
      "type": "function",
      "constant": true
    }
  ],
  "bytecode": "0x608060405234801561001057600080fd5b50611300806100206000396000f3fe608060405234801561001057600080fd5b506004361061004c5760003560e01c8063472d61371461005157806360368e9f146100f857806382ab890a14610190578063f2256db014610205575b600080fd5b610059610290565b604051808060200180602001838103835285818151815260200191508051906020019060200280838360005b838110156100a0578082015181840152602081019050610085565b50505050905001838103825284818151815260200191508051906020019060200280838360005b838110156100e25780820151818401526020810190506100c7565b5050505090500194505050505060405180910390f35b6101246004803603602081101561010e57600080fd5b81019080803590602001909291905050506103f2565b604051808881526020018781526020018681526020018581526020018481526020018381526020018273ffffffffffffffffffffffffffffffffffffffff1673ffffffffffffffffffffffffffffffffffffffff16815260200197505050505050505060405180910390f35b6101bc600480360360208110156101a657600080fd5b81019080803590602001909291905050506107fe565b604051808373ffffffffffffffffffffffffffffffffffffffff1673ffffffffffffffffffffffffffffffffffffffff1681526020018281526020019250505060405180910390f35b61028e600480360361010081101561021c57600080fd5b8101908080359060200190929190803590602001909291908035906020019092919080359060200190929190803590602001909291908035906020019092919080359060200190929190803573ffffffffffffffffffffffffffffffffffffffff169060200190929190505050610821565b005b606080606060018054905067ffffffffffffffff811180156102b157600080fd5b506040519080825280602002602001820160405280156102e05781602001602082028036833780820191505090505b50905060008090505b600180549050811015610393576000806001838154811061030657fe5b9060005260206000200154815260200190815260200160002060009054906101000a900473ffffffffffffffffffffffffffffffffffffffff1682828151811061034c57fe5b602002602001019073ffffffffffffffffffffffffffffffffffffffff16908173ffffffffffffffffffffffffffffffffffffffff168152505080806001019150506102e9565b50600181818054806020026020016040519081016040528092919081815260200182805480156103e257602002820191906000526020600020905b8154815260200190600101908083116103ce575b5050505050915092509250509091565b6000806000806000806000806000808a815260200190815260200160002060009054906101000a900473ffffffffffffffffffffffffffffffffffffffff16905060008173ffffffffffffffffffffffffffffffffffffffff16633a525c296040518163ffffffff1660e01b815260040160206040518083038186803b15801561047b57600080fd5b505afa15801561048f573d6000803e3d6000fd5b505050506040513d60208110156104a557600080fd5b8101908080519060200190929190505050905060008273ffffffffffffffffffffffffffffffffffffffff16632a4a14c36040518163ffffffff1660e01b815260040160206040518083038186803b15801561050057600080fd5b505afa158015610514573d6000803e3d6000fd5b505050506040513d602081101561052a57600080fd5b8101908080519060200190929190505050905060008373ffffffffffffffffffffffffffffffffffffffff16630877e5e56040518163ffffffff1660e01b815260040160206040518083038186803b15801561058557600080fd5b505afa158015610599573d6000803e3d6000fd5b505050506040513d60208110156105af57600080fd5b8101908080519060200190929190505050905060008473ffffffffffffffffffffffffffffffffffffffff16633cb2b12a6040518163ffffffff1660e01b815260040160206040518083038186803b15801561060a57600080fd5b505afa15801561061e573d6000803e3d6000fd5b505050506040513d602081101561063457600080fd5b8101908080519060200190929190505050905060008573ffffffffffffffffffffffffffffffffffffffff1663fcfb1e736040518163ffffffff1660e01b815260040160206040518083038186803b15801561068f57600080fd5b505afa1580156106a3573d6000803e3d6000fd5b505050506040513d60208110156106b957600080fd5b8101908080519060200190929190505050905060008673ffffffffffffffffffffffffffffffffffffffff1663b80292696040518163ffffffff1660e01b815260040160206040518083038186803b15801561071457600080fd5b505afa158015610728573d6000803e3d6000fd5b505050506040513d602081101561073e57600080fd5b8101908080519060200190929190505050905060008773ffffffffffffffffffffffffffffffffffffffff1663453b4f7c6040518163ffffffff1660e01b815260040160206040518083038186803b15801561079957600080fd5b505afa1580156107ad573d6000803e3d6000fd5b505050506040513d60208110156107c357600080fd5b81019080805190602001909291905050509050868686868686869e509e509e509e509e509e509e505050505050505050919395979092949650565b600080826002600082825401925050819055503360025481915091509150915091565b6000878787878787876040516108369061093a565b808881526020018781526020018681526020018581526020018481526020018381526020018273ffffffffffffffffffffffffffffffffffffffff1673ffffffffffffffffffffffffffffffffffffffff168152602001975050505050505050604051809103906000f0801580156108b2573d6000803e3d6000fd5b509050806000808b815260200190815260200160002060006101000a81548173ffffffffffffffffffffffffffffffffffffffff021916908373ffffffffffffffffffffffffffffffffffffffff1602179055506001899080600181540180825580915050600190039060005260206000200160009091909190915055505050505050505050565b610983806109488339019056fe608060405234801561001057600080fd5b50604051610983380380610983833981810160405260e081101561003357600080fd5b81019080805190602001909291908051906020019092919080519060200190929190805190602001909291908051906020019092919080519060200190929190805190602001909291905050506000602060ff1614156100fb576040517f08c379a00000000000000000000000000000000000000000000000000000000081526004018080602001828103825260098152602001807f4e656564206e616d65000000000000000000000000000000000000000000000081525060200191505060405180910390fd5b6000602060ff161415610176576040517f08c379a000000000000000000000000000000000000000000000000000000000815260040180806020018281038252600a8152602001807f4e6565642064617465730000000000000000000000000000000000000000000081525060200191505060405180910390fd5b6000602060ff1614156101f1576040517f08c379a00000000000000000000000000000000000000000000000000000000081526004018080602001828103825260108152602001807f4e6565642064657374696e6174696f6e0000000000000000000000000000000081525060200191505060405180910390fd5b6000602060ff16141561026c576040517f08c379a000000000000000000000000000000000000000000000000000000000815260040180806020018281038252600c8152602001807f4e6565642074726166666963000000000000000000000000000000000000000081525060200191505060405180910390fd5b6000602060ff1614156102e7576040517f08c379a000000000000000000000000000000000000000000000000000000000815260040180806020018281038252600b8152602001807f4e6565642070656f706c6500000000000000000000000000000000000000000081525060200191505060405180910390fd5b86600181905550856002819055508460038190555083600481905550826005819055508160068190555080600760006101000a81548173ffffffffffffffffffffffffffffffffffffffff021916908373ffffffffffffffffffffffffffffffffffffffff1602179055505050505050505061061b806103686000396000f3fe608060405234801561001057600080fd5b506004361061010b5760003560e01c80637ba332e9116100a2578063a322c81311610071578063a322c813146103bf578063b8029269146103ed578063c450dc791461040b578063d79a4b9514610439578063fcfb1e73146104675761010b565b80637ba332e9146102a457806382ab890a146102d25780638da5cb5b1461034757806390b6c7fa146103915761010b565b80633cb2b12a116100de5780633cb2b12a146101ae578063453b4f7c146101cc57806366eecef4146102165780637042f94d146102765761010b565b80630877e5e514610110578063173edbee1461012e5780632a4a14c3146101725780633a525c2914610190575b600080fd5b610118610485565b6040518082815260200191505060405180910390f35b6101706004803603602081101561014457600080fd5b81019080803573ffffffffffffffffffffffffffffffffffffffff16906020019092919050505061048f565b005b61017a6104d3565b6040518082815260200191505060405180910390f35b6101986104dd565b6040518082815260200191505060405180910390f35b6101b66104e7565b6040518082815260200191505060405180910390f35b6101d46104f1565b604051808273ffffffffffffffffffffffffffffffffffffffff1673ffffffffffffffffffffffffffffffffffffffff16815260200191505060405180910390f35b610274600480360360c081101561022c57600080fd5b8101908080359060200190929190803590602001909291908035906020019092919080359060200190929190803590602001909291908035906020019092919050505061051b565b005b6102a26004803603602081101561028c57600080fd5b810190808035906020019092919050505061054d565b005b6102d0600480360360208110156102ba57600080fd5b8101908080359060200190929190505050610557565b005b6102fe600480360360208110156102e857600080fd5b8101908080359060200190929190505050610561565b604051808373ffffffffffffffffffffffffffffffffffffffff1673ffffffffffffffffffffffffffffffffffffffff1681526020018281526020019250505060405180910390f35b61034f610584565b604051808273ffffffffffffffffffffffffffffffffffffffff1673ffffffffffffffffffffffffffffffffffffffff16815260200191505060405180910390f35b6103bd600480360360208110156103a757600080fd5b81019080803590602001909291905050506105a9565b005b6103eb600480360360208110156103d557600080fd5b81019080803590602001909291905050506105b3565b005b6103f56105bd565b6040518082815260200191505060405180910390f35b6104376004803603602081101561042157600080fd5b81019080803590602001909291905050506105c7565b005b6104656004803603602081101561044f57600080fd5b81019080803590602001909291905050506105d1565b005b61046f6105db565b6040518082815260200191505060405180910390f35b6000600354905090565b80600760006101000a81548173ffffffffffffffffffffffffffffffffffffffff021916908373ffffffffffffffffffffffffffffffffffffffff16021790555050565b6000600254905090565b6000600154905090565b6000600454905090565b6000600760009054906101000a900473ffffffffffffffffffffffffffffffffffffffff16905090565b856001819055508460028190555083600381905550826004819055508160058190555080600681905550505050505050565b8060068190555050565b8060018190555050565b600080826008600082825401925050819055503360085481915091509150915091565b6000809054906101000a900473ffffffffffffffffffffffffffffffffffffffff1681565b8060058190555050565b8060028190555050565b6000600654905090565b8060048190555050565b8060038190555050565b600060055490509056fea2646970667358221220471559415262d9fdd8fec80822da29fa1424ce1a4d1c70316417e5a377af01ce64736f6c63430006060033a2646970667358221220525683eb4ee6d6aeda82c2fba1ba5f49cf3b6939e89ecdbff5fcc11d342bcb4564736f6c63430006060033",
  "source": "// SPDX-License-Identifier: MIT\npragma solidity >=0.4.22 <0.8.0;\nimport \"./Ownable.sol\";\nimport \"./User.sol\";\ncontract Announce {\n    mapping(bytes32 => Ownable) private Users;\n    bytes32[] private id_list; //使用者名稱集合\n\n    function create_user(\n        bytes32 uid,\n        bytes32 name,\n        bytes32 dates,\n        bytes32 destination,\n        bytes32 traffic,\n        bytes32 people,\n        bytes32 money,\n        address user_addr\n    ) public {\n        Ownable user = new Ownable(name, dates,destination,traffic,people,money,User(user_addr));\n        Users[uid] = user;\n        id_list.push(uid);\n    }\n\n    uint balance;\n    function update(uint count) public returns (address, uint){\n        balance += count;\n        return (msg.sender, balance);\n    }\n\n    function get_user(bytes32 uid)\n        public\n        view\n        returns (bytes32 _name, bytes32 _dates, bytes32 _destination, bytes32 _traffic, bytes32 _people, bytes32 _money,User _u)\n    {\n        Ownable user = Users[uid];\n        bytes32 name = user.get_name();\n        bytes32 dates = user.get_dates();\n        bytes32 destination = user.get_destination();\n        bytes32 traffic = user.get_traffic();\n        bytes32 people = user.get_people();\n        bytes32 money = user.get_money();\n        User u = user.get_u();\n        return (name, dates, destination,traffic,people,money,u);\n    }\n    \n     function get_all_user()\n        public\n        view\n        returns (bytes32[] memory ,address[] memory)\n    {\n        address[] memory addressmessage = new address[](id_list.length);\n       for (uint256 i = 0; i < id_list.length; i++) {\n            addressmessage[i] = address(Users[id_list[i]]);\n        }\n        return (id_list,addressmessage);\n    }\n    \n\n}\n",
  "sourcePath": "/Users/hongwei/Documents/Project/ethereum-platform/contracts/Announce.sol",
  "compiler": {
    "name": "solc",
    "version": "0.6.6+commit.6c089d02.Emscripten.clang"
  },
  "schemaVersion": "3.0.20",
  "updatedAt": "2020-10-07T14:10:58.723Z",
  "networkType": "ethereum",
  "devdoc": {
    "methods": {}
  },
  "userdoc": {
    "methods": {}
  }
}