{
  "contractName": "Announce",
  "abi": [
    {
      "inputs": [
        {
          "internalType": "bytes32",
          "name": "uid",
          "type": "bytes32"
        },
        {
          "internalType": "bytes32",
          "name": "name",
          "type": "bytes32"
        },
        {
          "internalType": "uint256",
          "name": "dates",
          "type": "uint256"
        },
        {
          "internalType": "bytes32",
          "name": "destination_lon",
          "type": "bytes32"
        },
        {
          "internalType": "bytes32",
          "name": "destination_lat",
          "type": "bytes32"
        },
        {
          "internalType": "bytes32",
          "name": "traffic",
          "type": "bytes32"
        },
        {
          "internalType": "bytes32",
          "name": "people",
          "type": "bytes32"
        },
        {
          "internalType": "uint256",
          "name": "money",
          "type": "uint256"
        },
        {
          "internalType": "address",
          "name": "user_addr",
          "type": "address"
        }
      ],
      "name": "create_user",
      "outputs": [],
      "stateMutability": "nonpayable",
      "type": "function"
    },
    {
      "inputs": [
        {
          "internalType": "uint256",
          "name": "count",
          "type": "uint256"
        }
      ],
      "name": "update",
      "outputs": [
        {
          "internalType": "address",
          "name": "",
          "type": "address"
        },
        {
          "internalType": "uint256",
          "name": "",
          "type": "uint256"
        }
      ],
      "stateMutability": "nonpayable",
      "type": "function"
    },
    {
      "inputs": [
        {
          "internalType": "bytes32",
          "name": "uid",
          "type": "bytes32"
        }
      ],
      "name": "get_user",
      "outputs": [
        {
          "internalType": "bytes32",
          "name": "_name",
          "type": "bytes32"
        },
        {
          "internalType": "uint256",
          "name": "_dates",
          "type": "uint256"
        },
        {
          "internalType": "bytes32",
          "name": "_traffic",
          "type": "bytes32"
        },
        {
          "internalType": "bytes32",
          "name": "_people",
          "type": "bytes32"
        },
        {
          "internalType": "uint256",
          "name": "_money",
          "type": "uint256"
        },
        {
          "internalType": "contract User",
          "name": "_u",
          "type": "address"
        }
      ],
      "stateMutability": "view",
      "type": "function",
      "constant": true
    },
    {
      "inputs": [
        {
          "internalType": "bytes32",
          "name": "uid",
          "type": "bytes32"
        }
      ],
      "name": "get_user_destination",
      "outputs": [
        {
          "internalType": "bytes32",
          "name": "_destination_lon",
          "type": "bytes32"
        },
        {
          "internalType": "bytes32",
          "name": "_destination_lat",
          "type": "bytes32"
        },
        {
          "internalType": "contract User",
          "name": "_u",
          "type": "address"
        }
      ],
      "stateMutability": "view",
      "type": "function",
      "constant": true
    },
    {
      "inputs": [],
      "name": "get_all_user",
      "outputs": [
        {
          "internalType": "bytes32[]",
          "name": "",
          "type": "bytes32[]"
        },
        {
          "internalType": "address[]",
          "name": "",
          "type": "address[]"
        }
      ],
      "stateMutability": "view",
      "type": "function",
      "constant": true
    }
  ],
  "bytecode": "0x608060405234801561001057600080fd5b50611580806100206000396000f3fe608060405234801561001057600080fd5b50600436106100575760003560e01c8063472d61371461005c57806360368e9f1461010357806382ab890a146101945780639849dfbe14610209578063bb3377771461029e575b600080fd5b61006461031a565b604051808060200180602001838103835285818151815260200191508051906020019060200280838360005b838110156100ab578082015181840152602081019050610090565b50505050905001838103825284818151815260200191508051906020019060200280838360005b838110156100ed5780820151818401526020810190506100d2565b5050505090500194505050505060405180910390f35b61012f6004803603602081101561011957600080fd5b810190808035906020019092919050505061047c565b604051808781526020018681526020018581526020018481526020018381526020018273ffffffffffffffffffffffffffffffffffffffff1673ffffffffffffffffffffffffffffffffffffffff168152602001965050505050505060405180910390f35b6101c0600480360360208110156101aa57600080fd5b81019080803590602001909291905050506107fc565b604051808373ffffffffffffffffffffffffffffffffffffffff1673ffffffffffffffffffffffffffffffffffffffff1681526020018281526020019250505060405180910390f35b61029c600480360361012081101561022057600080fd5b810190808035906020019092919080359060200190929190803590602001909291908035906020019092919080359060200190929190803590602001909291908035906020019092919080359060200190929190803573ffffffffffffffffffffffffffffffffffffffff16906020019092919050505061081f565b005b6102ca600480360360208110156102b457600080fd5b8101908080359060200190929190505050610941565b604051808481526020018381526020018273ffffffffffffffffffffffffffffffffffffffff1673ffffffffffffffffffffffffffffffffffffffff168152602001935050505060405180910390f35b606080606060018054905067ffffffffffffffff8111801561033b57600080fd5b5060405190808252806020026020018201604052801561036a5781602001602082028036833780820191505090505b50905060008090505b60018054905081101561041d576000806001838154811061039057fe5b9060005260206000200154815260200190815260200160002060009054906101000a900473ffffffffffffffffffffffffffffffffffffffff168282815181106103d657fe5b602002602001019073ffffffffffffffffffffffffffffffffffffffff16908173ffffffffffffffffffffffffffffffffffffffff16815250508080600101915050610373565b506001818180548060200260200160405190810160405280929190818152602001828054801561046c57602002820191906000526020600020905b815481526020019060010190808311610458575b5050505050915092509250509091565b600080600080600080600080600089815260200190815260200160002060009054906101000a900473ffffffffffffffffffffffffffffffffffffffff16905060008173ffffffffffffffffffffffffffffffffffffffff16633a525c296040518163ffffffff1660e01b815260040160206040518083038186803b15801561050457600080fd5b505afa158015610518573d6000803e3d6000fd5b505050506040513d602081101561052e57600080fd5b8101908080519060200190929190505050905060008273ffffffffffffffffffffffffffffffffffffffff16632a4a14c36040518163ffffffff1660e01b815260040160206040518083038186803b15801561058957600080fd5b505afa15801561059d573d6000803e3d6000fd5b505050506040513d60208110156105b357600080fd5b8101908080519060200190929190505050905060008373ffffffffffffffffffffffffffffffffffffffff16633cb2b12a6040518163ffffffff1660e01b815260040160206040518083038186803b15801561060e57600080fd5b505afa158015610622573d6000803e3d6000fd5b505050506040513d602081101561063857600080fd5b8101908080519060200190929190505050905060008473ffffffffffffffffffffffffffffffffffffffff1663fcfb1e736040518163ffffffff1660e01b815260040160206040518083038186803b15801561069357600080fd5b505afa1580156106a7573d6000803e3d6000fd5b505050506040513d60208110156106bd57600080fd5b8101908080519060200190929190505050905060008573ffffffffffffffffffffffffffffffffffffffff1663b80292696040518163ffffffff1660e01b815260040160206040518083038186803b15801561071857600080fd5b505afa15801561072c573d6000803e3d6000fd5b505050506040513d602081101561074257600080fd5b8101908080519060200190929190505050905060008673ffffffffffffffffffffffffffffffffffffffff1663453b4f7c6040518163ffffffff1660e01b815260040160206040518083038186803b15801561079d57600080fd5b505afa1580156107b1573d6000803e3d6000fd5b505050506040513d60208110156107c757600080fd5b810190808051906020019092919050505090508585858585859c509c509c509c509c509c505050505050505091939550919395565b600080826002600082825401925050819055503360025481915091509150915091565b6000888888888888888860405161083590610b1f565b808981526020018881526020018781526020018681526020018581526020018481526020018381526020018273ffffffffffffffffffffffffffffffffffffffff1673ffffffffffffffffffffffffffffffffffffffff16815260200198505050505050505050604051809103906000f0801580156108b8573d6000803e3d6000fd5b509050806000808c815260200190815260200160002060006101000a81548173ffffffffffffffffffffffffffffffffffffffff021916908373ffffffffffffffffffffffffffffffffffffffff16021790555060018a908060018154018082558091505060019003906000526020600020016000909190919091505550505050505050505050565b60008060008060008086815260200190815260200160002060009054906101000a900473ffffffffffffffffffffffffffffffffffffffff16905060008173ffffffffffffffffffffffffffffffffffffffff1663b78993416040518163ffffffff1660e01b815260040160206040518083038186803b1580156109c457600080fd5b505afa1580156109d8573d6000803e3d6000fd5b505050506040513d60208110156109ee57600080fd5b8101908080519060200190929190505050905060008273ffffffffffffffffffffffffffffffffffffffff1663366f00416040518163ffffffff1660e01b815260040160206040518083038186803b158015610a4957600080fd5b505afa158015610a5d573d6000803e3d6000fd5b505050506040513d6020811015610a7357600080fd5b8101908080519060200190929190505050905060008373ffffffffffffffffffffffffffffffffffffffff1663453b4f7c6040518163ffffffff1660e01b815260040160206040518083038186803b158015610ace57600080fd5b505afa158015610ae2573d6000803e3d6000fd5b505050506040513d6020811015610af857600080fd5b81019080805190602001909291905050509050828282965096509650505050509193909250565b610a1e80610b2d8339019056fe608060405234801561001057600080fd5b50604051610a1e380380610a1e833981810160405261010081101561003457600080fd5b8101908080519060200190929190805190602001909291908051906020019092919080519060200190929190805190602001909291908051906020019092919080519060200190929190805190602001909291905050506000602060ff161415610106576040517f08c379a00000000000000000000000000000000000000000000000000000000081526004018080602001828103825260098152602001807f4e656564206e616d65000000000000000000000000000000000000000000000081525060200191505060405180910390fd5b6000602060ff161415610181576040517f08c379a00000000000000000000000000000000000000000000000000000000081526004018080602001828103825260108152602001807f4e6565642064657374696e6174696f6e0000000000000000000000000000000081525060200191505060405180910390fd5b6000602060ff1614156101fc576040517f08c379a00000000000000000000000000000000000000000000000000000000081526004018080602001828103825260108152602001807f4e6565642064657374696e6174696f6e0000000000000000000000000000000081525060200191505060405180910390fd5b6000602060ff161415610277576040517f08c379a000000000000000000000000000000000000000000000000000000000815260040180806020018281038252600c8152602001807f4e6565642074726166666963000000000000000000000000000000000000000081525060200191505060405180910390fd5b6000602060ff1614156102f2576040517f08c379a000000000000000000000000000000000000000000000000000000000815260040180806020018281038252600b8152602001807f4e6565642070656f706c6500000000000000000000000000000000000000000081525060200191505060405180910390fd5b8760018190555086600281905550856003819055508460048190555083600581905550826006819055508160078190555080600860006101000a81548173ffffffffffffffffffffffffffffffffffffffff021916908373ffffffffffffffffffffffffffffffffffffffff16021790555050505050505050506106a38061037b6000396000f3fe608060405234801561001057600080fd5b50600436106101215760003560e01c80638da5cb5b116100ad578063c450dc7911610071578063c450dc791461041b578063deb653c714610449578063e8a1c5b114610477578063f3a74d73146104a5578063fcfb1e73146104d357610121565b80638da5cb5b146102fd57806390b6c7fa14610347578063ae2d328914610375578063b7899341146103df578063b8029269146103fd57610121565b80633cb2b12a116100f45780633cb2b12a146101c4578063453b4f7c146101e25780637ba332e91461022c5780637c8d727e1461025a57806382ab890a1461028857610121565b8063173edbee146101265780632a4a14c31461016a578063366f0041146101885780633a525c29146101a6575b600080fd5b6101686004803603602081101561013c57600080fd5b81019080803573ffffffffffffffffffffffffffffffffffffffff1690602001909291905050506104f1565b005b610172610535565b6040518082815260200191505060405180910390f35b61019061053f565b6040518082815260200191505060405180910390f35b6101ae610549565b6040518082815260200191505060405180910390f35b6101cc610553565b6040518082815260200191505060405180910390f35b6101ea61055d565b604051808273ffffffffffffffffffffffffffffffffffffffff1673ffffffffffffffffffffffffffffffffffffffff16815260200191505060405180910390f35b6102586004803603602081101561024257600080fd5b8101908080359060200190929190505050610587565b005b6102866004803603602081101561027057600080fd5b8101908080359060200190929190505050610591565b005b6102b46004803603602081101561029e57600080fd5b810190808035906020019092919050505061059b565b604051808373ffffffffffffffffffffffffffffffffffffffff1673ffffffffffffffffffffffffffffffffffffffff1681526020018281526020019250505060405180910390f35b6103056105be565b604051808273ffffffffffffffffffffffffffffffffffffffff1673ffffffffffffffffffffffffffffffffffffffff16815260200191505060405180910390f35b6103736004803603602081101561035d57600080fd5b81019080803590602001909291905050506105e3565b005b6103dd600480360360e081101561038b57600080fd5b81019080803590602001909291908035906020019092919080359060200190929190803590602001909291908035906020019092919080359060200190929190803590602001909291905050506105ed565b005b6103e7610627565b6040518082815260200191505060405180910390f35b610405610631565b6040518082815260200191505060405180910390f35b6104476004803603602081101561043157600080fd5b810190808035906020019092919050505061063b565b005b6104756004803603602081101561045f57600080fd5b8101908080359060200190929190505050610645565b005b6104a36004803603602081101561048d57600080fd5b810190808035906020019092919050505061064f565b005b6104d1600480360360208110156104bb57600080fd5b8101908080359060200190929190505050610659565b005b6104db610663565b6040518082815260200191505060405180910390f35b80600860006101000a81548173ffffffffffffffffffffffffffffffffffffffff021916908373ffffffffffffffffffffffffffffffffffffffff16021790555050565b6000600254905090565b6000600454905090565b6000600154905090565b6000600554905090565b6000600860009054906101000a900473ffffffffffffffffffffffffffffffffffffffff16905090565b8060018190555050565b8060038190555050565b600080826009600082825401925050819055503360095481915091509150915091565b6000809054906101000a900473ffffffffffffffffffffffffffffffffffffffff1681565b8060068190555050565b8660018190555085600281905550846003819055508360048190555082600581905550816006819055508060078190555050505050505050565b6000600354905090565b6000600754905090565b8060058190555050565b8060048190555050565b8060078190555050565b8060028190555050565b600060065490509056fea264697066735822122054532ea7bb0687a87d2998bdeed0faac35ea9f2f5b027dabe7f6d66cb2754eaa64736f6c63430006060033a26469706673582212205675ac33fae9aafb483693c6fdee6a2afac6e11ac77ca43074d13a3e4f2f687c64736f6c63430006060033",
  "immutableReferences": {},
  "source": "// SPDX-License-Identifier: MIT\r\npragma solidity >=0.4.22 <0.8.0;\r\nimport \"./Ownable.sol\";\r\nimport \"./User.sol\";\r\ncontract Announce {\r\n    mapping(bytes32 => Ownable) private Users;\r\n    bytes32[] private id_list; //使用者名稱集合\r\n\r\n    function create_user(\r\n        bytes32 uid,\r\n        bytes32 name,\r\n        uint256 dates,\r\n        bytes32 destination_lon, \r\n        bytes32 destination_lat, \r\n        bytes32 traffic,\r\n        bytes32 people,\r\n        uint256 money,\r\n        address user_addr\r\n    ) public {\r\n        Ownable user = new Ownable(name, dates, destination_lon,destination_lat,traffic,people,money,User(user_addr));\r\n        Users[uid] = user;\r\n        id_list.push(uid);\r\n    }\r\n\r\n    uint balance;\r\n    function update(uint count) public returns (address, uint){\r\n        balance += count;\r\n        return (msg.sender, balance);\r\n    }\r\n\r\n    function get_user(bytes32 uid)\r\n        public\r\n        view\r\n        returns (bytes32 _name, uint256 _dates, bytes32 _traffic, bytes32 _people, uint256 _money,User _u)\r\n    {\r\n        Ownable user = Users[uid];\r\n        bytes32 name = user.get_name();\r\n        uint256 dates = user.get_dates();\r\n        bytes32 traffic = user.get_traffic();\r\n        bytes32 people = user.get_people();\r\n        uint256 money = user.get_money();\r\n        User u = user.get_u();\r\n        return (name, dates,traffic,people,money,u);\r\n    }\r\n    \r\n     function get_user_destination(bytes32 uid)\r\n        public\r\n        view\r\n        returns ( bytes32 _destination_lon,bytes32 _destination_lat,User _u)\r\n    {\r\n        Ownable user = Users[uid];\r\n        bytes32 destination_lon = user.get_destination_lon();\r\n        bytes32 destination_lat = user.get_destination_lat();\r\n          User u = user.get_u();\r\n        return (destination_lon,destination_lat,u);\r\n    }\r\n    \r\n     function get_all_user()\r\n        public\r\n        view\r\n        returns (bytes32[] memory ,address[] memory)\r\n    {\r\n        address[] memory addressmessage = new address[](id_list.length);\r\n       for (uint256 i = 0; i < id_list.length; i++) {\r\n            addressmessage[i] = address(Users[id_list[i]]);\r\n        }\r\n        return (id_list,addressmessage);\r\n    }\r\n  \r\n}\r\n",
  "sourcePath": "C:\\Users\\User\\Desktop\\ethereum-platform\\contracts\\Announce.sol",
  "compiler": {
    "name": "solc",
    "version": "0.6.6+commit.6c089d02.Emscripten.clang"
  },
  "schemaVersion": "3.2.4",
  "updatedAt": "2020-09-29T07:22:13.153Z",
  "networkType": "ethereum",
  "devdoc": {
    "methods": {}
  },
  "userdoc": {
    "methods": {}
  }
}