{
  "contractName": "Announce",
  "abi": [
    {
      "constant": true,
      "inputs": [
        {
          "internalType": "address",
          "name": "",
          "type": "address"
        }
      ],
      "name": "Users",
      "outputs": [
        {
          "internalType": "contract User",
          "name": "",
          "type": "address"
        }
      ],
      "payable": false,
      "stateMutability": "view",
      "type": "function"
    },
    {
      "constant": true,
      "inputs": [
        {
          "internalType": "uint256",
          "name": "",
          "type": "uint256"
        }
      ],
      "name": "user_list",
      "outputs": [
        {
          "internalType": "contract User",
          "name": "",
          "type": "address"
        }
      ],
      "payable": false,
      "stateMutability": "view",
      "type": "function"
    },
    {
      "constant": false,
      "inputs": [
        {
          "internalType": "address",
          "name": "owner",
          "type": "address"
        },
        {
          "internalType": "bytes32",
          "name": "name",
          "type": "bytes32"
        },
        {
          "internalType": "bytes32",
          "name": "dates",
          "type": "bytes32"
        },
        {
          "internalType": "bytes32",
          "name": "destination",
          "type": "bytes32"
        },
        {
          "internalType": "bytes32",
          "name": "traffic",
          "type": "bytes32"
        },
        {
          "internalType": "bytes32",
          "name": "people",
          "type": "bytes32"
        },
        {
          "internalType": "bytes32",
          "name": "money",
          "type": "bytes32"
        }
      ],
      "name": "create_user",
      "outputs": [],
      "payable": false,
      "stateMutability": "nonpayable",
      "type": "function"
    },
    {
      "constant": true,
      "inputs": [],
      "name": "get_user_list",
      "outputs": [
        {
          "internalType": "address[]",
          "name": "_owners",
          "type": "address[]"
        },
        {
          "internalType": "bytes32[]",
          "name": "_names",
          "type": "bytes32[]"
        }
      ],
      "payable": false,
      "stateMutability": "view",
      "type": "function"
    },
    {
      "constant": true,
      "inputs": [
        {
          "internalType": "address",
          "name": "_user",
          "type": "address"
        }
      ],
      "name": "get_user",
      "outputs": [
        {
          "internalType": "bytes32",
          "name": "_name",
          "type": "bytes32"
        },
        {
          "internalType": "bytes32",
          "name": "_dates",
          "type": "bytes32"
        },
        {
          "internalType": "bytes32",
          "name": "_destination",
          "type": "bytes32"
        },
        {
          "internalType": "bytes32",
          "name": "_traffic",
          "type": "bytes32"
        },
        {
          "internalType": "bytes32",
          "name": "_people",
          "type": "bytes32"
        },
        {
          "internalType": "bytes32",
          "name": "_money",
          "type": "bytes32"
        }
      ],
      "payable": false,
      "stateMutability": "view",
      "type": "function"
    }
  ],
  "bytecode": "0x608060405234801561001057600080fd5b50611499806100206000396000f3fe60806040523480156200001157600080fd5b50600436106200005e5760003560e01c80631101bfcf146200006357806371ad722114620001105780637c311b6a146200018e57806399b956a01462000211578063b0ce739d1462000298575b600080fd5b6200006d62000309565b604051808060200180602001838103835285818151815260200191508051906020019060200280838360005b83811015620000b657808201518184015260208101905062000099565b50505050905001838103825284818151815260200191508051906020019060200280838360005b83811015620000fa578082015181840152602081019050620000dd565b5050505090500194505050505060405180910390f35b62000155600480360360208110156200012857600080fd5b81019080803573ffffffffffffffffffffffffffffffffffffffff16906020019092919050505062000587565b60405180878152602001868152602001858152602001848152602001838152602001828152602001965050505050505060405180910390f35b6200020f600480360360e0811015620001a657600080fd5b81019080803573ffffffffffffffffffffffffffffffffffffffff16906020019092919080359060200190929190803590602001909291908035906020019092919080359060200190929190803590602001909291908035906020019092919050505062000a25565b005b62000256600480360360208110156200022957600080fd5b81019080803573ffffffffffffffffffffffffffffffffffffffff16906020019092919050505062000ba9565b604051808273ffffffffffffffffffffffffffffffffffffffff1673ffffffffffffffffffffffffffffffffffffffff16815260200191505060405180910390f35b620002c760048036036020811015620002b057600080fd5b810190808035906020019092919050505062000bdc565b604051808273ffffffffffffffffffffffffffffffffffffffff1673ffffffffffffffffffffffffffffffffffffffff16815260200191505060405180910390f35b6060806060600180549050604051908082528060200260200182016040528015620003435781602001602082028038833980820191505090505b50905060606001805490506040519080825280602002602001820160405280156200037d5781602001602082028038833980820191505090505b50905060008090505b6001805490508110156200057a5760018181548110620003a257fe5b9060005260206000200160009054906101000a900473ffffffffffffffffffffffffffffffffffffffff1673ffffffffffffffffffffffffffffffffffffffff16638da5cb5b6040518163ffffffff1660e01b815260040160206040518083038186803b1580156200041357600080fd5b505afa15801562000428573d6000803e3d6000fd5b505050506040513d60208110156200043f57600080fd5b81019080805190602001909291905050508382815181106200045d57fe5b602002602001019073ffffffffffffffffffffffffffffffffffffffff16908173ffffffffffffffffffffffffffffffffffffffff168152505060018181548110620004a557fe5b9060005260206000200160009054906101000a900473ffffffffffffffffffffffffffffffffffffffff1673ffffffffffffffffffffffffffffffffffffffff16633a525c296040518163ffffffff1660e01b815260040160206040518083038186803b1580156200051657600080fd5b505afa1580156200052b573d6000803e3d6000fd5b505050506040513d60208110156200054257600080fd5b81019080805190602001909291905050508282815181106200056057fe5b602002602001018181525050808060010191505062000386565b5081819350935050509091565b60008060008060008060008060008073ffffffffffffffffffffffffffffffffffffffff168a73ffffffffffffffffffffffffffffffffffffffff1614620005d05789620005d2565b335b73ffffffffffffffffffffffffffffffffffffffff1673ffffffffffffffffffffffffffffffffffffffff16815260200190815260200160002060009054906101000a900473ffffffffffffffffffffffffffffffffffffffff169050600073ffffffffffffffffffffffffffffffffffffffff168173ffffffffffffffffffffffffffffffffffffffff161415620006d3576040517f08c379a000000000000000000000000000000000000000000000000000000000815260040180806020018281038252600a8152602001807f6e6f74206578697374730000000000000000000000000000000000000000000081525060200191505060405180910390fd5b60008173ffffffffffffffffffffffffffffffffffffffff16633a525c296040518163ffffffff1660e01b815260040160206040518083038186803b1580156200071c57600080fd5b505afa15801562000731573d6000803e3d6000fd5b505050506040513d60208110156200074857600080fd5b8101908080519060200190929190505050905060008273ffffffffffffffffffffffffffffffffffffffff16632a4a14c36040518163ffffffff1660e01b815260040160206040518083038186803b158015620007a457600080fd5b505afa158015620007b9573d6000803e3d6000fd5b505050506040513d6020811015620007d057600080fd5b8101908080519060200190929190505050905060008373ffffffffffffffffffffffffffffffffffffffff16630877e5e56040518163ffffffff1660e01b815260040160206040518083038186803b1580156200082c57600080fd5b505afa15801562000841573d6000803e3d6000fd5b505050506040513d60208110156200085857600080fd5b8101908080519060200190929190505050905060008473ffffffffffffffffffffffffffffffffffffffff16633cb2b12a6040518163ffffffff1660e01b815260040160206040518083038186803b158015620008b457600080fd5b505afa158015620008c9573d6000803e3d6000fd5b505050506040513d6020811015620008e057600080fd5b8101908080519060200190929190505050905060008573ffffffffffffffffffffffffffffffffffffffff1663fcfb1e736040518163ffffffff1660e01b815260040160206040518083038186803b1580156200093c57600080fd5b505afa15801562000951573d6000803e3d6000fd5b505050506040513d60208110156200096857600080fd5b8101908080519060200190929190505050905060008673ffffffffffffffffffffffffffffffffffffffff1663b80292696040518163ffffffff1660e01b815260040160206040518083038186803b158015620009c457600080fd5b505afa158015620009d9573d6000803e3d6000fd5b505050506040513d6020811015620009f057600080fd5b810190808051906020019092919050505090508585858585859c509c509c509c509c509c505050505050505091939550919395565b60008787878787878760405162000a3c9062000c19565b808873ffffffffffffffffffffffffffffffffffffffff1673ffffffffffffffffffffffffffffffffffffffff168152602001878152602001868152602001858152602001848152602001838152602001828152602001975050505050505050604051809103906000f08015801562000ab9573d6000803e3d6000fd5b509050806000808a73ffffffffffffffffffffffffffffffffffffffff1673ffffffffffffffffffffffffffffffffffffffff16815260200190815260200160002060006101000a81548173ffffffffffffffffffffffffffffffffffffffff021916908373ffffffffffffffffffffffffffffffffffffffff16021790555060018190806001815401808255809150509060018203906000526020600020016000909192909190916101000a81548173ffffffffffffffffffffffffffffffffffffffff021916908373ffffffffffffffffffffffffffffffffffffffff160217905550505050505050505050565b60006020528060005260406000206000915054906101000a900473ffffffffffffffffffffffffffffffffffffffff1681565b6001818154811062000bea57fe5b906000526020600020016000915054906101000a900473ffffffffffffffffffffffffffffffffffffffff1681565b61083d8062000c288339019056fe608060405234801561001057600080fd5b5060405161083d38038061083d833981810160405260e081101561003357600080fd5b8101908080519060200190929190805190602001909291908051906020019092919080519060200190929190805190602001909291908051906020019092919080519060200190929190505050600073ffffffffffffffffffffffffffffffffffffffff168773ffffffffffffffffffffffffffffffffffffffff161415610123576040517f08c379a000000000000000000000000000000000000000000000000000000000815260040180806020018281038252600a8152602001807f4e656564206f776e65720000000000000000000000000000000000000000000081525060200191505060405180910390fd5b6000602060ff16141561019e576040517f08c379a00000000000000000000000000000000000000000000000000000000081526004018080602001828103825260098152602001807f4e656564206e616d65000000000000000000000000000000000000000000000081525060200191505060405180910390fd5b6000602060ff161415610219576040517f08c379a000000000000000000000000000000000000000000000000000000000815260040180806020018281038252600a8152602001807f4e6565642064617465730000000000000000000000000000000000000000000081525060200191505060405180910390fd5b6000602060ff161415610294576040517f08c379a00000000000000000000000000000000000000000000000000000000081526004018080602001828103825260108152602001807f4e6565642064657374696e6174696f6e0000000000000000000000000000000081525060200191505060405180910390fd5b6000602060ff16141561030f576040517f08c379a000000000000000000000000000000000000000000000000000000000815260040180806020018281038252600c8152602001807f4e6565642074726166666963000000000000000000000000000000000000000081525060200191505060405180910390fd5b6000602060ff16141561038a576040517f08c379a000000000000000000000000000000000000000000000000000000000815260040180806020018281038252600b8152602001807f4e6565642070656f706c6500000000000000000000000000000000000000000081525060200191505060405180910390fd5b6000602060ff161415610405576040517f08c379a000000000000000000000000000000000000000000000000000000000815260040180806020018281038252600a8152602001807f4e656564206d6f6e65790000000000000000000000000000000000000000000081525060200191505060405180910390fd5b866000806101000a81548173ffffffffffffffffffffffffffffffffffffffff021916908373ffffffffffffffffffffffffffffffffffffffff160217905550856001819055508460028190555083600381905550826004819055508160058190555080600681905550505050505050506103b8806104856000396000f3fe608060405234801561001057600080fd5b50600436106100cf5760003560e01c80638da5cb5b1161008c578063b802926911610066578063b80292691461024e578063c450dc791461026c578063d79a4b951461029a578063fcfb1e73146102c8576100cf565b80638da5cb5b146101a857806390b6c7fa146101f2578063a322c81314610220576100cf565b80630877e5e5146100d45780632a4a14c3146100f25780633a525c29146101105780633cb2b12a1461012e5780637042f94d1461014c5780637ba332e91461017a575b600080fd5b6100dc6102e6565b6040518082815260200191505060405180910390f35b6100fa6102f0565b6040518082815260200191505060405180910390f35b6101186102fa565b6040518082815260200191505060405180910390f35b610136610304565b6040518082815260200191505060405180910390f35b6101786004803603602081101561016257600080fd5b810190808035906020019092919050505061030e565b005b6101a66004803603602081101561019057600080fd5b8101908080359060200190929190505050610318565b005b6101b0610322565b604051808273ffffffffffffffffffffffffffffffffffffffff1673ffffffffffffffffffffffffffffffffffffffff16815260200191505060405180910390f35b61021e6004803603602081101561020857600080fd5b8101908080359060200190929190505050610347565b005b61024c6004803603602081101561023657600080fd5b8101908080359060200190929190505050610351565b005b61025661035b565b6040518082815260200191505060405180910390f35b6102986004803603602081101561028257600080fd5b8101908080359060200190929190505050610365565b005b6102c6600480360360208110156102b057600080fd5b810190808035906020019092919050505061036f565b005b6102d0610379565b6040518082815260200191505060405180910390f35b6000600354905090565b6000600254905090565b6000600154905090565b6000600454905090565b8060068190555050565b8060018190555050565b6000809054906101000a900473ffffffffffffffffffffffffffffffffffffffff1681565b8060058190555050565b8060028190555050565b6000600654905090565b8060048190555050565b8060038190555050565b600060055490509056fea265627a7a723158200ae2ec249be336017f0adb6b95ad04a22f0afa3c8abf4f3d3a484705fc7de6ec64736f6c63430005100032a265627a7a723158203b6745eaf7150658bc705b66baa5b6cdc80e43dfb91215caf1fae9e5aa11711f64736f6c63430005100032",
  "source": "// SPDX-License-Identifier: MIT\r\npragma solidity >=0.4.22 <0.8.0;\r\nimport \"./Ownable.sol\";\r\ncontract Announce {\r\n    mapping(address => User) public Users;\r\n    User[] public user_list;\r\n\r\n    function create_user(\r\n        address owner,\r\n        bytes32 name,\r\n        bytes32 dates,\r\n        bytes32 destination,\r\n        bytes32 traffic,\r\n        bytes32 people,\r\n        bytes32 money\r\n\r\n    ) public {\r\n        User user = new User(owner, name, dates,destination,traffic,people,money);\r\n        Users[owner] = user;\r\n        user_list.push(user);\r\n    }\r\n\r\n    // function verify(bytes32 password) public view returns (bool ok) {\r\n    //     address sender = msg.sender;\r\n    //     if (password == Users[sender].get_password()) {\r\n    //         return true;\r\n    //     } else {\r\n    //         return false;\r\n    //     }\r\n    // }\r\n\r\n    function get_user_list()\r\n        public\r\n        view\r\n        returns (address[] memory _owners, bytes32[] memory _names)\r\n    {\r\n        address[] memory owners = new address[](user_list.length);\r\n        bytes32[] memory names = new bytes32[](user_list.length);\r\n\r\n        for (uint256 i = 0; i < user_list.length; i++) {\r\n            owners[i] = user_list[i].owner();\r\n            names[i] = user_list[i].get_name();\r\n        }\r\n        return (owners, names);\r\n    }\r\n\r\n    function get_user(address _user)\r\n        public\r\n        view\r\n        returns (bytes32 _name, bytes32 _dates, bytes32 _destination, bytes32 _traffic, bytes32 _people, bytes32 _money)\r\n    {\r\n        User user = Users[_user == address(0) ? msg.sender : _user];\r\n        require(user != User(0), \"not exists\");\r\n        bytes32 name = user.get_name();\r\n        bytes32 dates = user.get_dates();\r\n        bytes32 destination = user.get_destination();\r\n        bytes32 traffic = user.get_traffic();\r\n        bytes32 people = user.get_people();\r\n        bytes32 money = user.get_money();\r\n\r\n        return (name, dates, destination,traffic,people,money);\r\n    }\r\n}\r\n",
  "sourcePath": "C:/Users/User/Desktop/ethereum-platform/contracts/Announce.sol",
  "compiler": {
    "name": "solc",
    "version": "0.5.16+commit.9c3226ce.Emscripten.clang"
  },
  "schemaVersion": "3.2.4",
  "updatedAt": "2020-09-10T11:46:23.953Z",
  "networkType": "ethereum",
  "devdoc": {
    "methods": {}
  },
  "userdoc": {
    "methods": {}
  }
}