{
  "contractName": "Auth",
  "abi": [
    {
      "inputs": [
        {
          "internalType": "address",
          "name": "g",
          "type": "address"
        }
      ],
      "stateMutability": "nonpayable",
      "type": "constructor"
    },
    {
      "inputs": [
        {
          "internalType": "bytes32",
          "name": "uid",
          "type": "bytes32"
        },
        {
          "internalType": "bytes32",
          "name": "password",
          "type": "bytes32"
        }
      ],
      "name": "create_user",
      "outputs": [],
      "stateMutability": "nonpayable",
      "type": "function"
    },
    {
      "inputs": [
        {
          "internalType": "bytes32",
          "name": "uid",
          "type": "bytes32"
        },
        {
          "internalType": "bytes32",
          "name": "password",
          "type": "bytes32"
        }
      ],
      "name": "verify",
      "outputs": [
        {
          "internalType": "bool",
          "name": "",
          "type": "bool"
        }
      ],
      "stateMutability": "view",
      "type": "function",
      "constant": true
    }
  ],
  "bytecode": "0x608060405234801561001057600080fd5b506040516138453803806138458339818101604052602081101561003357600080fd5b8101908080519060200190929190505050806000806101000a81548173ffffffffffffffffffffffffffffffffffffffff021916908373ffffffffffffffffffffffffffffffffffffffff16021790555060008060009054906101000a900473ffffffffffffffffffffffffffffffffffffffff1673ffffffffffffffffffffffffffffffffffffffff16631fb444926040518163ffffffff1660e01b815260040160206040518083038186803b1580156100ed57600080fd5b505afa158015610101573d6000803e3d6000fd5b505050506040513d602081101561011757600080fd5b8101908080519060200190929190505050905080600160006101000a81548173ffffffffffffffffffffffffffffffffffffffff021916908373ffffffffffffffffffffffffffffffffffffffff16021790555050506136c98061017c6000396000f3fe608060405234801561001057600080fd5b50600436106100365760003560e01c80634e8fee001461003b5780637b8a2f811461008b575b600080fd5b6100716004803603604081101561005157600080fd5b8101908080359060200190929190803590602001909291905050506100c3565b604051808215151515815260200191505060405180910390f35b6100c1600480360360408110156100a157600080fd5b81019080803590602001909291908035906020019092919050505061021e565b005b600080600160009054906101000a900473ffffffffffffffffffffffffffffffffffffffff1673ffffffffffffffffffffffffffffffffffffffff166360368e9f856040518263ffffffff1660e01b81526004018082815260200191505060606040518083038186803b15801561013957600080fd5b505afa15801561014d573d6000803e3d6000fd5b505050506040513d606081101561016357600080fd5b81019080805190602001909291908051906020019092919080519060200190929190505050505090506000819050838173ffffffffffffffffffffffffffffffffffffffff16633d5eb15f6040518163ffffffff1660e01b815260040160206040518083038186803b1580156101d857600080fd5b505afa1580156101ec573d6000803e3d6000fd5b505050506040513d602081101561020257600080fd5b8101908080519060200190929190505050149250505092915050565b600082826000809054906101000a900473ffffffffffffffffffffffffffffffffffffffff1660405161025090610379565b808481526020018381526020018273ffffffffffffffffffffffffffffffffffffffff1673ffffffffffffffffffffffffffffffffffffffff1681526020019350505050604051809103906000f0801580156102b0573d6000803e3d6000fd5b509050600160009054906101000a900473ffffffffffffffffffffffffffffffffffffffff1673ffffffffffffffffffffffffffffffffffffffff1663747fa91b84836040518363ffffffff1660e01b8152600401808381526020018273ffffffffffffffffffffffffffffffffffffffff1673ffffffffffffffffffffffffffffffffffffffff16815260200192505050600060405180830381600087803b15801561035c57600080fd5b505af1158015610370573d6000803e3d6000fd5b50505050505050565b61330d806103878339019056fe608060405234801561001057600080fd5b506040516200330d3803806200330d8339818101604052606081101561003557600080fd5b810190808051906020019092919080519060200190929190805190602001909291905050506000602060ff1614156100d5576040517f08c379a00000000000000000000000000000000000000000000000000000000081526004018080602001828103825260078152602001807f4e6565642069640000000000000000000000000000000000000000000000000081525060200191505060405180910390fd5b6000602060ff161415610150576040517f08c379a000000000000000000000000000000000000000000000000000000000815260040180806020018281038252600d8152602001807f4e6565642070617373776f72640000000000000000000000000000000000000081525060200191505060405180910390fd5b60008173ffffffffffffffffffffffffffffffffffffffff1663d3388a1f6040518163ffffffff1660e01b815260040160206040518083038186803b15801561019857600080fd5b505afa1580156101ac573d6000803e3d6000fd5b505050506040513d60208110156101c257600080fd5b8101908080519060200190929190505050905060008273ffffffffffffffffffffffffffffffffffffffff16637dd1bc256040518163ffffffff1660e01b815260040160206040518083038186803b15801561021d57600080fd5b505afa158015610231573d6000803e3d6000fd5b505050506040513d602081101561024757600080fd5b8101908080519060200190929190505050905060008373ffffffffffffffffffffffffffffffffffffffff166368bb23ed6040518163ffffffff1660e01b815260040160206040518083038186803b1580156102a257600080fd5b505afa1580156102b6573d6000803e3d6000fd5b505050506040513d60208110156102cc57600080fd5b8101908080519060200190929190505050905082600260006101000a81548173ffffffffffffffffffffffffffffffffffffffff021916908373ffffffffffffffffffffffffffffffffffffffff16021790555081600360006101000a81548173ffffffffffffffffffffffffffffffffffffffff021916908373ffffffffffffffffffffffffffffffffffffffff16021790555080600460006101000a81548173ffffffffffffffffffffffffffffffffffffffff021916908373ffffffffffffffffffffffffffffffffffffffff1602179055508560008190555084600181905550600260009054906101000a900473ffffffffffffffffffffffffffffffffffffffff1673ffffffffffffffffffffffffffffffffffffffff166325516f21600054306040516103fe906104dd565b808273ffffffffffffffffffffffffffffffffffffffff1673ffffffffffffffffffffffffffffffffffffffff168152602001915050604051809103906000f080158015610450573d6000803e3d6000fd5b506040518363ffffffff1660e01b8152600401808381526020018273ffffffffffffffffffffffffffffffffffffffff1673ffffffffffffffffffffffffffffffffffffffff16815260200192505050600060405180830381600087803b1580156104ba57600080fd5b505af11580156104ce573d6000803e3d6000fd5b505050505050505050506104eb565b61039f8062002f6e83390190565b612a7380620004fb6000396000f3fe608060405234801561001057600080fd5b50600436106100625760003560e01c8063148c2d23146100675780633d5eb15f146101c35780637bc693a8146101e1578063bb4c402a14610259578063c0fbc7c5146102a3578063f850473a146102c1575b600080fd5b6101c16004803603606081101561007d57600080fd5b810190808035906020019064010000000081111561009a57600080fd5b8201836020820111156100ac57600080fd5b803590602001918460018302840111640100000000831117156100ce57600080fd5b91908080601f016020809104026020016040519081016040528093929190818152602001838380828437600081840152601f19601f8201169050808301925050505050505091929192908035906020019064010000000081111561013157600080fd5b82018360208201111561014357600080fd5b8035906020019184600183028401116401000000008311171561016557600080fd5b91908080601f016020809104026020016040519081016040528093929190818152602001838380828437600081840152601f19601f820116905080830192505050505050509192919290803590602001909291905050506102ef565b005b6101cb6104fe565b6040518082815260200191505060405180910390f35b610257600480360360808110156101f757600080fd5b8101908080359060200190929190803573ffffffffffffffffffffffffffffffffffffffff169060200190929190803573ffffffffffffffffffffffffffffffffffffffff16906020019092919080359060200190929190505050610508565b005b610261610a0b565b604051808273ffffffffffffffffffffffffffffffffffffffff1673ffffffffffffffffffffffffffffffffffffffff16815260200191505060405180910390f35b6102ab610ac2565b6040518082815260200191505060405180910390f35b6102ed600480360360208110156102d757600080fd5b8101908080359060200190929190505050610acb565b005b600030848460405161030090610ad5565b808473ffffffffffffffffffffffffffffffffffffffff1673ffffffffffffffffffffffffffffffffffffffff1681526020018060200180602001838103835285818151815260200191508051906020019080838360005b83811015610373578082015181840152602081019050610358565b50505050905090810190601f1680156103a05780820380516001836020036101000a031916815260200191505b50838103825284818151815260200191508051906020019080838360005b838110156103d95780820151818401526020810190506103be565b50505050905090810190601f1680156104065780820380516001836020036101000a031916815260200191505b5095505050505050604051809103906000f08015801561042a573d6000803e3d6000fd5b509050600360009054906101000a900473ffffffffffffffffffffffffffffffffffffffff1673ffffffffffffffffffffffffffffffffffffffff16630655243582600054856040518463ffffffff1660e01b8152600401808473ffffffffffffffffffffffffffffffffffffffff1673ffffffffffffffffffffffffffffffffffffffff1681526020018381526020018281526020019350505050600060405180830381600087803b1580156104e057600080fd5b505af11580156104f4573d6000803e3d6000fd5b5050505050505050565b6000600154905090565b600080429050600186141561068057308530868685600260009054906101000a900473ffffffffffffffffffffffffffffffffffffffff1660405161054c90610ae2565b808873ffffffffffffffffffffffffffffffffffffffff1673ffffffffffffffffffffffffffffffffffffffff1681526020018773ffffffffffffffffffffffffffffffffffffffff1673ffffffffffffffffffffffffffffffffffffffff1681526020018673ffffffffffffffffffffffffffffffffffffffff1673ffffffffffffffffffffffffffffffffffffffff1681526020018573ffffffffffffffffffffffffffffffffffffffff1673ffffffffffffffffffffffffffffffffffffffff1681526020018481526020018381526020018273ffffffffffffffffffffffffffffffffffffffff1673ffffffffffffffffffffffffffffffffffffffff168152602001975050505050505050604051809103906000f080158015610678573d6000803e3d6000fd5b5091506107ef565b60028614156107ee57303086868685600260009054906101000a900473ffffffffffffffffffffffffffffffffffffffff166040516106be90610ae2565b808873ffffffffffffffffffffffffffffffffffffffff1673ffffffffffffffffffffffffffffffffffffffff1681526020018773ffffffffffffffffffffffffffffffffffffffff1673ffffffffffffffffffffffffffffffffffffffff1681526020018673ffffffffffffffffffffffffffffffffffffffff1673ffffffffffffffffffffffffffffffffffffffff1681526020018573ffffffffffffffffffffffffffffffffffffffff1673ffffffffffffffffffffffffffffffffffffffff1681526020018481526020018381526020018273ffffffffffffffffffffffffffffffffffffffff1673ffffffffffffffffffffffffffffffffffffffff168152602001975050505050505050604051809103906000f0801580156107ea573d6000803e3d6000fd5b5091505b5b600460009054906101000a900473ffffffffffffffffffffffffffffffffffffffff1673ffffffffffffffffffffffffffffffffffffffff1663f11c43c483600054846040518463ffffffff1660e01b8152600401808473ffffffffffffffffffffffffffffffffffffffff1673ffffffffffffffffffffffffffffffffffffffff1681526020018381526020018281526020019350505050600060405180830381600087803b1580156108a257600080fd5b505af11580156108b6573d6000803e3d6000fd5b50505050600460009054906101000a900473ffffffffffffffffffffffffffffffffffffffff1673ffffffffffffffffffffffffffffffffffffffff1663f11c43c4838773ffffffffffffffffffffffffffffffffffffffff1663c0fbc7c56040518163ffffffff1660e01b815260040160206040518083038186803b15801561093f57600080fd5b505afa158015610953573d6000803e3d6000fd5b505050506040513d602081101561096957600080fd5b8101908080519060200190929190505050846040518463ffffffff1660e01b8152600401808473ffffffffffffffffffffffffffffffffffffffff1673ffffffffffffffffffffffffffffffffffffffff1681526020018381526020018281526020019350505050600060405180830381600087803b1580156109eb57600080fd5b505af11580156109ff573d6000803e3d6000fd5b50505050505050505050565b6000600260009054906101000a900473ffffffffffffffffffffffffffffffffffffffff1673ffffffffffffffffffffffffffffffffffffffff16633a4f78306000546040518263ffffffff1660e01b81526004018082815260200191505060206040518083038186803b158015610a8257600080fd5b505afa158015610a96573d6000803e3d6000fd5b505050506040513d6020811015610aac57600080fd5b8101908080519060200190929190505050905090565b60008054905090565b8060018190555050565b610f6e80610af083390190565b610fe080611a5e8339019056fe60806040523480156200001157600080fd5b5060405162000f6e38038062000f6e833981810160405260608110156200003757600080fd5b8101908080519060200190929190805160405193929190846401000000008211156200006257600080fd5b838201915060208201858111156200007957600080fd5b82518660018202830111640100000000821117156200009757600080fd5b8083526020830192505050908051906020019080838360005b83811015620000cd578082015181840152602081019050620000b0565b50505050905090810190601f168015620000fb5780820380516001836020036101000a031916815260200191505b50604052602001805160405193929190846401000000008211156200011f57600080fd5b838201915060208201858111156200013657600080fd5b82518660018202830111640100000000821117156200015457600080fd5b8083526020830192505050908051906020019080838360005b838110156200018a5780820151818401526020810190506200016d565b50505050905090810190601f168015620001b85780820380516001836020036101000a031916815260200191505b50604052505050826000806101000a81548173ffffffffffffffffffffffffffffffffffffffff021916908373ffffffffffffffffffffffffffffffffffffffff1602179055508160089080519060200190620002179291906200023a565b508060099080519060200190620002309291906200023a565b50505050620002e9565b828054600181600116156101000203166002900490600052602060002090601f016020900481019282601f106200027d57805160ff1916838001178555620002ae565b82800160010185558215620002ae579182015b82811115620002ad57825182559160200191906001019062000290565b5b509050620002bd9190620002c1565b5090565b620002e691905b80821115620002e2576000816000905550600101620002c8565b5090565b90565b610c7580620002f96000396000f3fe608060405234801561001057600080fd5b50600436106100ea5760003560e01c806382996d9f1161008c57806391203c8c1161006657806391203c8c146105a8578063a035b1fe146105ca578063c30d7ad5146105e8578063ef430aa614610616576100ea565b806382996d9f14610576578063834ee4171461058057806386d1a69f1461059e576100ea565b80633e1f5d3f116100c85780633e1f5d3f146101ae5780634dee73c81461030057806355d576cc146103835780635fbd6ad114610406576100ea565b806312285178146100ef578063162433561461017257806317fc45e214610190575b600080fd5b6100f7610699565b6040518080602001828103825283818151815260200191508051906020019080838360005b8381101561013757808201518184015260208101905061011c565b50505050905090810190601f1680156101645780820380516001836020036101000a031916815260200191505b509250505060405180910390f35b61017a610737565b6040518082815260200191505060405180910390f35b61019861073d565b6040518082815260200191505060405180910390f35b6102fe600480360360408110156101c457600080fd5b81019080803590602001906401000000008111156101e157600080fd5b8201836020820111156101f357600080fd5b8035906020019184600183028401116401000000008311171561021557600080fd5b91908080601f016020809104026020016040519081016040528093929190818152602001838380828437600081840152601f19601f8201169050808301925050505050505091929192908035906020019064010000000081111561027857600080fd5b82018360208201111561028a57600080fd5b803590602001918460018302840111640100000000831117156102ac57600080fd5b91908080601f016020809104026020016040519081016040528093929190818152602001838380828437600081840152601f19601f820116905080830192505050505050509192919290505050610743565b005b610308610775565b6040518080602001828103825283818151815260200191508051906020019080838360005b8381101561034857808201518184015260208101905061032d565b50505050905090810190601f1680156103755780820380516001836020036101000a031916815260200191505b509250505060405180910390f35b61038b610813565b6040518080602001828103825283818151815260200191508051906020019080838360005b838110156103cb5780820151818401526020810190506103b0565b50505050905090810190601f1680156103f85780820380516001836020036101000a031916815260200191505b509250505060405180910390f35b610574600480360360a081101561041c57600080fd5b810190808035906020019064010000000081111561043957600080fd5b82018360208201111561044b57600080fd5b8035906020019184600183028401116401000000008311171561046d57600080fd5b91908080601f016020809104026020016040519081016040528093929190818152602001838380828437600081840152601f19601f820116905080830192505050505050509192919290803590602001906401000000008111156104d057600080fd5b8201836020820111156104e257600080fd5b8035906020019184600183028401116401000000008311171561050457600080fd5b91908080601f016020809104026020016040519081016040528093929190818152602001838380828437600081840152601f19601f8201169050808301925050505050505091929192908035906020019092919080359060200190929190803590602001909291905050506108b1565b005b61057e610a87565b005b610588610aa4565b6040518082815260200191505060405180910390f35b6105a6610aaa565b005b6105b0610ac7565b604051808215151515815260200191505060405180910390f35b6105d2610ada565b6040518082815260200191505060405180910390f35b610614600480360360208110156105fe57600080fd5b8101908080359060200190929190505050610ae0565b005b61061e610afc565b6040518080602001828103825283818151815260200191508051906020019080838360005b8381101561065e578082015181840152602081019050610643565b50505050905090810190601f16801561068b5780820380516001836020036101000a031916815260200191505b509250505060405180910390f35b60018054600181600116156101000203166002900480601f01602080910402602001604051908101604052809291908181526020018280546001816001161561010002031660029004801561072f5780601f106107045761010080835404028352916020019161072f565b820191906000526020600020905b81548152906001019060200180831161071257829003601f168201915b505050505081565b60055481565b60075481565b8160089080519060200190610759929190610b9a565b508060099080519060200190610770929190610b9a565b505050565b60098054600181600116156101000203166002900480601f01602080910402602001604051908101604052809291908181526020018280546001816001161561010002031660029004801561080b5780601f106107e05761010080835404028352916020019161080b565b820191906000526020600020905b8154815290600101906020018083116107ee57829003601f168201915b505050505081565b60088054600181600116156101000203166002900480601f0160208091040260200160405190810160405280929190818152602001828054600181600116156101000203166002900480156108a95780601f1061087e576101008083540402835291602001916108a9565b820191906000526020600020905b81548152906001019060200180831161088c57829003601f168201915b505050505081565b60008551141561095b5760018054600181600116156101000203166002900480601f0160208091040260200160405190810160405280929190818152602001828054600181600116156101000203166002900480156109515780601f1061092657610100808354040283529160200191610951565b820191906000526020600020905b81548152906001019060200180831161093457829003601f168201915b505050505061095d565b845b60019080519060200190610972929190610b9a565b50600084511415610a1d5760028054600181600116156101000203166002900480601f016020809104026020016040519081016040528092919081815260200182805460018160011615610100020316600290048015610a135780601f106109e857610100808354040283529160200191610a13565b820191906000526020600020905b8154815290600101906020018083116109f657829003601f168201915b5050505050610a1f565b835b60029080519060200190610a34929190610b9a565b506000831415610a4657600454610a48565b825b6004819055506000821415610a5f57600554610a61565b815b6005819055506000811415610a7857600754610a7a565b805b6007819055505050505050565b6001600360006101000a81548160ff021916908315150217905550565b60045481565b6000600360006101000a81548160ff021916908315150217905550565b600360009054906101000a900460ff1681565b60065481565b6000811415610af157600654610af3565b805b60068190555050565b60028054600181600116156101000203166002900480601f016020809104026020016040519081016040528092919081815260200182805460018160011615610100020316600290048015610b925780601f10610b6757610100808354040283529160200191610b92565b820191906000526020600020905b815481529060010190602001808311610b7557829003601f168201915b505050505081565b828054600181600116156101000203166002900490600052602060002090601f016020900481019282601f10610bdb57805160ff1916838001178555610c09565b82800160010185558215610c09579182015b82811115610c08578251825591602001919060010190610bed565b5b509050610c169190610c1a565b5090565b610c3c91905b80821115610c38576000816000905550600101610c20565b5090565b9056fea2646970667358221220d6e6662f3deebd6e19b7c11a377e20a96b8c939b0b51f46514a8f112509b4a4864736f6c6343000606003360806040526000600560006101000a81548160ff0219169083151502179055506000600560016101000a81548160ff0219169083151502179055506000600560026101000a81548160ff02191690831515021790555034801561006157600080fd5b50604051610fe0380380610fe0833981810160405260e081101561008457600080fd5b8101908080519060200190929190805190602001909291908051906020019092919080519060200190929190805190602001909291908051906020019092919080519060200190929190505050866000806101000a81548173ffffffffffffffffffffffffffffffffffffffff021916908373ffffffffffffffffffffffffffffffffffffffff16021790555085600160006101000a81548173ffffffffffffffffffffffffffffffffffffffff021916908373ffffffffffffffffffffffffffffffffffffffff16021790555084600260006101000a81548173ffffffffffffffffffffffffffffffffffffffff021916908373ffffffffffffffffffffffffffffffffffffffff16021790555083600360006101000a81548173ffffffffffffffffffffffffffffffffffffffff021916908373ffffffffffffffffffffffffffffffffffffffff160217905550826004819055508160068190555080600860006101000a81548173ffffffffffffffffffffffffffffffffffffffff021916908373ffffffffffffffffffffffffffffffffffffffff16021790555050505050505050610da7806102396000396000f3fe608060405234801561001057600080fd5b50600436106100885760003560e01c8063730a9c691161005b578063730a9c691461021157806387cbd81d14610270578063ab2f2637146102cf578063e64553e0146102f157610088565b806306010a481461008d578063284d0e68146100ec57806360f936ba1461010a57806367e404ce146101c7575b600080fd5b610095610335565b6040518080602001828103825283818151815260200191508051906020019060200280838360005b838110156100d85780820151818401526020810190506100bd565b505050509050019250505060405180910390f35b6100f46103c1565b6040518082815260200191505060405180910390f35b61014c6004803603602081101561012057600080fd5b81019080803573ffffffffffffffffffffffffffffffffffffffff1690602001909291905050506103cb565b6040518080602001828103825283818151815260200191508051906020019080838360005b8381101561018c578082015181840152602081019050610171565b50505050905090810190601f1680156101b95780820380516001836020036101000a031916815260200191505b509250505060405180910390f35b6101cf61058d565b604051808273ffffffffffffffffffffffffffffffffffffffff1673ffffffffffffffffffffffffffffffffffffffff16815260200191505060405180910390f35b6102196105b2565b6040518080602001828103825283818151815260200191508051906020019060200280838360005b8381101561025c578082015181840152602081019050610241565b505050509050019250505060405180910390f35b610278610693565b6040518080602001828103825283818151815260200191508051906020019060200280838360005b838110156102bb5780820151818401526020810190506102a0565b505050509050019250505060405180910390f35b6102d761088e565b604051808215151515815260200191505060405180910390f35b6103336004803603602081101561030757600080fd5b81019080803573ffffffffffffffffffffffffffffffffffffffff169060200190929190505050610911565b005b606080600267ffffffffffffffff8111801561035057600080fd5b5060405190808252806020026020018201604052801561037f5781602001602082028036833780820191505090505b5090506006548160008151811061039257fe5b602002602001018181525050600754816001815181106103ae57fe5b6020026020010181815250508091505090565b6000600454905090565b606080600160009054906101000a900473ffffffffffffffffffffffffffffffffffffffff1673ffffffffffffffffffffffffffffffffffffffff168373ffffffffffffffffffffffffffffffffffffffff161415610461576040518060400160405280600681526020017fe7a79fe696b900000000000000000000000000000000000000000000000000008152509050610584565b600260009054906101000a900473ffffffffffffffffffffffffffffffffffffffff1673ffffffffffffffffffffffffffffffffffffffff168373ffffffffffffffffffffffffffffffffffffffff1614156104f4576040518060400160405280600681526020017fe5809fe696b900000000000000000000000000000000000000000000000000008152509050610583565b6000809054906101000a900473ffffffffffffffffffffffffffffffffffffffff1673ffffffffffffffffffffffffffffffffffffffff168373ffffffffffffffffffffffffffffffffffffffff161415610582576040518060400160405280600f81526020017fe4baa4e69893e799bce8b5b7e696b9000000000000000000000000000000000081525090505b5b5b80915050919050565b6000809054906101000a900473ffffffffffffffffffffffffffffffffffffffff1681565b606080600367ffffffffffffffff811180156105cd57600080fd5b506040519080825280602002602001820160405280156105fc5781602001602082028036833780820191505090505b509050600560009054906101000a900460ff168160008151811061061c57fe5b602002602001019015159081151581525050600560019054906101000a900460ff168160018151811061064b57fe5b602002602001019015159081151581525050600560029054906101000a900460ff168160028151811061067a57fe5b6020026020010190151590811515815250508091505090565b606080600467ffffffffffffffff811180156106ae57600080fd5b506040519080825280602002602001820160405280156106dd5781602001602082028036833780820191505090505b5090506000809054906101000a900473ffffffffffffffffffffffffffffffffffffffff168160008151811061070f57fe5b602002602001019073ffffffffffffffffffffffffffffffffffffffff16908173ffffffffffffffffffffffffffffffffffffffff1681525050600160009054906101000a900473ffffffffffffffffffffffffffffffffffffffff168160018151811061077957fe5b602002602001019073ffffffffffffffffffffffffffffffffffffffff16908173ffffffffffffffffffffffffffffffffffffffff1681525050600260009054906101000a900473ffffffffffffffffffffffffffffffffffffffff16816002815181106107e357fe5b602002602001019073ffffffffffffffffffffffffffffffffffffffff16908173ffffffffffffffffffffffffffffffffffffffff1681525050600360009054906101000a900473ffffffffffffffffffffffffffffffffffffffff168160038151811061084d57fe5b602002602001019073ffffffffffffffffffffffffffffffffffffffff16908173ffffffffffffffffffffffffffffffffffffffff16815250508091505090565b6000600560029054906101000a900460ff161580156108b95750600560009054906101000a900460ff165b80156108d15750600560019054906101000a900460ff165b15610909576108de610a24565b426007819055506001600560026101000a81548160ff0219169083151502179055506001905061090e565b600090505b90565b6000809050600160009054906101000a900473ffffffffffffffffffffffffffffffffffffffff1673ffffffffffffffffffffffffffffffffffffffff168273ffffffffffffffffffffffffffffffffffffffff16141561097557600190506109d1565b600260009054906101000a900473ffffffffffffffffffffffffffffffffffffffff1673ffffffffffffffffffffffffffffffffffffffff168273ffffffffffffffffffffffffffffffffffffffff1614156109d057600290505b5b60018114156109fa576001600560006101000a81548160ff021916908315150217905550610a20565b6002811415610a1f576001600560016101000a81548160ff0219169083151502179055505b5b5050565b6000600860009054906101000a900473ffffffffffffffffffffffffffffffffffffffff1673ffffffffffffffffffffffffffffffffffffffff16633a4f7830600160009054906101000a900473ffffffffffffffffffffffffffffffffffffffff1673ffffffffffffffffffffffffffffffffffffffff1663c0fbc7c56040518163ffffffff1660e01b815260040160206040518083038186803b158015610acc57600080fd5b505afa158015610ae0573d6000803e3d6000fd5b505050506040513d6020811015610af657600080fd5b81019080805190602001909291905050506040518263ffffffff1660e01b81526004018082815260200191505060206040518083038186803b158015610b3b57600080fd5b505afa158015610b4f573d6000803e3d6000fd5b505050506040513d6020811015610b6557600080fd5b810190808051906020019092919050505090506000600860009054906101000a900473ffffffffffffffffffffffffffffffffffffffff1673ffffffffffffffffffffffffffffffffffffffff16633a4f7830600260009054906101000a900473ffffffffffffffffffffffffffffffffffffffff1673ffffffffffffffffffffffffffffffffffffffff1663c0fbc7c56040518163ffffffff1660e01b815260040160206040518083038186803b158015610c2057600080fd5b505afa158015610c34573d6000803e3d6000fd5b505050506040513d6020811015610c4a57600080fd5b81019080805190602001909291905050506040518263ffffffff1660e01b81526004018082815260200191505060206040518083038186803b158015610c8f57600080fd5b505afa158015610ca3573d6000803e3d6000fd5b505050506040513d6020811015610cb957600080fd5b810190808051906020019092919050505090508173ffffffffffffffffffffffffffffffffffffffff1663ac7d7a3c826004546040518363ffffffff1660e01b8152600401808373ffffffffffffffffffffffffffffffffffffffff1673ffffffffffffffffffffffffffffffffffffffff16815260200182815260200192505050600060405180830381600087803b158015610d5557600080fd5b505af1158015610d69573d6000803e3d6000fd5b50505050505056fea2646970667358221220fb7bcbeffdaa0b242aa52691a2af526cd10078e7e90a437b869a37654fddccc364736f6c63430006060033a2646970667358221220793f897215594b6da6c499cf0acf9c0bb4cb02e055819723124838c3df89e6ce64736f6c63430006060033608060405234801561001057600080fd5b5060405161039f38038061039f8339818101604052602081101561003357600080fd5b8101908080519060200190929190505050806000806101000a81548173ffffffffffffffffffffffffffffffffffffffff021916908373ffffffffffffffffffffffffffffffffffffffff1602179055504260028190555042600381905550506102fd806100a26000396000f3fe608060405234801561001057600080fd5b506004361061007d5760003560e01c806331d7fbb91161005b57806331d7fbb9146101185780636add0acf14610136578063ac7d7a3c14610164578063c1cfb99a146101b25761007d565b806308700f6d146100825780630ac298dc146100b057806325b49d49146100fa575b600080fd5b6100ae6004803603602081101561009857600080fd5b81019080803590602001909291905050506101d0565b005b6100b86101ea565b604051808273ffffffffffffffffffffffffffffffffffffffff1673ffffffffffffffffffffffffffffffffffffffff16815260200191505060405180910390f35b610102610213565b6040518082815260200191505060405180910390f35b610120610219565b6040518082815260200191505060405180910390f35b6101626004803603602081101561014c57600080fd5b810190808035906020019092919050505061021f565b005b6101b06004803603604081101561017a57600080fd5b81019080803573ffffffffffffffffffffffffffffffffffffffff16906020019092919080359060200190929190505050610229565b005b6101ba610237565b6040518082815260200191505060405180910390f35b806001600082825401925050819055504260038190555050565b60008060009054906101000a900473ffffffffffffffffffffffffffffffffffffffff16905090565b60035481565b60025481565b8060018190555050565b6102338282610241565b5050565b6000600154905090565b806001600082825403925050819055508173ffffffffffffffffffffffffffffffffffffffff166308700f6d826040518263ffffffff1660e01b815260040180828152602001915050600060405180830381600087803b1580156102a457600080fd5b505af11580156102b8573d6000803e3d6000fd5b5050505042600381905550505056fea2646970667358221220ade63961b038d4bffbfd2c81da3765006f777be3cdf7233ea5e06435a85f284864736f6c63430006060033a264697066735822122061e4ec0c801d27548851988610fb467ad70d93ca9f7f78c557ff1e495f657bb364736f6c63430006060033",
  "immutableReferences": {},
  "source": "// SPDX-License-Identifier: MIT\r\npragma solidity >=0.4.22 <0.8.0;\r\nimport \"./User.sol\";\r\nimport \"./Global.sol\";\r\nimport \"./UserManager.sol\";\r\n\r\ncontract Auth {\r\n    Global private global;\r\n    UserManager private UM;\r\n\r\n    constructor(address g) public {\r\n        global = Global(g);\r\n        address um_addr = global.um_addr(); //\r\n        UM = UserManager(um_addr);\r\n    }\r\n\r\n    function create_user(bytes32 uid, bytes32 password) public {\r\n        User user = new User(uid, password, global);\r\n        UM.add_user(uid, address(user));\r\n    }\r\n\r\n    function verify(bytes32 uid, bytes32 password) public view returns (bool) {\r\n        (address user_addr, , ) = UM.get_user(uid);\r\n        User user = User(user_addr);\r\n        return user.get_password() == password;\r\n    }\r\n}\r\n",
  "sourcePath": "C:/Users/User/Desktop/ethereum-platform/contracts/Auth.sol",
  "compiler": {
    "name": "solc",
    "version": "0.6.6+commit.6c089d02.Emscripten.clang"
  },
  "schemaVersion": "3.2.4",
  "updatedAt": "2020-09-22T09:46:39.571Z",
  "networkType": "ethereum",
  "devdoc": {
    "methods": {}
  },
  "userdoc": {
    "methods": {}
  }
}