{
  "contractName": "Auth",
  "abi": [
    {
      "constant": true,
      "inputs": [
        {
          "internalType": "address",
          "name": "",
          "type": "address"
        }
      ],
      "name": "Users",
      "outputs": [
        {
          "internalType": "contract User",
          "name": "",
          "type": "address"
        }
      ],
      "payable": false,
      "stateMutability": "view",
      "type": "function"
    },
    {
      "constant": true,
      "inputs": [
        {
          "internalType": "uint256",
          "name": "",
          "type": "uint256"
        }
      ],
      "name": "user_list",
      "outputs": [
        {
          "internalType": "contract User",
          "name": "",
          "type": "address"
        }
      ],
      "payable": false,
      "stateMutability": "view",
      "type": "function"
    },
    {
      "constant": false,
      "inputs": [
        {
          "internalType": "address",
          "name": "owner",
          "type": "address"
        },
        {
          "internalType": "bytes32",
          "name": "name",
          "type": "bytes32"
        },
        {
          "internalType": "bytes32",
          "name": "password",
          "type": "bytes32"
        }
      ],
      "name": "create_user",
      "outputs": [],
      "payable": false,
      "stateMutability": "nonpayable",
      "type": "function"
    },
    {
      "constant": true,
      "inputs": [
        {
          "internalType": "bytes32",
          "name": "password",
          "type": "bytes32"
        }
      ],
      "name": "verify",
      "outputs": [
        {
          "internalType": "bool",
          "name": "ok",
          "type": "bool"
        }
      ],
      "payable": false,
      "stateMutability": "view",
      "type": "function"
    },
    {
      "constant": true,
      "inputs": [],
      "name": "get_user_list",
      "outputs": [
        {
          "internalType": "address[]",
          "name": "_owners",
          "type": "address[]"
        },
        {
          "internalType": "bytes32[]",
          "name": "_names",
          "type": "bytes32[]"
        }
      ],
      "payable": false,
      "stateMutability": "view",
      "type": "function"
    },
    {
      "constant": true,
      "inputs": [
        {
          "internalType": "address",
          "name": "_user",
          "type": "address"
        }
      ],
      "name": "get_user",
      "outputs": [
        {
          "internalType": "bytes32",
          "name": "_name",
          "type": "bytes32"
        },
        {
          "internalType": "bytes32",
          "name": "_password",
          "type": "bytes32"
        }
      ],
      "payable": false,
      "stateMutability": "view",
      "type": "function"
    }
  ],
  "bytecode": "0x608060405234801561001057600080fd5b50610ee8806100206000396000f3fe608060405234801561001057600080fd5b50600436106100625760003560e01c80631101bfcf146100675780636c52ace81461010e57806371ad72211461016657806375e36616146101c557806399b956a01461020b578063b0ce739d1461028f575b600080fd5b61006f6102fd565b604051808060200180602001838103835285818151815260200191508051906020019060200280838360005b838110156100b657808201518184015260208101905061009b565b50505050905001838103825284818151815260200191508051906020019060200280838360005b838110156100f85780820151818401526020810190506100dd565b5050505090500194505050505060405180910390f35b6101646004803603606081101561012457600080fd5b81019080803573ffffffffffffffffffffffffffffffffffffffff169060200190929190803590602001909291908035906020019092919050505061056d565b005b6101a86004803603602081101561017c57600080fd5b81019080803573ffffffffffffffffffffffffffffffffffffffff1690602001909291905050506106ca565b604051808381526020018281526020019250505060405180910390f35b6101f1600480360360208110156101db57600080fd5b8101908080359060200190929190505050610925565b604051808215151515815260200191505060405180910390f35b61024d6004803603602081101561022157600080fd5b81019080803573ffffffffffffffffffffffffffffffffffffffff169060200190929190505050610a26565b604051808273ffffffffffffffffffffffffffffffffffffffff1673ffffffffffffffffffffffffffffffffffffffff16815260200191505060405180910390f35b6102bb600480360360208110156102a557600080fd5b8101908080359060200190929190505050610a59565b604051808273ffffffffffffffffffffffffffffffffffffffff1673ffffffffffffffffffffffffffffffffffffffff16815260200191505060405180910390f35b60608060606001805490506040519080825280602002602001820160405280156103365781602001602082028038833980820191505090505b509050606060018054905060405190808252806020026020018201604052801561036f5781602001602082028038833980820191505090505b50905060008090505b600180549050811015610560576001818154811061039257fe5b9060005260206000200160009054906101000a900473ffffffffffffffffffffffffffffffffffffffff1673ffffffffffffffffffffffffffffffffffffffff16638da5cb5b6040518163ffffffff1660e01b815260040160206040518083038186803b15801561040257600080fd5b505afa158015610416573d6000803e3d6000fd5b505050506040513d602081101561042c57600080fd5b810190808051906020019092919050505083828151811061044957fe5b602002602001019073ffffffffffffffffffffffffffffffffffffffff16908173ffffffffffffffffffffffffffffffffffffffff16815250506001818154811061049057fe5b9060005260206000200160009054906101000a900473ffffffffffffffffffffffffffffffffffffffff1673ffffffffffffffffffffffffffffffffffffffff16633a525c296040518163ffffffff1660e01b815260040160206040518083038186803b15801561050057600080fd5b505afa158015610514573d6000803e3d6000fd5b505050506040513d602081101561052a57600080fd5b810190808051906020019092919050505082828151811061054757fe5b6020026020010181815250508080600101915050610378565b5081819350935050509091565b600083838360405161057e90610a95565b808473ffffffffffffffffffffffffffffffffffffffff1673ffffffffffffffffffffffffffffffffffffffff1681526020018381526020018281526020019350505050604051809103906000f0801580156105de573d6000803e3d6000fd5b509050806000808673ffffffffffffffffffffffffffffffffffffffff1673ffffffffffffffffffffffffffffffffffffffff16815260200190815260200160002060006101000a81548173ffffffffffffffffffffffffffffffffffffffff021916908373ffffffffffffffffffffffffffffffffffffffff16021790555060018190806001815401808255809150509060018203906000526020600020016000909192909190916101000a81548173ffffffffffffffffffffffffffffffffffffffff021916908373ffffffffffffffffffffffffffffffffffffffff1602179055505050505050565b60008060008060008073ffffffffffffffffffffffffffffffffffffffff168673ffffffffffffffffffffffffffffffffffffffff161461070b578561070d565b335b73ffffffffffffffffffffffffffffffffffffffff1673ffffffffffffffffffffffffffffffffffffffff16815260200190815260200160002060009054906101000a900473ffffffffffffffffffffffffffffffffffffffff169050600073ffffffffffffffffffffffffffffffffffffffff168173ffffffffffffffffffffffffffffffffffffffff16141561080d576040517f08c379a000000000000000000000000000000000000000000000000000000000815260040180806020018281038252600a8152602001807f6e6f74206578697374730000000000000000000000000000000000000000000081525060200191505060405180910390fd5b60008173ffffffffffffffffffffffffffffffffffffffff16633a525c296040518163ffffffff1660e01b815260040160206040518083038186803b15801561085557600080fd5b505afa158015610869573d6000803e3d6000fd5b505050506040513d602081101561087f57600080fd5b8101908080519060200190929190505050905060008273ffffffffffffffffffffffffffffffffffffffff16633d5eb15f6040518163ffffffff1660e01b815260040160206040518083038186803b1580156108da57600080fd5b505afa1580156108ee573d6000803e3d6000fd5b505050506040513d602081101561090457600080fd5b81019080805190602001909291905050509050818194509450505050915091565b6000803390506000808273ffffffffffffffffffffffffffffffffffffffff1673ffffffffffffffffffffffffffffffffffffffff16815260200190815260200160002060009054906101000a900473ffffffffffffffffffffffffffffffffffffffff1673ffffffffffffffffffffffffffffffffffffffff16633d5eb15f6040518163ffffffff1660e01b815260040160206040518083038186803b1580156109cf57600080fd5b505afa1580156109e3573d6000803e3d6000fd5b505050506040513d60208110156109f957600080fd5b8101908080519060200190929190505050831415610a1b576001915050610a21565b60009150505b919050565b60006020528060005260406000206000915054906101000a900473ffffffffffffffffffffffffffffffffffffffff1681565b60018181548110610a6657fe5b906000526020600020016000915054906101000a900473ffffffffffffffffffffffffffffffffffffffff1681565b61041180610aa38339019056fe608060405234801561001057600080fd5b506040516104113803806104118339818101604052606081101561003357600080fd5b81019080805190602001909291908051906020019092919080519060200190929190505050600073ffffffffffffffffffffffffffffffffffffffff168373ffffffffffffffffffffffffffffffffffffffff1614156100fb576040517f08c379a000000000000000000000000000000000000000000000000000000000815260040180806020018281038252600a8152602001807f4e656564206f776e65720000000000000000000000000000000000000000000081525060200191505060405180910390fd5b6000602060ff161415610176576040517f08c379a00000000000000000000000000000000000000000000000000000000081526004018080602001828103825260098152602001807f4e656564206e616d65000000000000000000000000000000000000000000000081525060200191505060405180910390fd5b6000602060ff1614156101f1576040517f08c379a000000000000000000000000000000000000000000000000000000000815260040180806020018281038252600d8152602001807f4e6565642070617373776f72640000000000000000000000000000000000000081525060200191505060405180910390fd5b826000806101000a81548173ffffffffffffffffffffffffffffffffffffffff021916908373ffffffffffffffffffffffffffffffffffffffff16021790555081600181905550806002819055505050506101c0806102516000396000f3fe608060405234801561001057600080fd5b50600436106100575760003560e01c80633a525c291461005c5780633d5eb15f1461007a5780637ba332e9146100985780638da5cb5b146100c6578063f850473a14610110575b600080fd5b61006461013e565b6040518082815260200191505060405180910390f35b610082610148565b6040518082815260200191505060405180910390f35b6100c4600480360360208110156100ae57600080fd5b8101908080359060200190929190505050610152565b005b6100ce61015c565b604051808273ffffffffffffffffffffffffffffffffffffffff1673ffffffffffffffffffffffffffffffffffffffff16815260200191505060405180910390f35b61013c6004803603602081101561012657600080fd5b8101908080359060200190929190505050610181565b005b6000600154905090565b6000600254905090565b8060018190555050565b6000809054906101000a900473ffffffffffffffffffffffffffffffffffffffff1681565b806002819055505056fea265627a7a72315820ba566668332703e6cd35a18e759c8d49f31a8cd6936b7ddddd9412bb29dc204164736f6c63430005100032a265627a7a7231582036e7f43f3ce808f01eb711bb8993b17ae46631246e040634021b4067080f746764736f6c63430005100032",
  "source": "pragma solidity >=0.4.22 <0.8.0;\r\nimport \"./User.sol\";\r\n\r\ncontract Auth {\r\n    mapping(address => User) public Users;\r\n    User[] public user_list;\r\n\r\n    function create_user(\r\n        address owner,\r\n        bytes32 name,\r\n        bytes32 password\r\n    ) public {\r\n        User user = new User(owner, name, password);\r\n        Users[owner] = user;\r\n        user_list.push(user);\r\n    }\r\n\r\n    function verify(bytes32 password) public view returns (bool ok) {\r\n        address sender = msg.sender;\r\n        if (password == Users[sender].get_password()) {\r\n            return true;\r\n        } else {\r\n            return false;\r\n        }\r\n    }\r\n\r\n    function get_user_list()\r\n        public\r\n        view\r\n        returns (address[] memory _owners, bytes32[] memory _names)\r\n    {\r\n        address[] memory owners = new address[](user_list.length);\r\n        bytes32[] memory names = new bytes32[](user_list.length);\r\n\r\n        for (uint256 i = 0; i < user_list.length; i++) {\r\n            owners[i] = user_list[i].owner();\r\n            names[i] = user_list[i].get_name();\r\n        }\r\n        return (owners, names);\r\n    }\r\n\r\n    function get_user(address _user)\r\n        public\r\n        view\r\n        returns (bytes32 _name, bytes32 _password)\r\n    {\r\n        User user = Users[_user == address(0) ? msg.sender : _user];\r\n        require(user != User(0), \"not exists\");\r\n        bytes32 name = user.get_name();\r\n        bytes32 password = user.get_password();\r\n\r\n        return (name, password);\r\n    }\r\n}\r\n",
  "sourcePath": "D:/Hongwei/Project/ethereum-platform/contracts/Auth.sol",
  "compiler": {
    "name": "solc",
    "version": "0.5.16+commit.9c3226ce.Emscripten.clang"
  },
  "schemaVersion": "3.2.3",
  "updatedAt": "2020-09-03T07:11:02.832Z",
  "networkType": "ethereum",
  "devdoc": {
    "methods": {}
  },
  "userdoc": {
    "methods": {}
  }
}