{
  "contractName": "Global",
  "abi": [
    {
      "inputs": [
        {
          "internalType": "address",
          "name": "um",
          "type": "address"
        },
        {
          "internalType": "address",
          "name": "acm",
          "type": "address"
        },
        {
          "internalType": "address",
          "name": "lm",
          "type": "address"
        },
        {
          "internalType": "address",
          "name": "tm",
          "type": "address"
        }
      ],
      "stateMutability": "nonpayable",
      "type": "constructor"
    },
    {
      "inputs": [],
      "name": "acm_addr",
      "outputs": [
        {
          "internalType": "address",
          "name": "",
          "type": "address"
        }
      ],
      "stateMutability": "view",
      "type": "function",
      "constant": true
    },
    {
      "inputs": [],
      "name": "lm_addr",
      "outputs": [
        {
          "internalType": "address",
          "name": "",
          "type": "address"
        }
      ],
      "stateMutability": "view",
      "type": "function",
      "constant": true
    },
    {
      "inputs": [],
      "name": "tm_addr",
      "outputs": [
        {
          "internalType": "address",
          "name": "",
          "type": "address"
        }
      ],
      "stateMutability": "view",
      "type": "function",
      "constant": true
    },
    {
      "inputs": [],
      "name": "um_addr",
      "outputs": [
        {
          "internalType": "address",
          "name": "",
          "type": "address"
        }
      ],
      "stateMutability": "view",
      "type": "function",
      "constant": true
    }
  ],
  "bytecode": "0x608060405234801561001057600080fd5b506040516103be3803806103be8339818101604052608081101561003357600080fd5b8101908080519060200190929190805190602001909291908051906020019092919080519060200190929190505050836000806101000a81548173ffffffffffffffffffffffffffffffffffffffff021916908373ffffffffffffffffffffffffffffffffffffffff16021790555082600160006101000a81548173ffffffffffffffffffffffffffffffffffffffff021916908373ffffffffffffffffffffffffffffffffffffffff16021790555081600260006101000a81548173ffffffffffffffffffffffffffffffffffffffff021916908373ffffffffffffffffffffffffffffffffffffffff16021790555080600360006101000a81548173ffffffffffffffffffffffffffffffffffffffff021916908373ffffffffffffffffffffffffffffffffffffffff16021790555050505050610246806101786000396000f3fe608060405234801561001057600080fd5b506004361061004c5760003560e01c80631fb444921461005157806368bb23ed1461009b5780637dd1bc25146100e5578063d3388a1f1461012f575b600080fd5b610059610179565b604051808273ffffffffffffffffffffffffffffffffffffffff1673ffffffffffffffffffffffffffffffffffffffff16815260200191505060405180910390f35b6100a361019e565b604051808273ffffffffffffffffffffffffffffffffffffffff1673ffffffffffffffffffffffffffffffffffffffff16815260200191505060405180910390f35b6100ed6101c4565b604051808273ffffffffffffffffffffffffffffffffffffffff1673ffffffffffffffffffffffffffffffffffffffff16815260200191505060405180910390f35b6101376101ea565b604051808273ffffffffffffffffffffffffffffffffffffffff1673ffffffffffffffffffffffffffffffffffffffff16815260200191505060405180910390f35b6000809054906101000a900473ffffffffffffffffffffffffffffffffffffffff1681565b600360009054906101000a900473ffffffffffffffffffffffffffffffffffffffff1681565b600260009054906101000a900473ffffffffffffffffffffffffffffffffffffffff1681565b600160009054906101000a900473ffffffffffffffffffffffffffffffffffffffff168156fea26469706673582212204e3c7b3d5e4f783f2e35d105250c489ce9b41f34df72fea2e4b5560179bed20464736f6c63430006060033",
  "immutableReferences": {},
  "source": "pragma solidity >=0.4.22 <0.8.0;\r\nimport \"./UserManager.sol\";\r\nimport \"./AccountManager.sol\";\r\nimport \"./LeaseManager.sol\";\r\nimport \"./TransactionManager.sol\";\r\n\r\ncontract Global {\r\n    address public um_addr; //用戶管理合員約位址\r\n    address public acm_addr; //帳戶管理合員約位址\r\n    address public lm_addr; //租借物管理員位址\r\n    address public tm_addr; //交易管理員位址\r\n\r\n    constructor(\r\n        address um,\r\n        address acm,\r\n        address lm,\r\n        address tm\r\n    ) public {\r\n        um_addr = um;\r\n        acm_addr = acm;\r\n        lm_addr = lm;\r\n        tm_addr = tm;\r\n    }\r\n}\r\n",
  "sourcePath": "C:\\Users\\User\\Desktop\\ethereum-platform\\contracts\\Global.sol",
  "compiler": {
    "name": "solc",
    "version": "0.6.6+commit.6c089d02.Emscripten.clang"
  },
  "schemaVersion": "3.2.4",
  "updatedAt": "2020-09-15T10:08:06.249Z",
  "networkType": "ethereum",
  "devdoc": {
    "methods": {}
  },
  "userdoc": {
    "methods": {}
  }
}