{
  "contractName": "Global",
  "abi": [
    {
      "inputs": [
        {
          "internalType": "address",
          "name": "um",
          "type": "address"
        },
        {
          "internalType": "address",
          "name": "acm",
          "type": "address"
        },
        {
          "internalType": "address",
          "name": "lm",
          "type": "address"
        },
        {
          "internalType": "address",
          "name": "tm",
          "type": "address"
        }
      ],
      "stateMutability": "nonpayable",
      "type": "constructor"
    },
    {
      "inputs": [],
      "name": "acm_addr",
      "outputs": [
        {
          "internalType": "address",
          "name": "",
          "type": "address"
        }
      ],
      "stateMutability": "view",
      "type": "function",
      "constant": true
    },
    {
      "inputs": [],
      "name": "lm_addr",
      "outputs": [
        {
          "internalType": "address",
          "name": "",
          "type": "address"
        }
      ],
      "stateMutability": "view",
      "type": "function",
      "constant": true
    },
    {
      "inputs": [],
      "name": "tm_addr",
      "outputs": [
        {
          "internalType": "address",
          "name": "",
          "type": "address"
        }
      ],
      "stateMutability": "view",
      "type": "function",
      "constant": true
    },
    {
      "inputs": [],
      "name": "um_addr",
      "outputs": [
        {
          "internalType": "address",
          "name": "",
          "type": "address"
        }
      ],
      "stateMutability": "view",
      "type": "function",
      "constant": true
    }
  ],
  "bytecode": "0x608060405234801561001057600080fd5b506040516103be3803806103be8339818101604052608081101561003357600080fd5b8101908080519060200190929190805190602001909291908051906020019092919080519060200190929190505050836000806101000a81548173ffffffffffffffffffffffffffffffffffffffff021916908373ffffffffffffffffffffffffffffffffffffffff16021790555082600160006101000a81548173ffffffffffffffffffffffffffffffffffffffff021916908373ffffffffffffffffffffffffffffffffffffffff16021790555081600260006101000a81548173ffffffffffffffffffffffffffffffffffffffff021916908373ffffffffffffffffffffffffffffffffffffffff16021790555080600360006101000a81548173ffffffffffffffffffffffffffffffffffffffff021916908373ffffffffffffffffffffffffffffffffffffffff16021790555050505050610246806101786000396000f3fe608060405234801561001057600080fd5b506004361061004c5760003560e01c80631fb444921461005157806368bb23ed1461009b5780637dd1bc25146100e5578063d3388a1f1461012f575b600080fd5b610059610179565b604051808273ffffffffffffffffffffffffffffffffffffffff1673ffffffffffffffffffffffffffffffffffffffff16815260200191505060405180910390f35b6100a361019e565b604051808273ffffffffffffffffffffffffffffffffffffffff1673ffffffffffffffffffffffffffffffffffffffff16815260200191505060405180910390f35b6100ed6101c4565b604051808273ffffffffffffffffffffffffffffffffffffffff1673ffffffffffffffffffffffffffffffffffffffff16815260200191505060405180910390f35b6101376101ea565b604051808273ffffffffffffffffffffffffffffffffffffffff1673ffffffffffffffffffffffffffffffffffffffff16815260200191505060405180910390f35b6000809054906101000a900473ffffffffffffffffffffffffffffffffffffffff1681565b600360009054906101000a900473ffffffffffffffffffffffffffffffffffffffff1681565b600260009054906101000a900473ffffffffffffffffffffffffffffffffffffffff1681565b600160009054906101000a900473ffffffffffffffffffffffffffffffffffffffff168156fea264697066735822122060999dbc6be913f124033fa43429806f49369e66748854245db403628297df2364736f6c63430006060033",
  "source": "pragma solidity >=0.4.22 <0.8.0;\nimport \"./UserManager.sol\";\nimport \"./AccountManager.sol\";\nimport \"./LeaseManager.sol\";\nimport \"./TransactionManager.sol\";\n\ncontract Global {\n    address public um_addr; //用戶管理合員約位址\n    address public acm_addr; //帳戶管理合員約位址\n    address public lm_addr; //租借物管理員位址\n    address public tm_addr; //交易管理員位址\n\n    constructor(\n        address um,\n        address acm,\n        address lm,\n        address tm\n    ) public {\n        um_addr = um;\n        acm_addr = acm;\n        lm_addr = lm;\n        tm_addr = tm;\n    }\n}\n",
  "sourcePath": "/Users/hongwei/Documents/Project/ethereum-platform/contracts/Global.sol",
  "compiler": {
    "name": "solc",
    "version": "0.6.6+commit.6c089d02.Emscripten.clang"
  },
  "schemaVersion": "3.0.20",
  "updatedAt": "2020-09-15T09:11:53.685Z",
  "networkType": "ethereum",
  "devdoc": {
    "methods": {}
  },
  "userdoc": {
    "methods": {}
  }
}