{
  "contractName": "LeaseManager",
  "abi": [
    {
      "inputs": [
        {
          "internalType": "bytes32",
          "name": "uid",
          "type": "bytes32"
        }
      ],
      "name": "get_user_all_leases",
      "outputs": [
        {
          "internalType": "bytes32[]",
          "name": "",
          "type": "bytes32[]"
        },
        {
          "internalType": "address[]",
          "name": "",
          "type": "address[]"
        }
      ],
      "stateMutability": "view",
      "type": "function",
      "constant": true
    },
    {
      "inputs": [
        {
          "internalType": "bytes32",
          "name": "uid",
          "type": "bytes32"
        },
        {
          "internalType": "bytes32",
          "name": "lid",
          "type": "bytes32"
        }
      ],
      "name": "get_user_lease",
      "outputs": [
        {
          "internalType": "address",
          "name": "",
          "type": "address"
        }
      ],
      "stateMutability": "view",
      "type": "function",
      "constant": true
    },
    {
      "inputs": [
        {
          "internalType": "contract Lease",
          "name": "l",
          "type": "address"
        },
        {
          "internalType": "bytes32",
          "name": "uid",
          "type": "bytes32"
        },
        {
          "internalType": "bytes32",
          "name": "lid",
          "type": "bytes32"
        }
      ],
      "name": "add_user_lease",
      "outputs": [],
      "stateMutability": "nonpayable",
      "type": "function"
    }
  ],
  "bytecode": "0x608060405234801561001057600080fd5b506104b1806100206000396000f3fe608060405234801561001057600080fd5b50600436106100415760003560e01c80630655243514610046578063754a80e11461009e578063aa25aa8a14610116575b600080fd5b61009c6004803603606081101561005c57600080fd5b81019080803573ffffffffffffffffffffffffffffffffffffffff16906020019092919080359060200190929190803590602001909291905050506101e1565b005b6100d4600480360360408110156100b457600080fd5b8101908080359060200190929190803590602001909291905050506102ab565b604051808273ffffffffffffffffffffffffffffffffffffffff1673ffffffffffffffffffffffffffffffffffffffff16815260200191505060405180910390f35b6101426004803603602081101561012c57600080fd5b81019080803590602001909291905050506102f9565b604051808060200180602001838103835285818151815260200191508051906020019060200280838360005b8381101561018957808201518184015260208101905061016e565b50505050905001838103825284818151815260200191508051906020019060200280838360005b838110156101cb5780820151818401526020810190506101b0565b5050505090500194505050505060405180910390f35b60028290806001815401808255809150506001900390600052602060002001600090919091909150556001600083815260200190815260200160002081908060018154018082558091505060019003906000526020600020016000909190919091505582600080848152602001908152602001600020600083815260200190815260200160002060006101000a81548173ffffffffffffffffffffffffffffffffffffffff021916908373ffffffffffffffffffffffffffffffffffffffff160217905550505050565b6000806000848152602001908152602001600020600083815260200190815260200160002060009054906101000a900473ffffffffffffffffffffffffffffffffffffffff16905092915050565b60608060606001600085815260200190815260200160002080548060200260200160405190810160405280929190818152602001828054801561035b57602002820191906000526020600020905b815481526020019060010190808311610347575b505050505090506060815167ffffffffffffffff8111801561037c57600080fd5b506040519080825280602002602001820160405280156103ab5781602001602082028036833780820191505090505b50905060008090505b825181101561046d5760008382815181106103cb57fe5b60200260200101519050600080888152602001908152602001600020600082815260200190815260200160002060009054906101000a900473ffffffffffffffffffffffffffffffffffffffff1683838151811061042557fe5b602002602001019073ffffffffffffffffffffffffffffffffffffffff16908173ffffffffffffffffffffffffffffffffffffffff16815250505080806001019150506103b4565b50818193509350505091509156fea2646970667358221220966096c9d11d902dccde43c1dcaa6d1278d93db20f1553bb0d671be238f63fb664736f6c63430006060033",
  "immutableReferences": {},
  "source": "pragma solidity >=0.4.22 <0.8.0;\r\nimport \"./Lease.sol\";\r\n\r\ncontract LeaseManager {\r\n    mapping(bytes32 => mapping(bytes32 => Lease)) private user_leases; //用戶租借物\r\n    mapping(bytes32 => bytes32[]) private user_lease_list; //用戶所擁有租借物集合\r\n    bytes32[] private user_list; //使用者名稱集合\r\n\r\n    function get_user_all_leases(bytes32 uid)\r\n        public\r\n        view\r\n        returns (bytes32[] memory, address[] memory)\r\n    {\r\n        bytes32[] memory user_lids = user_lease_list[uid];\r\n        address[] memory lease_addrs = new address[](user_lids.length);\r\n        for (uint256 i = 0; i < user_lids.length; i++) {\r\n            bytes32 lid = user_lids[i];\r\n            lease_addrs[i] = address(user_leases[uid][lid]);\r\n        }\r\n        return (user_lids, lease_addrs);\r\n    }\r\n\r\n    function get_user_lease(bytes32 uid, bytes32 lid)\r\n        public\r\n        view\r\n        returns (address)\r\n    {\r\n        return address(user_leases[uid][lid]);\r\n    }\r\n\r\n    function add_user_lease(\r\n        Lease l,\r\n        bytes32 uid,\r\n        bytes32 lid\r\n    ) public {\r\n        user_list.push(uid);\r\n        user_lease_list[uid].push(lid);\r\n        user_leases[uid][lid] = l;\r\n    }\r\n}\r\n",
  "sourcePath": "C:\\Users\\User\\Desktop\\ethereum-platform\\contracts\\LeaseManager.sol",
  "compiler": {
    "name": "solc",
    "version": "0.6.6+commit.6c089d02.Emscripten.clang"
  },
  "schemaVersion": "3.2.4",
  "updatedAt": "2020-09-15T08:26:20.882Z",
  "networkType": "ethereum",
  "devdoc": {
    "methods": {}
  },
  "userdoc": {
    "methods": {}
  }
}