{
  "contractName": "Lease",
  "abi": [
    {
      "inputs": [
        {
          "internalType": "contract User",
          "name": "u",
          "type": "address"
        },
        {
          "internalType": "string",
          "name": "_lat",
          "type": "string"
        },
        {
          "internalType": "string",
          "name": "_lon",
          "type": "string"
        }
      ],
      "stateMutability": "nonpayable",
      "type": "constructor"
    },
    {
      "inputs": [],
      "name": "category",
      "outputs": [
        {
          "internalType": "string",
          "name": "",
          "type": "string"
        }
      ],
      "stateMutability": "view",
      "type": "function"
    },
    {
      "inputs": [],
      "name": "end_time",
      "outputs": [
        {
          "internalType": "uint256",
          "name": "",
          "type": "uint256"
        }
      ],
      "stateMutability": "view",
      "type": "function"
    },
    {
      "inputs": [],
      "name": "lat",
      "outputs": [
        {
          "internalType": "string",
          "name": "",
          "type": "string"
        }
      ],
      "stateMutability": "view",
      "type": "function"
    },
    {
      "inputs": [],
      "name": "lon",
      "outputs": [
        {
          "internalType": "string",
          "name": "",
          "type": "string"
        }
      ],
      "stateMutability": "view",
      "type": "function"
    },
    {
      "inputs": [],
      "name": "price",
      "outputs": [
        {
          "internalType": "uint256",
          "name": "",
          "type": "uint256"
        }
      ],
      "stateMutability": "view",
      "type": "function"
    },
    {
      "inputs": [],
      "name": "quantity",
      "outputs": [
        {
          "internalType": "uint256",
          "name": "",
          "type": "uint256"
        }
      ],
      "stateMutability": "view",
      "type": "function"
    },
    {
      "inputs": [],
      "name": "rented_out",
      "outputs": [
        {
          "internalType": "bool",
          "name": "",
          "type": "bool"
        }
      ],
      "stateMutability": "view",
      "type": "function"
    },
    {
      "inputs": [],
      "name": "start_time",
      "outputs": [
        {
          "internalType": "uint256",
          "name": "",
          "type": "uint256"
        }
      ],
      "stateMutability": "view",
      "type": "function"
    },
    {
      "inputs": [],
      "name": "rent",
      "outputs": [],
      "stateMutability": "nonpayable",
      "type": "function"
    },
    {
      "inputs": [],
      "name": "release",
      "outputs": [],
      "stateMutability": "nonpayable",
      "type": "function"
    },
    {
      "inputs": [
        {
          "internalType": "string",
          "name": "_lat",
          "type": "string"
        },
        {
          "internalType": "string",
          "name": "_lon",
          "type": "string"
        }
      ],
      "name": "update_location",
      "outputs": [],
      "stateMutability": "nonpayable",
      "type": "function"
    },
    {
      "inputs": [
        {
          "internalType": "string",
          "name": "ct",
          "type": "string"
        },
        {
          "internalType": "uint256",
          "name": "st",
          "type": "uint256"
        },
        {
          "internalType": "uint256",
          "name": "et",
          "type": "uint256"
        },
        {
          "internalType": "uint256",
          "name": "qt",
          "type": "uint256"
        }
      ],
      "name": "update_room_info",
      "outputs": [],
      "stateMutability": "nonpayable",
      "type": "function"
    },
    {
      "inputs": [
        {
          "internalType": "uint256",
          "name": "pr",
          "type": "uint256"
        }
      ],
      "name": "update_room_price",
      "outputs": [],
      "stateMutability": "nonpayable",
      "type": "function"
    }
  ],
  "bytecode": "0x60806040523480156200001157600080fd5b5060405162000cd838038062000cd8833981810160405260608110156200003757600080fd5b8101908080519060200190929190805160405193929190846401000000008211156200006257600080fd5b838201915060208201858111156200007957600080fd5b82518660018202830111640100000000821117156200009757600080fd5b8083526020830192505050908051906020019080838360005b83811015620000cd578082015181840152602081019050620000b0565b50505050905090810190601f168015620000fb5780820380516001836020036101000a031916815260200191505b50604052602001805160405193929190846401000000008211156200011f57600080fd5b838201915060208201858111156200013657600080fd5b82518660018202830111640100000000821117156200015457600080fd5b8083526020830192505050908051906020019080838360005b838110156200018a5780820151818401526020810190506200016d565b50505050905090810190601f168015620001b85780820380516001836020036101000a031916815260200191505b50604052505050826000806101000a81548173ffffffffffffffffffffffffffffffffffffffff021916908373ffffffffffffffffffffffffffffffffffffffff1602179055508160079080519060200190620002179291906200023a565b508060089080519060200190620002309291906200023a565b50505050620002e9565b828054600181600116156101000203166002900490600052602060002090601f016020900481019282601f106200027d57805160ff1916838001178555620002ae565b82800160010185558215620002ae579182015b82811115620002ad57825182559160200191906001019062000290565b5b509050620002bd9190620002c1565b5090565b620002e691905b80821115620002e2576000816000905550600101620002c8565b5090565b90565b6109df80620002f96000396000f3fe608060405234801561001057600080fd5b50600436106100cf5760003560e01c8063834ee4171161008c57806396be83391161006657806396be8339146103bc578063a035b1fe14610495578063c30d7ad5146104b3578063ef430aa6146104e1576100cf565b8063834ee4171461037257806386d1a69f1461039057806391203c8c1461039a576100cf565b806316243356146100d457806317fc45e2146100f25780633e1f5d3f146101105780634dee73c81461026257806355d576cc146102e557806382996d9f14610368575b600080fd5b6100dc610564565b6040518082815260200191505060405180910390f35b6100fa61056a565b6040518082815260200191505060405180910390f35b6102606004803603604081101561012657600080fd5b810190808035906020019064010000000081111561014357600080fd5b82018360208201111561015557600080fd5b8035906020019184600183028401116401000000008311171561017757600080fd5b91908080601f016020809104026020016040519081016040528093929190818152602001838380828437600081840152601f19601f820116905080830192505050505050509192919290803590602001906401000000008111156101da57600080fd5b8201836020820111156101ec57600080fd5b8035906020019184600183028401116401000000008311171561020e57600080fd5b91908080601f016020809104026020016040519081016040528093929190818152602001838380828437600081840152601f19601f820116905080830192505050505050509192919290505050610570565b005b61026a6105a2565b6040518080602001828103825283818151815260200191508051906020019080838360005b838110156102aa57808201518184015260208101905061028f565b50505050905090810190601f1680156102d75780820380516001836020036101000a031916815260200191505b509250505060405180910390f35b6102ed610640565b6040518080602001828103825283818151815260200191508051906020019080838360005b8381101561032d578082015181840152602081019050610312565b50505050905090810190601f16801561035a5780820380516001836020036101000a031916815260200191505b509250505060405180910390f35b6103706106de565b005b61037a6106fb565b6040518082815260200191505060405180910390f35b610398610701565b005b6103a261071e565b604051808215151515815260200191505060405180910390f35b610493600480360360808110156103d257600080fd5b81019080803590602001906401000000008111156103ef57600080fd5b82018360208201111561040157600080fd5b8035906020019184600183028401116401000000008311171561042357600080fd5b91908080601f016020809104026020016040519081016040528093929190818152602001838380828437600081840152601f19601f820116905080830192505050505050509192919290803590602001909291908035906020019092919080359060200190929190505050610731565b005b61049d610844565b6040518082815260200191505060405180910390f35b6104df600480360360208110156104c957600080fd5b810190808035906020019092919050505061084a565b005b6104e9610866565b6040518080602001828103825283818151815260200191508051906020019080838360005b8381101561052957808201518184015260208101905061050e565b50505050905090810190601f1680156105565780820380516001836020036101000a031916815260200191505b509250505060405180910390f35b60045481565b60065481565b8160079080519060200190610586929190610904565b50806008908051906020019061059d929190610904565b505050565b60088054600181600116156101000203166002900480601f0160208091040260200160405190810160405280929190818152602001828054600181600116156101000203166002900480156106385780601f1061060d57610100808354040283529160200191610638565b820191906000526020600020905b81548152906001019060200180831161061b57829003601f168201915b505050505081565b60078054600181600116156101000203166002900480601f0160208091040260200160405190810160405280929190818152602001828054600181600116156101000203166002900480156106d65780601f106106ab576101008083540402835291602001916106d6565b820191906000526020600020905b8154815290600101906020018083116106b957829003601f168201915b505050505081565b6001600260006101000a81548160ff021916908315150217905550565b60035481565b6000600260006101000a81548160ff021916908315150217905550565b600260009054906101000a900460ff1681565b6000845114156107db5760018054600181600116156101000203166002900480601f0160208091040260200160405190810160405280929190818152602001828054600181600116156101000203166002900480156107d15780601f106107a6576101008083540402835291602001916107d1565b820191906000526020600020905b8154815290600101906020018083116107b457829003601f168201915b50505050506107dd565b835b600190805190602001906107f2929190610904565b50600083141561080457600354610806565b825b600381905550600082141561081d5760045461081f565b815b600481905550600081141561083657600654610838565b805b60068190555050505050565b60055481565b600081141561085b5760055461085d565b805b60058190555050565b60018054600181600116156101000203166002900480601f0160208091040260200160405190810160405280929190818152602001828054600181600116156101000203166002900480156108fc5780601f106108d1576101008083540402835291602001916108fc565b820191906000526020600020905b8154815290600101906020018083116108df57829003601f168201915b505050505081565b828054600181600116156101000203166002900490600052602060002090601f016020900481019282601f1061094557805160ff1916838001178555610973565b82800160010185558215610973579182015b82811115610972578251825591602001919060010190610957565b5b5090506109809190610984565b5090565b6109a691905b808211156109a257600081600090555060010161098a565b5090565b9056fea264697066735822122094d7ada8096f05b5596421de9d522403bae3432ca0e1bc1843f1132907cb6ca964736f6c63430006060033",
  "source": "pragma solidity >=0.4.22 <0.8.0;\nimport \"./User.sol\";\n\ncontract Lease {\n    User private owner; //擁有者\n    string public category; //種類\n    bool public rented_out; //是否已出租\n    uint256 public start_time; //可出租起始時間\n    uint256 public end_time; //可出租結束時間\n    uint256 public price; //出租金額\n    uint256 public quantity; //數量\n    string public lat;\n    string public lon;\n\n    constructor(\n        User u,\n        string memory _lat,\n        string memory _lon\n    ) public {\n        owner = u;\n        lat = _lat;\n        lon = _lon;\n    }\n\n    function rent() public {\n        rented_out = true;\n    }\n\n    function release() public {\n        rented_out = false;\n    }\n\n    function update_location(string memory _lat, string memory _lon) public {\n        lat = _lat;\n        lon = _lon;\n    }\n\n    function update_room_info(\n        string memory ct,\n        uint256 st,\n        uint256 et,\n        uint256 qt\n    ) public {\n        category = bytes(ct).length != 0 ? ct : category;\n        start_time = st != 0 ? st : start_time;\n        end_time = et != 0 ? et : end_time;\n        quantity = qt != 0 ? qt : quantity;\n    }\n\n    function update_room_price(uint256 pr) public {\n        price = pr != 0 ? pr : price;\n    }\n}\n",
  "sourcePath": "/Users/hongwei/Documents/Project/ethereum-platform/contracts/Lease.sol",
  "compiler": {
    "name": "solc",
    "version": "0.6.6+commit.6c089d02.Emscripten.clang"
  },
  "schemaVersion": "3.0.20",
  "updatedAt": "2020-09-16T09:09:33.908Z",
  "devdoc": {
    "methods": {}
  },
  "userdoc": {
    "methods": {}
  }
}