{
  "contractName": "Lease",
  "abi": [
    {
      "inputs": [
        {
          "internalType": "contract User",
          "name": "u",
          "type": "address"
        },
        {
          "internalType": "string",
          "name": "_lat",
          "type": "string"
        },
        {
          "internalType": "string",
          "name": "_lon",
          "type": "string"
        }
      ],
      "stateMutability": "nonpayable",
      "type": "constructor"
    },
    {
      "inputs": [],
      "name": "get_all_info",
      "outputs": [
        {
          "internalType": "address",
          "name": "",
          "type": "address"
        },
        {
          "internalType": "string",
          "name": "",
          "type": "string"
        },
        {
          "internalType": "string",
          "name": "",
          "type": "string"
        },
        {
          "internalType": "bool",
          "name": "",
          "type": "bool"
        },
        {
          "internalType": "uint256",
          "name": "",
          "type": "uint256"
        },
        {
          "internalType": "uint256",
          "name": "",
          "type": "uint256"
        },
        {
          "internalType": "uint256",
          "name": "",
          "type": "uint256"
        },
        {
          "internalType": "uint256",
          "name": "",
          "type": "uint256"
        },
        {
          "internalType": "string",
          "name": "",
          "type": "string"
        },
        {
          "internalType": "string",
          "name": "",
          "type": "string"
        }
      ],
      "stateMutability": "view",
      "type": "function"
    },
    {
      "inputs": [],
      "name": "rent",
      "outputs": [],
      "stateMutability": "nonpayable",
      "type": "function"
    },
    {
      "inputs": [],
      "name": "release",
      "outputs": [],
      "stateMutability": "nonpayable",
      "type": "function"
    },
    {
      "inputs": [
        {
          "internalType": "string",
          "name": "_lat",
          "type": "string"
        },
        {
          "internalType": "string",
          "name": "_lon",
          "type": "string"
        }
      ],
      "name": "update_location",
      "outputs": [],
      "stateMutability": "nonpayable",
      "type": "function"
    },
    {
      "inputs": [
        {
          "internalType": "string",
          "name": "hn",
          "type": "string"
        },
        {
          "internalType": "string",
          "name": "ct",
          "type": "string"
        },
        {
          "internalType": "uint256",
          "name": "st",
          "type": "uint256"
        },
        {
          "internalType": "uint256",
          "name": "et",
          "type": "uint256"
        },
        {
          "internalType": "uint256",
          "name": "qt",
          "type": "uint256"
        }
      ],
      "name": "update_room_info",
      "outputs": [],
      "stateMutability": "nonpayable",
      "type": "function"
    },
    {
      "inputs": [
        {
          "internalType": "uint256",
          "name": "pr",
          "type": "uint256"
        }
      ],
      "name": "update_room_price",
      "outputs": [],
      "stateMutability": "nonpayable",
      "type": "function"
    }
  ],
  "bytecode": "0x60806040523480156200001157600080fd5b5060405162000eaa38038062000eaa833981810160405260608110156200003757600080fd5b8101908080519060200190929190805160405193929190846401000000008211156200006257600080fd5b838201915060208201858111156200007957600080fd5b82518660018202830111640100000000821117156200009757600080fd5b8083526020830192505050908051906020019080838360005b83811015620000cd578082015181840152602081019050620000b0565b50505050905090810190601f168015620000fb5780820380516001836020036101000a031916815260200191505b50604052602001805160405193929190846401000000008211156200011f57600080fd5b838201915060208201858111156200013657600080fd5b82518660018202830111640100000000821117156200015457600080fd5b8083526020830192505050908051906020019080838360005b838110156200018a5780820151818401526020810190506200016d565b50505050905090810190601f168015620001b85780820380516001836020036101000a031916815260200191505b50604052505050826000806101000a81548173ffffffffffffffffffffffffffffffffffffffff021916908373ffffffffffffffffffffffffffffffffffffffff1602179055508160089080519060200190620002179291906200023a565b508060099080519060200190620002309291906200023a565b50505050620002e9565b828054600181600116156101000203166002900490600052602060002090601f016020900481019282601f106200027d57805160ff1916838001178555620002ae565b82800160010185558215620002ae579182015b82811115620002ad57825182559160200191906001019062000290565b5b509050620002bd9190620002c1565b5090565b620002e691905b80821115620002e2576000816000905550600101620002c8565b5090565b90565b610bb180620002f96000396000f3fe608060405234801561001057600080fd5b50600436106100625760003560e01c80633e1f5d3f146100675780634b5176e6146101b95780635fbd6ad1146103da57806382996d9f1461054a57806386d1a69f14610554578063c30d7ad51461055e575b600080fd5b6101b76004803603604081101561007d57600080fd5b810190808035906020019064010000000081111561009a57600080fd5b8201836020820111156100ac57600080fd5b803590602001918460018302840111640100000000831117156100ce57600080fd5b91908080601f016020809104026020016040519081016040528093929190818152602001838380828437600081840152601f19601f8201169050808301925050505050505091929192908035906020019064010000000081111561013157600080fd5b82018360208201111561014357600080fd5b8035906020019184600183028401116401000000008311171561016557600080fd5b91908080601f016020809104026020016040519081016040528093929190818152602001838380828437600081840152601f19601f82011690508083019250505050505050919291929050505061058c565b005b6101c16105be565b604051808b73ffffffffffffffffffffffffffffffffffffffff1673ffffffffffffffffffffffffffffffffffffffff16815260200180602001806020018a151515158152602001898152602001888152602001878152602001868152602001806020018060200185810385528e818151815260200191508051906020019080838360005b83811015610261578082015181840152602081019050610246565b50505050905090810190601f16801561028e5780820380516001836020036101000a031916815260200191505b5085810384528d818151815260200191508051906020019080838360005b838110156102c75780820151818401526020810190506102ac565b50505050905090810190601f1680156102f45780820380516001836020036101000a031916815260200191505b50858103835287818151815260200191508051906020019080838360005b8381101561032d578082015181840152602081019050610312565b50505050905090810190601f16801561035a5780820380516001836020036101000a031916815260200191505b50858103825286818151815260200191508051906020019080838360005b83811015610393578082015181840152602081019050610378565b50505050905090810190601f1680156103c05780820380516001836020036101000a031916815260200191505b509e50505050505050505050505050505060405180910390f35b610548600480360360a08110156103f057600080fd5b810190808035906020019064010000000081111561040d57600080fd5b82018360208201111561041f57600080fd5b8035906020019184600183028401116401000000008311171561044157600080fd5b91908080601f016020809104026020016040519081016040528093929190818152602001838380828437600081840152601f19601f820116905080830192505050505050509192919290803590602001906401000000008111156104a457600080fd5b8201836020820111156104b657600080fd5b803590602001918460018302840111640100000000831117156104d857600080fd5b91908080601f016020809104026020016040519081016040528093929190818152602001838380828437600081840152601f19601f8201169050808301925050505050505091929192908035906020019092919080359060200190929190803590602001909291905050506108aa565b005b610552610a80565b005b61055c610a9d565b005b61058a6004803603602081101561057457600080fd5b8101908080359060200190929190505050610aba565b005b81600890805190602001906105a2929190610ad6565b5080600990805190602001906105b9929190610ad6565b505050565b6000606080600080600080600060608060008060009054906101000a900473ffffffffffffffffffffffffffffffffffffffff1690508060016002600360009054906101000a900460ff1660045460055460065460075460086009888054600181600116156101000203166002900480601f0160208091040260200160405190810160405280929190818152602001828054600181600116156101000203166002900480156106ae5780601f10610683576101008083540402835291602001916106ae565b820191906000526020600020905b81548152906001019060200180831161069157829003601f168201915b50505050509850878054600181600116156101000203166002900480601f01602080910402602001604051908101604052809291908181526020018280546001816001161561010002031660029004801561074a5780601f1061071f5761010080835404028352916020019161074a565b820191906000526020600020905b81548152906001019060200180831161072d57829003601f168201915b50505050509750818054600181600116156101000203166002900480601f0160208091040260200160405190810160405280929190818152602001828054600181600116156101000203166002900480156107e65780601f106107bb576101008083540402835291602001916107e6565b820191906000526020600020905b8154815290600101906020018083116107c957829003601f168201915b50505050509150808054600181600116156101000203166002900480601f0160208091040260200160405190810160405280929190818152602001828054600181600116156101000203166002900480156108825780601f1061085757610100808354040283529160200191610882565b820191906000526020600020905b81548152906001019060200180831161086557829003601f168201915b505050505090509a509a509a509a509a509a509a509a509a509a505090919293949596979899565b6000855114156109545760018054600181600116156101000203166002900480601f01602080910402602001604051908101604052809291908181526020018280546001816001161561010002031660029004801561094a5780601f1061091f5761010080835404028352916020019161094a565b820191906000526020600020905b81548152906001019060200180831161092d57829003601f168201915b5050505050610956565b845b6001908051906020019061096b929190610ad6565b50600084511415610a165760028054600181600116156101000203166002900480601f016020809104026020016040519081016040528092919081815260200182805460018160011615610100020316600290048015610a0c5780601f106109e157610100808354040283529160200191610a0c565b820191906000526020600020905b8154815290600101906020018083116109ef57829003601f168201915b5050505050610a18565b835b60029080519060200190610a2d929190610ad6565b506000831415610a3f57600454610a41565b825b6004819055506000821415610a5857600554610a5a565b815b6005819055506000811415610a7157600754610a73565b805b6007819055505050505050565b6001600360006101000a81548160ff021916908315150217905550565b6000600360006101000a81548160ff021916908315150217905550565b6000811415610acb57600654610acd565b805b60068190555050565b828054600181600116156101000203166002900490600052602060002090601f016020900481019282601f10610b1757805160ff1916838001178555610b45565b82800160010185558215610b45579182015b82811115610b44578251825591602001919060010190610b29565b5b509050610b529190610b56565b5090565b610b7891905b80821115610b74576000816000905550600101610b5c565b5090565b9056fea2646970667358221220b25b0f2d615ae63242ab2bef05f468a2e4683c9047f076142d1fde71e5b344f064736f6c63430006060033",
  "immutableReferences": {},
  "source": "pragma solidity >=0.4.22 <0.8.0;\r\nimport \"./User.sol\";\r\n\r\ncontract Lease {\r\n    User private owner; //擁有者\r\n    string private house_name; //房屋名稱\r\n    string private category; //種類\r\n    bool private rented_out; //是否已出租\r\n    uint256 private start_time; //可出租起始時間\r\n    uint256 private end_time; //可出租結束時間\r\n    uint256 private price; //出租金額\r\n    uint256 private quantity; //數量\r\n    string private lat; //緯度\r\n    string private lon; //經度\r\n\r\n    constructor(\r\n        User u,\r\n        string memory _lat,\r\n        string memory _lon\r\n    ) public {\r\n        owner = u;\r\n        lat = _lat;\r\n        lon = _lon;\r\n    }\r\n\r\n    function get_all_info()\r\n        public\r\n        view\r\n        returns (\r\n            address,\r\n            string memory,\r\n            string memory,\r\n            bool,\r\n            uint256,\r\n            uint256,\r\n            uint256,\r\n            uint256,\r\n            string memory,\r\n            string memory\r\n        )\r\n    {\r\n        address owner_addr = address(owner);\r\n        return (\r\n            owner_addr,\r\n            house_name,\r\n            category,\r\n            rented_out,\r\n            start_time,\r\n            end_time,\r\n            price,\r\n            quantity,\r\n            lat,\r\n            lon\r\n        );\r\n    }\r\n\r\n    function rent() public {\r\n        rented_out = true;\r\n    }\r\n\r\n    function release() public {\r\n        rented_out = false;\r\n    }\r\n\r\n    function update_location(string memory _lat, string memory _lon) public {\r\n        lat = _lat;\r\n        lon = _lon;\r\n    }\r\n\r\n    function update_room_info(\r\n        string memory hn,\r\n        string memory ct,\r\n        uint256 st,\r\n        uint256 et,\r\n        uint256 qt\r\n    ) public {\r\n        house_name = bytes(hn).length != 0 ? hn : house_name;\r\n        category = bytes(ct).length != 0 ? ct : category;\r\n        start_time = st != 0 ? st : start_time;\r\n        end_time = et != 0 ? et : end_time;\r\n        quantity = qt != 0 ? qt : quantity;\r\n    }\r\n\r\n    function update_room_price(uint256 pr) public {\r\n        price = pr != 0 ? pr : price;\r\n    }\r\n}\r\n",
  "sourcePath": "C:\\Users\\User\\Desktop\\ethereum-platform\\contracts\\Lease.sol",
  "compiler": {
    "name": "solc",
    "version": "0.6.6+commit.6c089d02.Emscripten.clang"
  },
  "schemaVersion": "3.2.4",
  "updatedAt": "2020-09-29T07:22:09.146Z",
  "devdoc": {
    "methods": {}
  },
  "userdoc": {
    "methods": {}
  }
}