{
  "contractName": "Lease",
  "abi": [
    {
      "inputs": [
        {
          "internalType": "contract User",
          "name": "u",
          "type": "address"
        },
        {
          "internalType": "string",
          "name": "_lat",
          "type": "string"
        },
        {
          "internalType": "string",
          "name": "_lon",
          "type": "string"
        }
      ],
      "stateMutability": "nonpayable",
      "type": "constructor"
    },
    {
      "inputs": [],
      "name": "category",
      "outputs": [
        {
          "internalType": "string",
          "name": "",
          "type": "string"
        }
      ],
      "stateMutability": "view",
      "type": "function"
    },
    {
      "inputs": [],
      "name": "end_time",
      "outputs": [
        {
          "internalType": "uint256",
          "name": "",
          "type": "uint256"
        }
      ],
      "stateMutability": "view",
      "type": "function"
    },
    {
      "inputs": [],
      "name": "house_name",
      "outputs": [
        {
          "internalType": "string",
          "name": "",
          "type": "string"
        }
      ],
      "stateMutability": "view",
      "type": "function"
    },
    {
      "inputs": [],
      "name": "lat",
      "outputs": [
        {
          "internalType": "string",
          "name": "",
          "type": "string"
        }
      ],
      "stateMutability": "view",
      "type": "function"
    },
    {
      "inputs": [],
      "name": "lon",
      "outputs": [
        {
          "internalType": "string",
          "name": "",
          "type": "string"
        }
      ],
      "stateMutability": "view",
      "type": "function"
    },
    {
      "inputs": [],
      "name": "price",
      "outputs": [
        {
          "internalType": "uint256",
          "name": "",
          "type": "uint256"
        }
      ],
      "stateMutability": "view",
      "type": "function"
    },
    {
      "inputs": [],
      "name": "quantity",
      "outputs": [
        {
          "internalType": "uint256",
          "name": "",
          "type": "uint256"
        }
      ],
      "stateMutability": "view",
      "type": "function"
    },
    {
      "inputs": [],
      "name": "rented_out",
      "outputs": [
        {
          "internalType": "bool",
          "name": "",
          "type": "bool"
        }
      ],
      "stateMutability": "view",
      "type": "function"
    },
    {
      "inputs": [],
      "name": "start_time",
      "outputs": [
        {
          "internalType": "uint256",
          "name": "",
          "type": "uint256"
        }
      ],
      "stateMutability": "view",
      "type": "function"
    },
    {
      "inputs": [],
      "name": "rent",
      "outputs": [],
      "stateMutability": "nonpayable",
      "type": "function"
    },
    {
      "inputs": [],
      "name": "release",
      "outputs": [],
      "stateMutability": "nonpayable",
      "type": "function"
    },
    {
      "inputs": [
        {
          "internalType": "string",
          "name": "_lat",
          "type": "string"
        },
        {
          "internalType": "string",
          "name": "_lon",
          "type": "string"
        }
      ],
      "name": "update_location",
      "outputs": [],
      "stateMutability": "nonpayable",
      "type": "function"
    },
    {
      "inputs": [
        {
          "internalType": "string",
          "name": "hn",
          "type": "string"
        },
        {
          "internalType": "string",
          "name": "ct",
          "type": "string"
        },
        {
          "internalType": "uint256",
          "name": "st",
          "type": "uint256"
        },
        {
          "internalType": "uint256",
          "name": "et",
          "type": "uint256"
        },
        {
          "internalType": "uint256",
          "name": "qt",
          "type": "uint256"
        }
      ],
      "name": "update_room_info",
      "outputs": [],
      "stateMutability": "nonpayable",
      "type": "function"
    },
    {
      "inputs": [
        {
          "internalType": "uint256",
          "name": "pr",
          "type": "uint256"
        }
      ],
      "name": "update_room_price",
      "outputs": [],
      "stateMutability": "nonpayable",
      "type": "function"
    }
  ],
  "bytecode": "0x60806040523480156200001157600080fd5b5060405162000f6e38038062000f6e833981810160405260608110156200003757600080fd5b8101908080519060200190929190805160405193929190846401000000008211156200006257600080fd5b838201915060208201858111156200007957600080fd5b82518660018202830111640100000000821117156200009757600080fd5b8083526020830192505050908051906020019080838360005b83811015620000cd578082015181840152602081019050620000b0565b50505050905090810190601f168015620000fb5780820380516001836020036101000a031916815260200191505b50604052602001805160405193929190846401000000008211156200011f57600080fd5b838201915060208201858111156200013657600080fd5b82518660018202830111640100000000821117156200015457600080fd5b8083526020830192505050908051906020019080838360005b838110156200018a5780820151818401526020810190506200016d565b50505050905090810190601f168015620001b85780820380516001836020036101000a031916815260200191505b50604052505050826000806101000a81548173ffffffffffffffffffffffffffffffffffffffff021916908373ffffffffffffffffffffffffffffffffffffffff1602179055508160089080519060200190620002179291906200023a565b508060099080519060200190620002309291906200023a565b50505050620002e9565b828054600181600116156101000203166002900490600052602060002090601f016020900481019282601f106200027d57805160ff1916838001178555620002ae565b82800160010185558215620002ae579182015b82811115620002ad57825182559160200191906001019062000290565b5b509050620002bd9190620002c1565b5090565b620002e691905b80821115620002e2576000816000905550600101620002c8565b5090565b90565b610c7580620002f96000396000f3fe608060405234801561001057600080fd5b50600436106100ea5760003560e01c806382996d9f1161008c57806391203c8c1161006657806391203c8c146105a8578063a035b1fe146105ca578063c30d7ad5146105e8578063ef430aa614610616576100ea565b806382996d9f14610576578063834ee4171461058057806386d1a69f1461059e576100ea565b80633e1f5d3f116100c85780633e1f5d3f146101ae5780634dee73c81461030057806355d576cc146103835780635fbd6ad114610406576100ea565b806312285178146100ef578063162433561461017257806317fc45e214610190575b600080fd5b6100f7610699565b6040518080602001828103825283818151815260200191508051906020019080838360005b8381101561013757808201518184015260208101905061011c565b50505050905090810190601f1680156101645780820380516001836020036101000a031916815260200191505b509250505060405180910390f35b61017a610737565b6040518082815260200191505060405180910390f35b61019861073d565b6040518082815260200191505060405180910390f35b6102fe600480360360408110156101c457600080fd5b81019080803590602001906401000000008111156101e157600080fd5b8201836020820111156101f357600080fd5b8035906020019184600183028401116401000000008311171561021557600080fd5b91908080601f016020809104026020016040519081016040528093929190818152602001838380828437600081840152601f19601f8201169050808301925050505050505091929192908035906020019064010000000081111561027857600080fd5b82018360208201111561028a57600080fd5b803590602001918460018302840111640100000000831117156102ac57600080fd5b91908080601f016020809104026020016040519081016040528093929190818152602001838380828437600081840152601f19601f820116905080830192505050505050509192919290505050610743565b005b610308610775565b6040518080602001828103825283818151815260200191508051906020019080838360005b8381101561034857808201518184015260208101905061032d565b50505050905090810190601f1680156103755780820380516001836020036101000a031916815260200191505b509250505060405180910390f35b61038b610813565b6040518080602001828103825283818151815260200191508051906020019080838360005b838110156103cb5780820151818401526020810190506103b0565b50505050905090810190601f1680156103f85780820380516001836020036101000a031916815260200191505b509250505060405180910390f35b610574600480360360a081101561041c57600080fd5b810190808035906020019064010000000081111561043957600080fd5b82018360208201111561044b57600080fd5b8035906020019184600183028401116401000000008311171561046d57600080fd5b91908080601f016020809104026020016040519081016040528093929190818152602001838380828437600081840152601f19601f820116905080830192505050505050509192919290803590602001906401000000008111156104d057600080fd5b8201836020820111156104e257600080fd5b8035906020019184600183028401116401000000008311171561050457600080fd5b91908080601f016020809104026020016040519081016040528093929190818152602001838380828437600081840152601f19601f8201169050808301925050505050505091929192908035906020019092919080359060200190929190803590602001909291905050506108b1565b005b61057e610a87565b005b610588610aa4565b6040518082815260200191505060405180910390f35b6105a6610aaa565b005b6105b0610ac7565b604051808215151515815260200191505060405180910390f35b6105d2610ada565b6040518082815260200191505060405180910390f35b610614600480360360208110156105fe57600080fd5b8101908080359060200190929190505050610ae0565b005b61061e610afc565b6040518080602001828103825283818151815260200191508051906020019080838360005b8381101561065e578082015181840152602081019050610643565b50505050905090810190601f16801561068b5780820380516001836020036101000a031916815260200191505b509250505060405180910390f35b60018054600181600116156101000203166002900480601f01602080910402602001604051908101604052809291908181526020018280546001816001161561010002031660029004801561072f5780601f106107045761010080835404028352916020019161072f565b820191906000526020600020905b81548152906001019060200180831161071257829003601f168201915b505050505081565b60055481565b60075481565b8160089080519060200190610759929190610b9a565b508060099080519060200190610770929190610b9a565b505050565b60098054600181600116156101000203166002900480601f01602080910402602001604051908101604052809291908181526020018280546001816001161561010002031660029004801561080b5780601f106107e05761010080835404028352916020019161080b565b820191906000526020600020905b8154815290600101906020018083116107ee57829003601f168201915b505050505081565b60088054600181600116156101000203166002900480601f0160208091040260200160405190810160405280929190818152602001828054600181600116156101000203166002900480156108a95780601f1061087e576101008083540402835291602001916108a9565b820191906000526020600020905b81548152906001019060200180831161088c57829003601f168201915b505050505081565b60008551141561095b5760018054600181600116156101000203166002900480601f0160208091040260200160405190810160405280929190818152602001828054600181600116156101000203166002900480156109515780601f1061092657610100808354040283529160200191610951565b820191906000526020600020905b81548152906001019060200180831161093457829003601f168201915b505050505061095d565b845b60019080519060200190610972929190610b9a565b50600084511415610a1d5760028054600181600116156101000203166002900480601f016020809104026020016040519081016040528092919081815260200182805460018160011615610100020316600290048015610a135780601f106109e857610100808354040283529160200191610a13565b820191906000526020600020905b8154815290600101906020018083116109f657829003601f168201915b5050505050610a1f565b835b60029080519060200190610a34929190610b9a565b506000831415610a4657600454610a48565b825b6004819055506000821415610a5f57600554610a61565b815b6005819055506000811415610a7857600754610a7a565b805b6007819055505050505050565b6001600360006101000a81548160ff021916908315150217905550565b60045481565b6000600360006101000a81548160ff021916908315150217905550565b600360009054906101000a900460ff1681565b60065481565b6000811415610af157600654610af3565b805b60068190555050565b60028054600181600116156101000203166002900480601f016020809104026020016040519081016040528092919081815260200182805460018160011615610100020316600290048015610b925780601f10610b6757610100808354040283529160200191610b92565b820191906000526020600020905b815481529060010190602001808311610b7557829003601f168201915b505050505081565b828054600181600116156101000203166002900490600052602060002090601f016020900481019282601f10610bdb57805160ff1916838001178555610c09565b82800160010185558215610c09579182015b82811115610c08578251825591602001919060010190610bed565b5b509050610c169190610c1a565b5090565b610c3c91905b80821115610c38576000816000905550600101610c20565b5090565b9056fea2646970667358221220d6e6662f3deebd6e19b7c11a377e20a96b8c939b0b51f46514a8f112509b4a4864736f6c63430006060033",
  "immutableReferences": {},
  "source": "pragma solidity >=0.4.22 <0.8.0;\r\nimport \"./User.sol\";\r\n\r\ncontract Lease {\r\n    User private owner; //擁有者\r\n    string public house_name; //房屋名稱\r\n    string public category; //種類\r\n    bool public rented_out; //是否已出租\r\n    uint256 public start_time; //可出租起始時間\r\n    uint256 public end_time; //可出租結束時間\r\n    uint256 public price; //出租金額\r\n    uint256 public quantity; //數量\r\n    string public lat; //緯度\r\n    string public lon; //經度\r\n\r\n    constructor(\r\n        User u,\r\n        string memory _lat,\r\n        string memory _lon\r\n    ) public {\r\n        owner = u;\r\n        lat = _lat;\r\n        lon = _lon;\r\n    }\r\n\r\n    function rent() public {\r\n        rented_out = true;\r\n    }\r\n\r\n    function release() public {\r\n        rented_out = false;\r\n    }\r\n\r\n    function update_location(string memory _lat, string memory _lon) public {\r\n        lat = _lat;\r\n        lon = _lon;\r\n    }\r\n\r\n    function update_room_info(\r\n        string memory hn,\r\n        string memory ct,\r\n        uint256 st,\r\n        uint256 et,\r\n        uint256 qt\r\n    ) public {\r\n        house_name = bytes(hn).length != 0 ? hn : house_name;\r\n        category = bytes(ct).length != 0 ? ct : category;\r\n        start_time = st != 0 ? st : start_time;\r\n        end_time = et != 0 ? et : end_time;\r\n        quantity = qt != 0 ? qt : quantity;\r\n    }\r\n\r\n    function update_room_price(uint256 pr) public {\r\n        price = pr != 0 ? pr : price;\r\n    }\r\n}\r\n",
  "sourcePath": "C:\\Users\\User\\Desktop\\ethereum-platform\\contracts\\Lease.sol",
  "compiler": {
    "name": "solc",
    "version": "0.6.6+commit.6c089d02.Emscripten.clang"
  },
  "schemaVersion": "3.2.4",
  "updatedAt": "2020-09-22T09:46:35.492Z",
  "devdoc": {
    "methods": {}
  },
  "userdoc": {
    "methods": {}
  }
}