{
  "contractName": "LeaseTransaction",
  "abi": [
    {
      "inputs": [
        {
          "internalType": "contract User",
          "name": "s",
          "type": "address"
        },
        {
          "internalType": "contract User",
          "name": "r",
          "type": "address"
        },
        {
          "internalType": "contract User",
          "name": "b",
          "type": "address"
        },
        {
          "internalType": "contract Lease",
          "name": "l",
          "type": "address"
        },
        {
          "internalType": "uint256",
          "name": "m",
          "type": "uint256"
        },
        {
          "internalType": "uint256",
          "name": "st",
          "type": "uint256"
        },
        {
          "internalType": "contract AccountManager",
          "name": "acm",
          "type": "address"
        }
      ],
      "stateMutability": "nonpayable",
      "type": "constructor"
    },
    {
      "inputs": [],
      "name": "sender",
      "outputs": [
        {
          "internalType": "contract User",
          "name": "",
          "type": "address"
        }
      ],
      "stateMutability": "view",
      "type": "function"
    },
    {
      "inputs": [],
      "name": "get_txn_info",
      "outputs": [
        {
          "internalType": "address[]",
          "name": "",
          "type": "address[]"
        }
      ],
      "stateMutability": "view",
      "type": "function"
    },
    {
      "inputs": [],
      "name": "get_txn_status",
      "outputs": [
        {
          "internalType": "bool[]",
          "name": "",
          "type": "bool[]"
        }
      ],
      "stateMutability": "view",
      "type": "function"
    },
    {
      "inputs": [],
      "name": "get_txn_times",
      "outputs": [
        {
          "internalType": "uint256[]",
          "name": "",
          "type": "uint256[]"
        }
      ],
      "stateMutability": "view",
      "type": "function"
    },
    {
      "inputs": [],
      "name": "get_txn_money",
      "outputs": [
        {
          "internalType": "uint256",
          "name": "",
          "type": "uint256"
        }
      ],
      "stateMutability": "view",
      "type": "function"
    },
    {
      "inputs": [],
      "name": "complete_txn",
      "outputs": [
        {
          "internalType": "bool",
          "name": "",
          "type": "bool"
        }
      ],
      "stateMutability": "nonpayable",
      "type": "function"
    },
    {
      "inputs": [
        {
          "internalType": "address",
          "name": "user_addr",
          "type": "address"
        }
      ],
      "name": "verify_txn",
      "outputs": [
        {
          "internalType": "string",
          "name": "",
          "type": "string"
        }
      ],
      "stateMutability": "view",
      "type": "function"
    },
    {
      "inputs": [
        {
          "internalType": "address",
          "name": "user_addr",
          "type": "address"
        }
      ],
      "name": "check_txn",
      "outputs": [],
      "stateMutability": "nonpayable",
      "type": "function"
    }
  ],
  "bytecode": "0x60806040526000600560006101000a81548160ff0219169083151502179055506000600560016101000a81548160ff0219169083151502179055506000600560026101000a81548160ff02191690831515021790555034801561006157600080fd5b50604051610fe0380380610fe0833981810160405260e081101561008457600080fd5b8101908080519060200190929190805190602001909291908051906020019092919080519060200190929190805190602001909291908051906020019092919080519060200190929190505050866000806101000a81548173ffffffffffffffffffffffffffffffffffffffff021916908373ffffffffffffffffffffffffffffffffffffffff16021790555085600160006101000a81548173ffffffffffffffffffffffffffffffffffffffff021916908373ffffffffffffffffffffffffffffffffffffffff16021790555084600260006101000a81548173ffffffffffffffffffffffffffffffffffffffff021916908373ffffffffffffffffffffffffffffffffffffffff16021790555083600360006101000a81548173ffffffffffffffffffffffffffffffffffffffff021916908373ffffffffffffffffffffffffffffffffffffffff160217905550826004819055508160068190555080600860006101000a81548173ffffffffffffffffffffffffffffffffffffffff021916908373ffffffffffffffffffffffffffffffffffffffff16021790555050505050505050610da7806102396000396000f3fe608060405234801561001057600080fd5b50600436106100885760003560e01c8063730a9c691161005b578063730a9c691461021157806387cbd81d14610270578063ab2f2637146102cf578063e64553e0146102f157610088565b806306010a481461008d578063284d0e68146100ec57806360f936ba1461010a57806367e404ce146101c7575b600080fd5b610095610335565b6040518080602001828103825283818151815260200191508051906020019060200280838360005b838110156100d85780820151818401526020810190506100bd565b505050509050019250505060405180910390f35b6100f46103c1565b6040518082815260200191505060405180910390f35b61014c6004803603602081101561012057600080fd5b81019080803573ffffffffffffffffffffffffffffffffffffffff1690602001909291905050506103cb565b6040518080602001828103825283818151815260200191508051906020019080838360005b8381101561018c578082015181840152602081019050610171565b50505050905090810190601f1680156101b95780820380516001836020036101000a031916815260200191505b509250505060405180910390f35b6101cf61058d565b604051808273ffffffffffffffffffffffffffffffffffffffff1673ffffffffffffffffffffffffffffffffffffffff16815260200191505060405180910390f35b6102196105b2565b6040518080602001828103825283818151815260200191508051906020019060200280838360005b8381101561025c578082015181840152602081019050610241565b505050509050019250505060405180910390f35b610278610693565b6040518080602001828103825283818151815260200191508051906020019060200280838360005b838110156102bb5780820151818401526020810190506102a0565b505050509050019250505060405180910390f35b6102d761088e565b604051808215151515815260200191505060405180910390f35b6103336004803603602081101561030757600080fd5b81019080803573ffffffffffffffffffffffffffffffffffffffff169060200190929190505050610911565b005b606080600267ffffffffffffffff8111801561035057600080fd5b5060405190808252806020026020018201604052801561037f5781602001602082028036833780820191505090505b5090506006548160008151811061039257fe5b602002602001018181525050600754816001815181106103ae57fe5b6020026020010181815250508091505090565b6000600454905090565b606080600160009054906101000a900473ffffffffffffffffffffffffffffffffffffffff1673ffffffffffffffffffffffffffffffffffffffff168373ffffffffffffffffffffffffffffffffffffffff161415610461576040518060400160405280600681526020017fe7a79fe696b900000000000000000000000000000000000000000000000000008152509050610584565b600260009054906101000a900473ffffffffffffffffffffffffffffffffffffffff1673ffffffffffffffffffffffffffffffffffffffff168373ffffffffffffffffffffffffffffffffffffffff1614156104f4576040518060400160405280600681526020017fe5809fe696b900000000000000000000000000000000000000000000000000008152509050610583565b6000809054906101000a900473ffffffffffffffffffffffffffffffffffffffff1673ffffffffffffffffffffffffffffffffffffffff168373ffffffffffffffffffffffffffffffffffffffff161415610582576040518060400160405280600f81526020017fe4baa4e69893e799bce8b5b7e696b9000000000000000000000000000000000081525090505b5b5b80915050919050565b6000809054906101000a900473ffffffffffffffffffffffffffffffffffffffff1681565b606080600367ffffffffffffffff811180156105cd57600080fd5b506040519080825280602002602001820160405280156105fc5781602001602082028036833780820191505090505b509050600560009054906101000a900460ff168160008151811061061c57fe5b602002602001019015159081151581525050600560019054906101000a900460ff168160018151811061064b57fe5b602002602001019015159081151581525050600560029054906101000a900460ff168160028151811061067a57fe5b6020026020010190151590811515815250508091505090565b606080600467ffffffffffffffff811180156106ae57600080fd5b506040519080825280602002602001820160405280156106dd5781602001602082028036833780820191505090505b5090506000809054906101000a900473ffffffffffffffffffffffffffffffffffffffff168160008151811061070f57fe5b602002602001019073ffffffffffffffffffffffffffffffffffffffff16908173ffffffffffffffffffffffffffffffffffffffff1681525050600160009054906101000a900473ffffffffffffffffffffffffffffffffffffffff168160018151811061077957fe5b602002602001019073ffffffffffffffffffffffffffffffffffffffff16908173ffffffffffffffffffffffffffffffffffffffff1681525050600260009054906101000a900473ffffffffffffffffffffffffffffffffffffffff16816002815181106107e357fe5b602002602001019073ffffffffffffffffffffffffffffffffffffffff16908173ffffffffffffffffffffffffffffffffffffffff1681525050600360009054906101000a900473ffffffffffffffffffffffffffffffffffffffff168160038151811061084d57fe5b602002602001019073ffffffffffffffffffffffffffffffffffffffff16908173ffffffffffffffffffffffffffffffffffffffff16815250508091505090565b6000600560029054906101000a900460ff161580156108b95750600560009054906101000a900460ff165b80156108d15750600560019054906101000a900460ff165b15610909576108de610a24565b426007819055506001600560026101000a81548160ff0219169083151502179055506001905061090e565b600090505b90565b6000809050600160009054906101000a900473ffffffffffffffffffffffffffffffffffffffff1673ffffffffffffffffffffffffffffffffffffffff168273ffffffffffffffffffffffffffffffffffffffff16141561097557600190506109d1565b600260009054906101000a900473ffffffffffffffffffffffffffffffffffffffff1673ffffffffffffffffffffffffffffffffffffffff168273ffffffffffffffffffffffffffffffffffffffff1614156109d057600290505b5b60018114156109fa576001600560006101000a81548160ff021916908315150217905550610a20565b6002811415610a1f576001600560016101000a81548160ff0219169083151502179055505b5b5050565b6000600860009054906101000a900473ffffffffffffffffffffffffffffffffffffffff1673ffffffffffffffffffffffffffffffffffffffff16633a4f7830600160009054906101000a900473ffffffffffffffffffffffffffffffffffffffff1673ffffffffffffffffffffffffffffffffffffffff1663c0fbc7c56040518163ffffffff1660e01b815260040160206040518083038186803b158015610acc57600080fd5b505afa158015610ae0573d6000803e3d6000fd5b505050506040513d6020811015610af657600080fd5b81019080805190602001909291905050506040518263ffffffff1660e01b81526004018082815260200191505060206040518083038186803b158015610b3b57600080fd5b505afa158015610b4f573d6000803e3d6000fd5b505050506040513d6020811015610b6557600080fd5b810190808051906020019092919050505090506000600860009054906101000a900473ffffffffffffffffffffffffffffffffffffffff1673ffffffffffffffffffffffffffffffffffffffff16633a4f7830600260009054906101000a900473ffffffffffffffffffffffffffffffffffffffff1673ffffffffffffffffffffffffffffffffffffffff1663c0fbc7c56040518163ffffffff1660e01b815260040160206040518083038186803b158015610c2057600080fd5b505afa158015610c34573d6000803e3d6000fd5b505050506040513d6020811015610c4a57600080fd5b81019080805190602001909291905050506040518263ffffffff1660e01b81526004018082815260200191505060206040518083038186803b158015610c8f57600080fd5b505afa158015610ca3573d6000803e3d6000fd5b505050506040513d6020811015610cb957600080fd5b810190808051906020019092919050505090508173ffffffffffffffffffffffffffffffffffffffff1663ac7d7a3c826004546040518363ffffffff1660e01b8152600401808373ffffffffffffffffffffffffffffffffffffffff1673ffffffffffffffffffffffffffffffffffffffff16815260200182815260200192505050600060405180830381600087803b158015610d5557600080fd5b505af1158015610d69573d6000803e3d6000fd5b50505050505056fea2646970667358221220b57db74f073e24a48fc3f069b66ad2a5134ce78887f90a109582128195fa3b0464736f6c63430006060033",
  "immutableReferences": {},
  "source": "pragma solidity >=0.4.22 <0.8.0;\r\nimport \"./User.sol\";\r\nimport \"./Transaction.sol\";\r\nimport \"./Lease.sol\";\r\nimport \"./Global.sol\";\r\nimport \"./AccountManager.sol\";\r\nimport \"./UserAccount.sol\";\r\n\r\n//實作 Transaction\r\ncontract LeaseTransaction is Transaction {\r\n    User public sender;\r\n    User private renter;\r\n    User private borrower;\r\n    Lease private lease;\r\n    uint256 private money;\r\n    bool private renter_check = false; //出租方確認\r\n    bool private borrower_check = false; //租借方確認\r\n    bool private complete = false; //訂單完成\r\n    uint256 private start_time; //訂單開始時間\r\n    uint256 private end_time; //訂單結束時間\r\n    AccountManager private ACM; //帳戶管理員\r\n\r\n    constructor(\r\n        User s,\r\n        User r,\r\n        User b,\r\n        Lease l,\r\n        uint256 m,\r\n        uint256 st,\r\n        AccountManager acm\r\n    ) public {\r\n        sender = s;\r\n        renter = r;\r\n        borrower = b;\r\n        lease = l;\r\n        money = m;\r\n        start_time = st;\r\n        ACM = acm;\r\n    }\r\n\r\n    function get_txn_info() public override view returns (address[] memory) {\r\n        address[] memory info = new address[](4);\r\n        info[0] = address(sender);\r\n        info[1] = address(renter);\r\n        info[2] = address(borrower);\r\n        info[3] = address(lease);\r\n\r\n        return info;\r\n    }\r\n\r\n    function get_txn_status() public override view returns (bool[] memory) {\r\n        bool[] memory status = new bool[](3);\r\n        status[0] = renter_check;\r\n        status[1] = borrower_check;\r\n        status[2] = complete;\r\n        return status;\r\n    }\r\n\r\n    function get_txn_times() public override view returns (uint256[] memory) {\r\n        uint256[] memory times = new uint256[](2);\r\n        times[0] = start_time;\r\n        times[1] = end_time;\r\n        return times;\r\n    }\r\n\r\n    function get_txn_money() public override view returns (uint256) {\r\n        return money;\r\n    }\r\n\r\n    function transfer_money() private {\r\n        UserAccount renter_account = UserAccount(\r\n            ACM.get_account(renter.get_uid())\r\n        );\r\n        UserAccount borrower_account = UserAccount(\r\n            ACM.get_account(borrower.get_uid())\r\n        );\r\n        renter_account.send_money(borrower_account, money);\r\n    }\r\n\r\n    function complete_txn() public override returns (bool) {\r\n        if (!complete && renter_check && borrower_check) {\r\n            transfer_money();\r\n            end_time = now;\r\n            complete = true;\r\n            return true;\r\n        } else {\r\n            return false;\r\n        }\r\n    }\r\n\r\n    function verify_txn(address user_addr)\r\n        public\r\n        override\r\n        view\r\n        returns (string memory)\r\n    {\r\n        string memory identity;\r\n        if (user_addr == address(renter)) {\r\n            identity = \"租方\";\r\n        } else if (user_addr == address(borrower)) {\r\n            identity = \"借方\";\r\n        } else if (user_addr == address(sender)) {\r\n            identity = \"交易發起方\";\r\n        }\r\n\r\n        return identity;\r\n    }\r\n\r\n    function check_txn(address user_addr) public {\r\n        uint256 user_type = 0;\r\n        if (user_addr == address(renter)) {\r\n            user_type = 1; //出租者\r\n        } else if (user_addr == address(borrower)) {\r\n            user_type = 2; //租借者\r\n        }\r\n\r\n        if (user_type == 1) {\r\n            renter_check = true;\r\n        } else if (user_type == 2) {\r\n            borrower_check = true;\r\n        }\r\n    }\r\n}\r\n",
  "sourcePath": "D:\\Hongwei\\Project\\ethereum-platform\\contracts\\LeaseTransaction.sol",
  "compiler": {
    "name": "solc",
    "version": "0.6.6+commit.6c089d02.Emscripten.clang"
  },
  "schemaVersion": "3.2.3",
  "updatedAt": "2020-09-14T14:27:05.193Z",
  "devdoc": {
    "methods": {}
  },
  "userdoc": {
    "methods": {}
  }
}