{
  "contractName": "Ownable",
  "abi": [
    {
      "inputs": [
        {
          "internalType": "bytes32",
          "name": "_name",
          "type": "bytes32"
        },
        {
          "internalType": "bytes32",
          "name": "_dates",
          "type": "bytes32"
        },
        {
          "internalType": "bytes32",
          "name": "_destination",
          "type": "bytes32"
        },
        {
          "internalType": "bytes32",
          "name": "_traffic",
          "type": "bytes32"
        },
        {
          "internalType": "bytes32",
          "name": "_people",
          "type": "bytes32"
        },
        {
          "internalType": "bytes32",
          "name": "_money",
          "type": "bytes32"
        },
        {
          "internalType": "contract User",
          "name": "_u",
          "type": "address"
        }
      ],
      "stateMutability": "nonpayable",
      "type": "constructor"
    },
    {
      "inputs": [],
      "name": "owner",
      "outputs": [
        {
          "internalType": "address",
          "name": "",
          "type": "address"
        }
      ],
      "stateMutability": "view",
      "type": "function"
    },
    {
      "inputs": [
        {
          "internalType": "uint256",
          "name": "count",
          "type": "uint256"
        }
      ],
      "name": "update",
      "outputs": [
        {
          "internalType": "address",
          "name": "",
          "type": "address"
        },
        {
          "internalType": "uint256",
          "name": "",
          "type": "uint256"
        }
      ],
      "stateMutability": "nonpayable",
      "type": "function"
    },
    {
      "inputs": [],
      "name": "get_name",
      "outputs": [
        {
          "internalType": "bytes32",
          "name": "_name",
          "type": "bytes32"
        }
      ],
      "stateMutability": "view",
      "type": "function"
    },
    {
      "inputs": [
        {
          "internalType": "bytes32",
          "name": "_name",
          "type": "bytes32"
        }
      ],
      "name": "set_name",
      "outputs": [],
      "stateMutability": "nonpayable",
      "type": "function"
    },
    {
      "inputs": [],
      "name": "get_dates",
      "outputs": [
        {
          "internalType": "bytes32",
          "name": "_dates",
          "type": "bytes32"
        }
      ],
      "stateMutability": "view",
      "type": "function"
    },
    {
      "inputs": [
        {
          "internalType": "bytes32",
          "name": "_dates",
          "type": "bytes32"
        }
      ],
      "name": "set_dates",
      "outputs": [],
      "stateMutability": "nonpayable",
      "type": "function"
    },
    {
      "inputs": [],
      "name": "get_destination",
      "outputs": [
        {
          "internalType": "bytes32",
          "name": "_destination",
          "type": "bytes32"
        }
      ],
      "stateMutability": "view",
      "type": "function"
    },
    {
      "inputs": [
        {
          "internalType": "bytes32",
          "name": "_destination",
          "type": "bytes32"
        }
      ],
      "name": "set_destination",
      "outputs": [],
      "stateMutability": "nonpayable",
      "type": "function"
    },
    {
      "inputs": [],
      "name": "get_traffic",
      "outputs": [
        {
          "internalType": "bytes32",
          "name": "_traffic",
          "type": "bytes32"
        }
      ],
      "stateMutability": "view",
      "type": "function"
    },
    {
      "inputs": [
        {
          "internalType": "bytes32",
          "name": "_traffic",
          "type": "bytes32"
        }
      ],
      "name": "set_traffic",
      "outputs": [],
      "stateMutability": "nonpayable",
      "type": "function"
    },
    {
      "inputs": [],
      "name": "get_people",
      "outputs": [
        {
          "internalType": "bytes32",
          "name": "_people",
          "type": "bytes32"
        }
      ],
      "stateMutability": "view",
      "type": "function"
    },
    {
      "inputs": [
        {
          "internalType": "bytes32",
          "name": "_people",
          "type": "bytes32"
        }
      ],
      "name": "set_people",
      "outputs": [],
      "stateMutability": "nonpayable",
      "type": "function"
    },
    {
      "inputs": [],
      "name": "get_money",
      "outputs": [
        {
          "internalType": "bytes32",
          "name": "_money",
          "type": "bytes32"
        }
      ],
      "stateMutability": "view",
      "type": "function"
    },
    {
      "inputs": [
        {
          "internalType": "bytes32",
          "name": "_money",
          "type": "bytes32"
        }
      ],
      "name": "set_money",
      "outputs": [],
      "stateMutability": "nonpayable",
      "type": "function"
    },
    {
      "inputs": [],
      "name": "get_u",
      "outputs": [
        {
          "internalType": "contract User",
          "name": "_u",
          "type": "address"
        }
      ],
      "stateMutability": "view",
      "type": "function"
    },
    {
      "inputs": [
        {
          "internalType": "contract User",
          "name": "_u",
          "type": "address"
        }
      ],
      "name": "set_u",
      "outputs": [],
      "stateMutability": "nonpayable",
      "type": "function"
    },
    {
      "inputs": [
        {
          "internalType": "bytes32",
          "name": "_name",
          "type": "bytes32"
        },
        {
          "internalType": "bytes32",
          "name": "_dates",
          "type": "bytes32"
        },
        {
          "internalType": "bytes32",
          "name": "_destination",
          "type": "bytes32"
        },
        {
          "internalType": "bytes32",
          "name": "_traffic",
          "type": "bytes32"
        },
        {
          "internalType": "bytes32",
          "name": "_people",
          "type": "bytes32"
        },
        {
          "internalType": "bytes32",
          "name": "_money",
          "type": "bytes32"
        }
      ],
      "name": "update_ownable_info",
      "outputs": [],
      "stateMutability": "nonpayable",
      "type": "function"
    }
  ],
  "bytecode": "0x608060405234801561001057600080fd5b50604051610983380380610983833981810160405260e081101561003357600080fd5b81019080805190602001909291908051906020019092919080519060200190929190805190602001909291908051906020019092919080519060200190929190805190602001909291905050506000602060ff1614156100fb576040517f08c379a00000000000000000000000000000000000000000000000000000000081526004018080602001828103825260098152602001807f4e656564206e616d65000000000000000000000000000000000000000000000081525060200191505060405180910390fd5b6000602060ff161415610176576040517f08c379a000000000000000000000000000000000000000000000000000000000815260040180806020018281038252600a8152602001807f4e6565642064617465730000000000000000000000000000000000000000000081525060200191505060405180910390fd5b6000602060ff1614156101f1576040517f08c379a00000000000000000000000000000000000000000000000000000000081526004018080602001828103825260108152602001807f4e6565642064657374696e6174696f6e0000000000000000000000000000000081525060200191505060405180910390fd5b6000602060ff16141561026c576040517f08c379a000000000000000000000000000000000000000000000000000000000815260040180806020018281038252600c8152602001807f4e6565642074726166666963000000000000000000000000000000000000000081525060200191505060405180910390fd5b6000602060ff1614156102e7576040517f08c379a000000000000000000000000000000000000000000000000000000000815260040180806020018281038252600b8152602001807f4e6565642070656f706c6500000000000000000000000000000000000000000081525060200191505060405180910390fd5b86600181905550856002819055508460038190555083600481905550826005819055508160068190555080600760006101000a81548173ffffffffffffffffffffffffffffffffffffffff021916908373ffffffffffffffffffffffffffffffffffffffff1602179055505050505050505061061b806103686000396000f3fe608060405234801561001057600080fd5b506004361061010b5760003560e01c80637ba332e9116100a2578063a322c81311610071578063a322c813146103bf578063b8029269146103ed578063c450dc791461040b578063d79a4b9514610439578063fcfb1e73146104675761010b565b80637ba332e9146102a457806382ab890a146102d25780638da5cb5b1461034757806390b6c7fa146103915761010b565b80633cb2b12a116100de5780633cb2b12a146101ae578063453b4f7c146101cc57806366eecef4146102165780637042f94d146102765761010b565b80630877e5e514610110578063173edbee1461012e5780632a4a14c3146101725780633a525c2914610190575b600080fd5b610118610485565b6040518082815260200191505060405180910390f35b6101706004803603602081101561014457600080fd5b81019080803573ffffffffffffffffffffffffffffffffffffffff16906020019092919050505061048f565b005b61017a6104d3565b6040518082815260200191505060405180910390f35b6101986104dd565b6040518082815260200191505060405180910390f35b6101b66104e7565b6040518082815260200191505060405180910390f35b6101d46104f1565b604051808273ffffffffffffffffffffffffffffffffffffffff1673ffffffffffffffffffffffffffffffffffffffff16815260200191505060405180910390f35b610274600480360360c081101561022c57600080fd5b8101908080359060200190929190803590602001909291908035906020019092919080359060200190929190803590602001909291908035906020019092919050505061051b565b005b6102a26004803603602081101561028c57600080fd5b810190808035906020019092919050505061054d565b005b6102d0600480360360208110156102ba57600080fd5b8101908080359060200190929190505050610557565b005b6102fe600480360360208110156102e857600080fd5b8101908080359060200190929190505050610561565b604051808373ffffffffffffffffffffffffffffffffffffffff1673ffffffffffffffffffffffffffffffffffffffff1681526020018281526020019250505060405180910390f35b61034f610584565b604051808273ffffffffffffffffffffffffffffffffffffffff1673ffffffffffffffffffffffffffffffffffffffff16815260200191505060405180910390f35b6103bd600480360360208110156103a757600080fd5b81019080803590602001909291905050506105a9565b005b6103eb600480360360208110156103d557600080fd5b81019080803590602001909291905050506105b3565b005b6103f56105bd565b6040518082815260200191505060405180910390f35b6104376004803603602081101561042157600080fd5b81019080803590602001909291905050506105c7565b005b6104656004803603602081101561044f57600080fd5b81019080803590602001909291905050506105d1565b005b61046f6105db565b6040518082815260200191505060405180910390f35b6000600354905090565b80600760006101000a81548173ffffffffffffffffffffffffffffffffffffffff021916908373ffffffffffffffffffffffffffffffffffffffff16021790555050565b6000600254905090565b6000600154905090565b6000600454905090565b6000600760009054906101000a900473ffffffffffffffffffffffffffffffffffffffff16905090565b856001819055508460028190555083600381905550826004819055508160058190555080600681905550505050505050565b8060068190555050565b8060018190555050565b600080826008600082825401925050819055503360085481915091509150915091565b6000809054906101000a900473ffffffffffffffffffffffffffffffffffffffff1681565b8060058190555050565b8060028190555050565b6000600654905090565b8060048190555050565b8060038190555050565b600060055490509056fea2646970667358221220471559415262d9fdd8fec80822da29fa1424ce1a4d1c70316417e5a377af01ce64736f6c63430006060033",
  "source": "pragma solidity >=0.4.22 <0.8.0;\nimport \"./User.sol\";\n\ncontract Ownable {\n    address public owner;\n    bytes32 private name;\n    bytes32 private dates;\n    bytes32 private destination;\n    bytes32 private traffic;\n    bytes32 private people;\n    bytes32 private money;\n    User private u;\n\n\n    modifier onlyOwner() {\n        require(msg.sender == owner);\n        _;\n    }\n   uint balance;\n    function update(uint count) public returns (address, uint){\n        balance += count;\n        return (msg.sender, balance);\n    }\n\n    constructor(\n        // address _owner,\n        bytes32 _name,\n        bytes32 _dates,\n        bytes32 _destination,\n        bytes32 _traffic,\n        bytes32 _people,\n        bytes32 _money,\n        User _u\n    ) public {\n        // require(_owner != address(0x0), \"Need owner\");\n        require(_name.length != 0, \"Need name\");\n        require(_dates.length != 0, \"Need dates\");\n        require(_destination.length != 0, \"Need destination\");\n        require(_traffic.length != 0, \"Need traffic\");\n        require(_people.length != 0, \"Need people\");\n        // require(_money.length != 0, \"Need money\");\n\n        // owner = _owner;\n        name = _name;\n        dates = _dates;\n        destination = _destination;\n        traffic = _traffic;\n        people = _people;\n        money = _money;\n        u=_u;\n        \n    }\n\n    function get_name() public view returns (bytes32 _name) {\n        return name;\n    }\n\n    function set_name(bytes32 _name) public {\n        name = _name;\n    }\n\n    function get_dates() public view returns (bytes32 _dates) {\n        return dates;\n    }\n\n    function set_dates(bytes32 _dates) public {\n       dates = _dates;\n    }\n\n     function get_destination()  public view returns (bytes32 _destination) {\n        return destination;\n    }\n\n    function set_destination(bytes32 _destination) public {\n        destination = _destination;\n    }\n\n     function get_traffic() public view returns (bytes32 _traffic) {\n        return traffic;\n    }\n\n    function set_traffic(bytes32 _traffic) public {\n       traffic = _traffic;\n    }\n\n     function get_people() public view returns (bytes32 _people) {\n        return people;\n    }\n\n    function set_people(bytes32 _people) public {\n       people = _people;\n    }\n\n      function get_money() public view returns (bytes32 _money) {\n        return money;\n    }\n\n    function set_money(bytes32 _money) public {\n       money = _money;\n    }\n    \n     function get_u() public view returns (User _u) {\n        return u;\n    }\n\n    function set_u(User _u) public {\n       u = _u;\n    }\n    \n    function update_ownable_info(\n        bytes32 _name, \n        bytes32 _dates, \n        bytes32 _destination, \n        bytes32 _traffic,\n        bytes32 _people, \n        bytes32 _money)\n        public\n    {\n        name =  _name ;\n        dates = _dates ;\n        destination = _destination;\n        traffic =  _traffic;\n        people = _people;\n        money = _money;\n    }\n}\n",
  "sourcePath": "/Users/hongwei/Documents/Project/ethereum-platform/contracts/Ownable.sol",
  "compiler": {
    "name": "solc",
    "version": "0.6.6+commit.6c089d02.Emscripten.clang"
  },
  "schemaVersion": "3.0.20",
  "updatedAt": "2020-10-07T14:10:20.270Z",
  "devdoc": {
    "methods": {}
  },
  "userdoc": {
    "methods": {}
  }
}