{
  "contractName": "Ownable",
  "abi": [
    {
      "inputs": [
        {
          "internalType": "bytes32",
          "name": "_name",
          "type": "bytes32"
        },
        {
          "internalType": "uint256",
          "name": "_dates",
          "type": "uint256"
        },
        {
          "internalType": "bytes32",
          "name": "_destination_lon",
          "type": "bytes32"
        },
        {
          "internalType": "bytes32",
          "name": "_destination_lat",
          "type": "bytes32"
        },
        {
          "internalType": "bytes32",
          "name": "_traffic",
          "type": "bytes32"
        },
        {
          "internalType": "bytes32",
          "name": "_people",
          "type": "bytes32"
        },
        {
          "internalType": "uint256",
          "name": "_money",
          "type": "uint256"
        },
        {
          "internalType": "contract User",
          "name": "_u",
          "type": "address"
        }
      ],
      "stateMutability": "nonpayable",
      "type": "constructor"
    },
    {
      "inputs": [],
      "name": "owner",
      "outputs": [
        {
          "internalType": "address",
          "name": "",
          "type": "address"
        }
      ],
      "stateMutability": "view",
      "type": "function"
    },
    {
      "inputs": [
        {
          "internalType": "uint256",
          "name": "count",
          "type": "uint256"
        }
      ],
      "name": "update",
      "outputs": [
        {
          "internalType": "address",
          "name": "",
          "type": "address"
        },
        {
          "internalType": "uint256",
          "name": "",
          "type": "uint256"
        }
      ],
      "stateMutability": "nonpayable",
      "type": "function"
    },
    {
      "inputs": [],
      "name": "get_name",
      "outputs": [
        {
          "internalType": "bytes32",
          "name": "_name",
          "type": "bytes32"
        }
      ],
      "stateMutability": "view",
      "type": "function"
    },
    {
      "inputs": [
        {
          "internalType": "bytes32",
          "name": "_name",
          "type": "bytes32"
        }
      ],
      "name": "set_name",
      "outputs": [],
      "stateMutability": "nonpayable",
      "type": "function"
    },
    {
      "inputs": [],
      "name": "get_dates",
      "outputs": [
        {
          "internalType": "uint256",
          "name": "_dates",
          "type": "uint256"
        }
      ],
      "stateMutability": "view",
      "type": "function"
    },
    {
      "inputs": [
        {
          "internalType": "uint256",
          "name": "_dates",
          "type": "uint256"
        }
      ],
      "name": "set_dates",
      "outputs": [],
      "stateMutability": "nonpayable",
      "type": "function"
    },
    {
      "inputs": [],
      "name": "get_destination_lon",
      "outputs": [
        {
          "internalType": "bytes32",
          "name": "_destination_lon",
          "type": "bytes32"
        }
      ],
      "stateMutability": "view",
      "type": "function"
    },
    {
      "inputs": [
        {
          "internalType": "bytes32",
          "name": "_destination_lon",
          "type": "bytes32"
        }
      ],
      "name": "set_destination_lon",
      "outputs": [],
      "stateMutability": "nonpayable",
      "type": "function"
    },
    {
      "inputs": [],
      "name": "get_destination_lat",
      "outputs": [
        {
          "internalType": "bytes32",
          "name": "_destination_lat",
          "type": "bytes32"
        }
      ],
      "stateMutability": "view",
      "type": "function"
    },
    {
      "inputs": [
        {
          "internalType": "bytes32",
          "name": "_destination_lat",
          "type": "bytes32"
        }
      ],
      "name": "set_destination_lat",
      "outputs": [],
      "stateMutability": "nonpayable",
      "type": "function"
    },
    {
      "inputs": [],
      "name": "get_traffic",
      "outputs": [
        {
          "internalType": "bytes32",
          "name": "_traffic",
          "type": "bytes32"
        }
      ],
      "stateMutability": "view",
      "type": "function"
    },
    {
      "inputs": [
        {
          "internalType": "bytes32",
          "name": "_traffic",
          "type": "bytes32"
        }
      ],
      "name": "set_traffic",
      "outputs": [],
      "stateMutability": "nonpayable",
      "type": "function"
    },
    {
      "inputs": [],
      "name": "get_people",
      "outputs": [
        {
          "internalType": "bytes32",
          "name": "_people",
          "type": "bytes32"
        }
      ],
      "stateMutability": "view",
      "type": "function"
    },
    {
      "inputs": [
        {
          "internalType": "bytes32",
          "name": "_people",
          "type": "bytes32"
        }
      ],
      "name": "set_people",
      "outputs": [],
      "stateMutability": "nonpayable",
      "type": "function"
    },
    {
      "inputs": [],
      "name": "get_money",
      "outputs": [
        {
          "internalType": "uint256",
          "name": "_money",
          "type": "uint256"
        }
      ],
      "stateMutability": "view",
      "type": "function"
    },
    {
      "inputs": [
        {
          "internalType": "uint256",
          "name": "_money",
          "type": "uint256"
        }
      ],
      "name": "set_money",
      "outputs": [],
      "stateMutability": "nonpayable",
      "type": "function"
    },
    {
      "inputs": [],
      "name": "get_u",
      "outputs": [
        {
          "internalType": "contract User",
          "name": "_u",
          "type": "address"
        }
      ],
      "stateMutability": "view",
      "type": "function"
    },
    {
      "inputs": [
        {
          "internalType": "contract User",
          "name": "_u",
          "type": "address"
        }
      ],
      "name": "set_u",
      "outputs": [],
      "stateMutability": "nonpayable",
      "type": "function"
    },
    {
      "inputs": [
        {
          "internalType": "bytes32",
          "name": "_name",
          "type": "bytes32"
        },
        {
          "internalType": "uint256",
          "name": "_dates",
          "type": "uint256"
        },
        {
          "internalType": "bytes32",
          "name": "_destination_lon",
          "type": "bytes32"
        },
        {
          "internalType": "bytes32",
          "name": "_destination_lat",
          "type": "bytes32"
        },
        {
          "internalType": "bytes32",
          "name": "_traffic",
          "type": "bytes32"
        },
        {
          "internalType": "bytes32",
          "name": "_people",
          "type": "bytes32"
        },
        {
          "internalType": "uint256",
          "name": "_money",
          "type": "uint256"
        }
      ],
      "name": "update_ownable_info",
      "outputs": [],
      "stateMutability": "nonpayable",
      "type": "function"
    }
  ],
  "bytecode": "0x608060405234801561001057600080fd5b50604051610a1e380380610a1e833981810160405261010081101561003457600080fd5b8101908080519060200190929190805190602001909291908051906020019092919080519060200190929190805190602001909291908051906020019092919080519060200190929190805190602001909291905050506000602060ff161415610106576040517f08c379a00000000000000000000000000000000000000000000000000000000081526004018080602001828103825260098152602001807f4e656564206e616d65000000000000000000000000000000000000000000000081525060200191505060405180910390fd5b6000602060ff161415610181576040517f08c379a00000000000000000000000000000000000000000000000000000000081526004018080602001828103825260108152602001807f4e6565642064657374696e6174696f6e0000000000000000000000000000000081525060200191505060405180910390fd5b6000602060ff1614156101fc576040517f08c379a00000000000000000000000000000000000000000000000000000000081526004018080602001828103825260108152602001807f4e6565642064657374696e6174696f6e0000000000000000000000000000000081525060200191505060405180910390fd5b6000602060ff161415610277576040517f08c379a000000000000000000000000000000000000000000000000000000000815260040180806020018281038252600c8152602001807f4e6565642074726166666963000000000000000000000000000000000000000081525060200191505060405180910390fd5b6000602060ff1614156102f2576040517f08c379a000000000000000000000000000000000000000000000000000000000815260040180806020018281038252600b8152602001807f4e6565642070656f706c6500000000000000000000000000000000000000000081525060200191505060405180910390fd5b8760018190555086600281905550856003819055508460048190555083600581905550826006819055508160078190555080600860006101000a81548173ffffffffffffffffffffffffffffffffffffffff021916908373ffffffffffffffffffffffffffffffffffffffff16021790555050505050505050506106a38061037b6000396000f3fe608060405234801561001057600080fd5b50600436106101215760003560e01c80638da5cb5b116100ad578063c450dc7911610071578063c450dc791461041b578063deb653c714610449578063e8a1c5b114610477578063f3a74d73146104a5578063fcfb1e73146104d357610121565b80638da5cb5b146102fd57806390b6c7fa14610347578063ae2d328914610375578063b7899341146103df578063b8029269146103fd57610121565b80633cb2b12a116100f45780633cb2b12a146101c4578063453b4f7c146101e25780637ba332e91461022c5780637c8d727e1461025a57806382ab890a1461028857610121565b8063173edbee146101265780632a4a14c31461016a578063366f0041146101885780633a525c29146101a6575b600080fd5b6101686004803603602081101561013c57600080fd5b81019080803573ffffffffffffffffffffffffffffffffffffffff1690602001909291905050506104f1565b005b610172610535565b6040518082815260200191505060405180910390f35b61019061053f565b6040518082815260200191505060405180910390f35b6101ae610549565b6040518082815260200191505060405180910390f35b6101cc610553565b6040518082815260200191505060405180910390f35b6101ea61055d565b604051808273ffffffffffffffffffffffffffffffffffffffff1673ffffffffffffffffffffffffffffffffffffffff16815260200191505060405180910390f35b6102586004803603602081101561024257600080fd5b8101908080359060200190929190505050610587565b005b6102866004803603602081101561027057600080fd5b8101908080359060200190929190505050610591565b005b6102b46004803603602081101561029e57600080fd5b810190808035906020019092919050505061059b565b604051808373ffffffffffffffffffffffffffffffffffffffff1673ffffffffffffffffffffffffffffffffffffffff1681526020018281526020019250505060405180910390f35b6103056105be565b604051808273ffffffffffffffffffffffffffffffffffffffff1673ffffffffffffffffffffffffffffffffffffffff16815260200191505060405180910390f35b6103736004803603602081101561035d57600080fd5b81019080803590602001909291905050506105e3565b005b6103dd600480360360e081101561038b57600080fd5b81019080803590602001909291908035906020019092919080359060200190929190803590602001909291908035906020019092919080359060200190929190803590602001909291905050506105ed565b005b6103e7610627565b6040518082815260200191505060405180910390f35b610405610631565b6040518082815260200191505060405180910390f35b6104476004803603602081101561043157600080fd5b810190808035906020019092919050505061063b565b005b6104756004803603602081101561045f57600080fd5b8101908080359060200190929190505050610645565b005b6104a36004803603602081101561048d57600080fd5b810190808035906020019092919050505061064f565b005b6104d1600480360360208110156104bb57600080fd5b8101908080359060200190929190505050610659565b005b6104db610663565b6040518082815260200191505060405180910390f35b80600860006101000a81548173ffffffffffffffffffffffffffffffffffffffff021916908373ffffffffffffffffffffffffffffffffffffffff16021790555050565b6000600254905090565b6000600454905090565b6000600154905090565b6000600554905090565b6000600860009054906101000a900473ffffffffffffffffffffffffffffffffffffffff16905090565b8060018190555050565b8060038190555050565b600080826009600082825401925050819055503360095481915091509150915091565b6000809054906101000a900473ffffffffffffffffffffffffffffffffffffffff1681565b8060068190555050565b8660018190555085600281905550846003819055508360048190555082600581905550816006819055508060078190555050505050505050565b6000600354905090565b6000600754905090565b8060058190555050565b8060048190555050565b8060078190555050565b8060028190555050565b600060065490509056fea264697066735822122054532ea7bb0687a87d2998bdeed0faac35ea9f2f5b027dabe7f6d66cb2754eaa64736f6c63430006060033",
  "immutableReferences": {},
  "source": "pragma solidity >=0.4.22 <0.8.0;\r\nimport \"./User.sol\";\r\n\r\ncontract Ownable {\r\n    address public owner;\r\n    bytes32 private name;\r\n    uint256 private dates;\r\n    bytes32 private destination_lon;\r\n    bytes32 private destination_lat;\r\n    bytes32 private traffic;\r\n    bytes32 private people;\r\n    uint256 private money;\r\n    User private u;\r\n\r\n    modifier onlyOwner() {\r\n        require(msg.sender == owner);\r\n        _;\r\n    }\r\n   uint balance;\r\n    function update(uint count) public returns (address, uint){\r\n        balance += count;\r\n        return (msg.sender, balance);\r\n    }\r\n\r\n    constructor(\r\n        // address _owner,\r\n        bytes32 _name,\r\n        uint256 _dates,\r\n        bytes32 _destination_lon,\r\n        bytes32 _destination_lat,\r\n        bytes32 _traffic,\r\n        bytes32 _people,\r\n        uint256 _money,\r\n        User _u\r\n    ) public {\r\n        // require(_owner != address(0x0), \"Need owner\");\r\n        require(_name.length != 0, \"Need name\");\r\n        //require(_dates.length != 0, \"Need dates\");\r\n        require(_destination_lon.length != 0, \"Need destination\");\r\n        require(_destination_lat.length != 0, \"Need destination\");\r\n        require(_traffic.length != 0, \"Need traffic\");\r\n        require(_people.length != 0, \"Need people\");\r\n        // require(_money.length != 0, \"Need money\");\r\n\r\n        // owner = _owner;\r\n        name = _name;\r\n        dates = _dates;\r\n        destination_lon = _destination_lon;\r\n        destination_lat = _destination_lat;\r\n        traffic = _traffic;\r\n        people = _people;\r\n        money = _money;\r\n        u=_u;\r\n        \r\n    }\r\n\r\n    function get_name() public view returns (bytes32 _name) {\r\n        return name;\r\n    }\r\n\r\n    function set_name(bytes32 _name) public {\r\n        name = _name;\r\n    }\r\n\r\n    function get_dates() public view returns (uint256 _dates) {\r\n        return dates;\r\n    }\r\n\r\n    function set_dates(uint256 _dates) public {\r\n       dates = _dates;\r\n    }\r\n\r\n     function get_destination_lon()  public view returns (bytes32 _destination_lon) {\r\n        return destination_lon;\r\n    }\r\n\r\n    function set_destination_lon(bytes32 _destination_lon) public {\r\n        destination_lon = _destination_lon;\r\n    }\r\n    \r\n     function get_destination_lat()  public view returns (bytes32 _destination_lat) {\r\n        return destination_lat;\r\n    }\r\n\r\n    function set_destination_lat(bytes32 _destination_lat) public {\r\n        destination_lat = _destination_lat;\r\n    }\r\n\r\n     function get_traffic() public view returns (bytes32 _traffic) {\r\n        return traffic;\r\n    }\r\n\r\n    function set_traffic(bytes32 _traffic) public {\r\n       traffic = _traffic;\r\n    }\r\n\r\n     function get_people() public view returns (bytes32 _people) {\r\n        return people;\r\n    }\r\n\r\n    function set_people(bytes32 _people) public {\r\n       people = _people;\r\n    }\r\n\r\n      function get_money() public view returns (uint256 _money) {\r\n        return money;\r\n    }\r\n\r\n    function set_money(uint256 _money) public {\r\n       money = _money;\r\n    }\r\n    \r\n     function get_u() public view returns (User _u) {\r\n        return u;\r\n    }\r\n\r\n    function set_u(User _u) public {\r\n       u = _u;\r\n    }\r\n    \r\n      function update_ownable_info(\r\n        bytes32 _name, \r\n        uint256 _dates, \r\n        bytes32 _destination_lon, \r\n        bytes32 _destination_lat, \r\n        bytes32 _traffic,\r\n        bytes32 _people, \r\n        uint256 _money)\r\n        public\r\n    {\r\n        name =  _name ;\r\n        dates = _dates ;\r\n        destination_lon = _destination_lon;\r\n        destination_lat = _destination_lat;\r\n        traffic =  _traffic;\r\n        people = _people;\r\n        money = _money;\r\n    }\r\n}\r\n",
  "sourcePath": "C:\\Users\\User\\Desktop\\ethereum-platform\\contracts\\Ownable.sol",
  "compiler": {
    "name": "solc",
    "version": "0.6.6+commit.6c089d02.Emscripten.clang"
  },
  "schemaVersion": "3.2.4",
  "updatedAt": "2020-09-29T07:22:09.164Z",
  "devdoc": {
    "methods": {}
  },
  "userdoc": {
    "methods": {}
  }
}