{
  "contractName": "Ownable",
  "abi": [
    {
      "inputs": [
        {
          "internalType": "bytes32",
          "name": "_name",
          "type": "bytes32"
        },
        {
          "internalType": "bytes32",
          "name": "_dates",
          "type": "bytes32"
        },
        {
          "internalType": "bytes32",
          "name": "_destination",
          "type": "bytes32"
        },
        {
          "internalType": "bytes32",
          "name": "_traffic",
          "type": "bytes32"
        },
        {
          "internalType": "bytes32",
          "name": "_people",
          "type": "bytes32"
        },
        {
          "internalType": "bytes32",
          "name": "_money",
          "type": "bytes32"
        }
      ],
      "stateMutability": "nonpayable",
      "type": "constructor"
    },
    {
      "inputs": [],
      "name": "get_name",
      "outputs": [
        {
          "internalType": "bytes32",
          "name": "_name",
          "type": "bytes32"
        }
      ],
      "stateMutability": "view",
      "type": "function"
    },
    {
      "inputs": [
        {
          "internalType": "bytes32",
          "name": "_name",
          "type": "bytes32"
        }
      ],
      "name": "set_name",
      "outputs": [],
      "stateMutability": "nonpayable",
      "type": "function"
    },
    {
      "inputs": [],
      "name": "get_dates",
      "outputs": [
        {
          "internalType": "bytes32",
          "name": "_dates",
          "type": "bytes32"
        }
      ],
      "stateMutability": "view",
      "type": "function"
    },
    {
      "inputs": [
        {
          "internalType": "bytes32",
          "name": "_dates",
          "type": "bytes32"
        }
      ],
      "name": "set_dates",
      "outputs": [],
      "stateMutability": "nonpayable",
      "type": "function"
    },
    {
      "inputs": [],
      "name": "get_destination",
      "outputs": [
        {
          "internalType": "bytes32",
          "name": "_destination",
          "type": "bytes32"
        }
      ],
      "stateMutability": "view",
      "type": "function"
    },
    {
      "inputs": [
        {
          "internalType": "bytes32",
          "name": "_destination",
          "type": "bytes32"
        }
      ],
      "name": "set_destination",
      "outputs": [],
      "stateMutability": "nonpayable",
      "type": "function"
    },
    {
      "inputs": [],
      "name": "get_traffic",
      "outputs": [
        {
          "internalType": "bytes32",
          "name": "_traffic",
          "type": "bytes32"
        }
      ],
      "stateMutability": "view",
      "type": "function"
    },
    {
      "inputs": [
        {
          "internalType": "bytes32",
          "name": "_traffic",
          "type": "bytes32"
        }
      ],
      "name": "set_traffic",
      "outputs": [],
      "stateMutability": "nonpayable",
      "type": "function"
    },
    {
      "inputs": [],
      "name": "get_people",
      "outputs": [
        {
          "internalType": "bytes32",
          "name": "_people",
          "type": "bytes32"
        }
      ],
      "stateMutability": "view",
      "type": "function"
    },
    {
      "inputs": [
        {
          "internalType": "bytes32",
          "name": "_people",
          "type": "bytes32"
        }
      ],
      "name": "set_people",
      "outputs": [],
      "stateMutability": "nonpayable",
      "type": "function"
    },
    {
      "inputs": [],
      "name": "get_money",
      "outputs": [
        {
          "internalType": "bytes32",
          "name": "_money",
          "type": "bytes32"
        }
      ],
      "stateMutability": "view",
      "type": "function"
    },
    {
      "inputs": [
        {
          "internalType": "bytes32",
          "name": "_money",
          "type": "bytes32"
        }
      ],
      "name": "set_money",
      "outputs": [],
      "stateMutability": "nonpayable",
      "type": "function"
    }
  ],
  "bytecode": "0x608060405234801561001057600080fd5b5060405161064a38038061064a833981810160405260c081101561003357600080fd5b810190808051906020019092919080519060200190929190805190602001909291908051906020019092919080519060200190929190805190602001909291905050506000602060ff1614156100f1576040517f08c379a00000000000000000000000000000000000000000000000000000000081526004018080602001828103825260098152602001807f4e656564206e616d65000000000000000000000000000000000000000000000081525060200191505060405180910390fd5b6000602060ff16141561016c576040517f08c379a000000000000000000000000000000000000000000000000000000000815260040180806020018281038252600a8152602001807f4e6565642064617465730000000000000000000000000000000000000000000081525060200191505060405180910390fd5b6000602060ff1614156101e7576040517f08c379a00000000000000000000000000000000000000000000000000000000081526004018080602001828103825260108152602001807f4e6565642064657374696e6174696f6e0000000000000000000000000000000081525060200191505060405180910390fd5b6000602060ff161415610262576040517f08c379a000000000000000000000000000000000000000000000000000000000815260040180806020018281038252600c8152602001807f4e6565642074726166666963000000000000000000000000000000000000000081525060200191505060405180910390fd5b6000602060ff1614156102dd576040517f08c379a000000000000000000000000000000000000000000000000000000000815260040180806020018281038252600b8152602001807f4e6565642070656f706c6500000000000000000000000000000000000000000081525060200191505060405180910390fd5b85600081905550846001819055508360028190555082600381905550816004819055508060058190555050505050505061032e8061031c6000396000f3fe608060405234801561001057600080fd5b50600436106100b45760003560e01c806390b6c7fa1161007157806390b6c7fa1461018d578063a322c813146101bb578063b8029269146101e9578063c450dc7914610207578063d79a4b9514610235578063fcfb1e7314610263576100b4565b80630877e5e5146100b95780632a4a14c3146100d75780633a525c29146100f55780633cb2b12a146101135780637042f94d146101315780637ba332e91461015f575b600080fd5b6100c1610281565b6040518082815260200191505060405180910390f35b6100df61028b565b6040518082815260200191505060405180910390f35b6100fd610295565b6040518082815260200191505060405180910390f35b61011b61029e565b6040518082815260200191505060405180910390f35b61015d6004803603602081101561014757600080fd5b81019080803590602001909291905050506102a8565b005b61018b6004803603602081101561017557600080fd5b81019080803590602001909291905050506102b2565b005b6101b9600480360360208110156101a357600080fd5b81019080803590602001909291905050506102bc565b005b6101e7600480360360208110156101d157600080fd5b81019080803590602001909291905050506102c6565b005b6101f16102d0565b6040518082815260200191505060405180910390f35b6102336004803603602081101561021d57600080fd5b81019080803590602001909291905050506102da565b005b6102616004803603602081101561024b57600080fd5b81019080803590602001909291905050506102e4565b005b61026b6102ee565b6040518082815260200191505060405180910390f35b6000600254905090565b6000600154905090565b60008054905090565b6000600354905090565b8060058190555050565b8060008190555050565b8060048190555050565b8060018190555050565b6000600554905090565b8060038190555050565b8060028190555050565b600060045490509056fea2646970667358221220e3e3de5352925348cf42a4789db90a498d06409b32b0f17445e76e9f95f6cba964736f6c63430006060033",
  "immutableReferences": {},
  "source": "pragma solidity >=0.4.22 <0.8.0;\r\n\r\ncontract Ownable {\r\n    // address public owner;\r\n    bytes32 private name;\r\n    bytes32 private dates;\r\n    bytes32 private destination;\r\n    bytes32 private traffic;\r\n    bytes32 private people;\r\n    bytes32 private money;\r\n\r\n    // modifier onlyOwner() {\r\n    //     require(msg.sender == owner);\r\n    //     _;\r\n    // }\r\n\r\n    constructor(\r\n        // address _owner,\r\n        bytes32 _name,\r\n        bytes32 _dates,\r\n        bytes32 _destination,\r\n        bytes32 _traffic,\r\n        bytes32 _people,\r\n        bytes32 _money\r\n    ) public {\r\n        // require(_owner != address(0x0), \"Need owner\");\r\n        require(_name.length != 0, \"Need name\");\r\n        require(_dates.length != 0, \"Need dates\");\r\n        require(_destination.length != 0, \"Need destination\");\r\n        require(_traffic.length != 0, \"Need traffic\");\r\n        require(_people.length != 0, \"Need people\");\r\n        // require(_money.length != 0, \"Need money\");\r\n\r\n        // owner = _owner;\r\n        name = _name;\r\n        dates = _dates;\r\n        destination = _destination;\r\n        traffic = _traffic;\r\n        people = _people;\r\n        money = _money;\r\n    }\r\n\r\n    function get_name() public view returns (bytes32 _name) {\r\n        return name;\r\n    }\r\n\r\n    function set_name(bytes32 _name) public {\r\n        name = _name;\r\n    }\r\n\r\n    function get_dates() public view returns (bytes32 _dates) {\r\n        return dates;\r\n    }\r\n\r\n    function set_dates(bytes32 _dates) public {\r\n       dates = _dates;\r\n    }\r\n\r\n     function get_destination()  public view returns (bytes32 _destination) {\r\n        return destination;\r\n    }\r\n\r\n    function set_destination(bytes32 _destination) public {\r\n        destination = _destination;\r\n    }\r\n\r\n     function get_traffic() public view returns (bytes32 _traffic) {\r\n        return traffic;\r\n    }\r\n\r\n    function set_traffic(bytes32 _traffic) public {\r\n       traffic = _traffic;\r\n    }\r\n\r\n     function get_people() public view returns (bytes32 _people) {\r\n        return people;\r\n    }\r\n\r\n    function set_people(bytes32 _people) public {\r\n       people = _people;\r\n    }\r\n\r\n      function get_money() public view returns (bytes32 _money) {\r\n        return money;\r\n    }\r\n\r\n    function set_money(bytes32 _money) public {\r\n       money = _money;\r\n    }\r\n}\r\n",
  "sourcePath": "C:\\Users\\User\\Desktop\\ethereum-platform\\contracts\\Ownable.sol",
  "compiler": {
    "name": "solc",
    "version": "0.6.6+commit.6c089d02.Emscripten.clang"
  },
  "schemaVersion": "3.2.4",
  "updatedAt": "2020-09-26T06:35:18.829Z",
  "devdoc": {
    "methods": {}
  },
  "userdoc": {
    "methods": {}
  }
}