{
  "contractName": "TransactionManager",
  "abi": [
    {
      "inputs": [
        {
          "internalType": "bytes32",
          "name": "uid",
          "type": "bytes32"
        }
      ],
      "name": "get_user_all_txns",
      "outputs": [
        {
          "internalType": "uint256[]",
          "name": "",
          "type": "uint256[]"
        },
        {
          "internalType": "address[]",
          "name": "",
          "type": "address[]"
        }
      ],
      "stateMutability": "view",
      "type": "function",
      "constant": true
    },
    {
      "inputs": [
        {
          "internalType": "bytes32",
          "name": "uid",
          "type": "bytes32"
        },
        {
          "internalType": "uint256",
          "name": "time",
          "type": "uint256"
        }
      ],
      "name": "get_user_txn",
      "outputs": [
        {
          "internalType": "address",
          "name": "",
          "type": "address"
        }
      ],
      "stateMutability": "view",
      "type": "function",
      "constant": true
    },
    {
      "inputs": [
        {
          "internalType": "contract LeaseTransaction",
          "name": "lt",
          "type": "address"
        },
        {
          "internalType": "bytes32",
          "name": "uid",
          "type": "bytes32"
        },
        {
          "internalType": "uint256",
          "name": "time",
          "type": "uint256"
        }
      ],
      "name": "add_user_txn",
      "outputs": [],
      "stateMutability": "nonpayable",
      "type": "function"
    }
  ],
  "bytecode": "0x608060405234801561001057600080fd5b506104b1806100206000396000f3fe608060405234801561001057600080fd5b50600436106100415760003560e01c8063855a818e14610046578063921067fa14610111578063f11c43c414610189575b600080fd5b6100726004803603602081101561005c57600080fd5b81019080803590602001909291905050506101e1565b604051808060200180602001838103835285818151815260200191508051906020019060200280838360005b838110156100b957808201518184015260208101905061009e565b50505050905001838103825284818151815260200191508051906020019060200280838360005b838110156100fb5780820151818401526020810190506100e0565b5050505090500194505050505060405180910390f35b6101476004803603604081101561012757600080fd5b810190808035906020019092919080359060200190929190505050610363565b604051808273ffffffffffffffffffffffffffffffffffffffff1673ffffffffffffffffffffffffffffffffffffffff16815260200191505060405180910390f35b6101df6004803603606081101561019f57600080fd5b81019080803573ffffffffffffffffffffffffffffffffffffffff16906020019092919080359060200190929190803590602001909291905050506103b1565b005b60608060606001600085815260200190815260200160002080548060200260200160405190810160405280929190818152602001828054801561024357602002820191906000526020600020905b81548152602001906001019080831161022f575b505050505090506060815167ffffffffffffffff8111801561026457600080fd5b506040519080825280602002602001820160405280156102935781602001602082028036833780820191505090505b50905060008090505b82518110156103555760008382815181106102b357fe5b60200260200101519050600080888152602001908152602001600020600082815260200190815260200160002060009054906101000a900473ffffffffffffffffffffffffffffffffffffffff1683838151811061030d57fe5b602002602001019073ffffffffffffffffffffffffffffffffffffffff16908173ffffffffffffffffffffffffffffffffffffffff168152505050808060010191505061029c565b508181935093505050915091565b6000806000848152602001908152602001600020600083815260200190815260200160002060009054906101000a900473ffffffffffffffffffffffffffffffffffffffff16905092915050565b60028290806001815401808255809150506001900390600052602060002001600090919091909150556001600083815260200190815260200160002081908060018154018082558091505060019003906000526020600020016000909190919091505582600080848152602001908152602001600020600083815260200190815260200160002060006101000a81548173ffffffffffffffffffffffffffffffffffffffff021916908373ffffffffffffffffffffffffffffffffffffffff16021790555050505056fea2646970667358221220cae0eba64a85b0e667c1d95d090857fc02aff9e749c4d59c6470155455d7986564736f6c63430006060033",
  "immutableReferences": {},
  "source": "pragma solidity >=0.4.22 <0.8.0;\r\nimport \"./LeaseTransaction.sol\";\r\nimport \"./User.sol\";\r\n\r\ncontract TransactionManager {\r\n    mapping(bytes32 => mapping(uint256 => LeaseTransaction)) private user_txns; //用戶租交易\r\n    mapping(bytes32 => uint256[]) private user_txn_list; //用戶所有交易集合\r\n    bytes32[] private user_list; //使用者名稱集合\r\n\r\n    function get_user_all_txns(bytes32 uid)\r\n        public\r\n        view\r\n        returns (uint256[] memory, address[] memory)\r\n    {\r\n        uint256[] memory txn_times = user_txn_list[uid];\r\n        address[] memory txn_addrs = new address[](txn_times.length);\r\n        for (uint256 i = 0; i < txn_times.length; i++) {\r\n            uint256 time = txn_times[i];\r\n            txn_addrs[i] = address(user_txns[uid][time]);\r\n        }\r\n        return (txn_times, txn_addrs);\r\n    }\r\n\r\n    function get_user_txn(bytes32 uid, uint256 time)\r\n        public\r\n        view\r\n        returns (address)\r\n    {\r\n        return address(user_txns[uid][time]);\r\n    }\r\n\r\n    function add_user_txn(\r\n        LeaseTransaction lt,\r\n        bytes32 uid,\r\n        uint256 time\r\n    ) public {\r\n        user_list.push(uid);\r\n        user_txn_list[uid].push(time);\r\n        user_txns[uid][time] = lt;\r\n    }\r\n}\r\n",
  "sourcePath": "C:\\Users\\User\\Desktop\\ethereum-platform\\contracts\\TransactionManager.sol",
  "compiler": {
    "name": "solc",
    "version": "0.6.6+commit.6c089d02.Emscripten.clang"
  },
  "schemaVersion": "3.2.4",
  "updatedAt": "2020-09-22T09:46:39.564Z",
  "networkType": "ethereum",
  "devdoc": {
    "methods": {}
  },
  "userdoc": {
    "methods": {}
  }
}