{
  "contractName": "TransactionManager",
  "abi": [
    {
      "inputs": [
        {
          "internalType": "bytes32",
          "name": "uid",
          "type": "bytes32"
        }
      ],
      "name": "get_user_all_txns",
      "outputs": [
        {
          "internalType": "uint256[]",
          "name": "",
          "type": "uint256[]"
        },
        {
          "internalType": "address[]",
          "name": "",
          "type": "address[]"
        }
      ],
      "stateMutability": "view",
      "type": "function",
      "constant": true
    },
    {
      "inputs": [
        {
          "internalType": "bytes32",
          "name": "uid",
          "type": "bytes32"
        },
        {
          "internalType": "uint256",
          "name": "time",
          "type": "uint256"
        }
      ],
      "name": "get_user_txn",
      "outputs": [
        {
          "internalType": "address",
          "name": "",
          "type": "address"
        }
      ],
      "stateMutability": "view",
      "type": "function",
      "constant": true
    },
    {
      "inputs": [
        {
          "internalType": "bytes32",
          "name": "uid",
          "type": "bytes32"
        }
      ],
      "name": "add_user",
      "outputs": [],
      "stateMutability": "nonpayable",
      "type": "function"
    },
    {
      "inputs": [
        {
          "internalType": "contract LeaseTransaction",
          "name": "lt",
          "type": "address"
        },
        {
          "internalType": "bytes32",
          "name": "uid",
          "type": "bytes32"
        },
        {
          "internalType": "uint256",
          "name": "time",
          "type": "uint256"
        }
      ],
      "name": "add_user_txn",
      "outputs": [],
      "stateMutability": "nonpayable",
      "type": "function"
    }
  ],
  "bytecode": "0x608060405234801561001057600080fd5b506104ed806100206000396000f3fe608060405234801561001057600080fd5b506004361061004c5760003560e01c8063855a818e14610051578063921067fa1461011c5780639de7c58714610194578063f11c43c4146101c2575b600080fd5b61007d6004803603602081101561006757600080fd5b810190808035906020019092919050505061021a565b604051808060200180602001838103835285818151815260200191508051906020019060200280838360005b838110156100c45780820151818401526020810190506100a9565b50505050905001838103825284818151815260200191508051906020019060200280838360005b838110156101065780820151818401526020810190506100eb565b5050505090500194505050505060405180910390f35b6101526004803603604081101561013257600080fd5b81019080803590602001909291908035906020019092919050505061039c565b604051808273ffffffffffffffffffffffffffffffffffffffff1673ffffffffffffffffffffffffffffffffffffffff16815260200191505060405180910390f35b6101c0600480360360208110156101aa57600080fd5b81019080803590602001909291905050506103ea565b005b610218600480360360608110156101d857600080fd5b81019080803573ffffffffffffffffffffffffffffffffffffffff1690602001909291908035906020019092919080359060200190929190505050610416565b005b60608060606001600085815260200190815260200160002080548060200260200160405190810160405280929190818152602001828054801561027c57602002820191906000526020600020905b815481526020019060010190808311610268575b505050505090506060815167ffffffffffffffff8111801561029d57600080fd5b506040519080825280602002602001820160405280156102cc5781602001602082028036833780820191505090505b50905060008090505b825181101561038e5760008382815181106102ec57fe5b60200260200101519050600080888152602001908152602001600020600082815260200190815260200160002060009054906101000a900473ffffffffffffffffffffffffffffffffffffffff1683838151811061034657fe5b602002602001019073ffffffffffffffffffffffffffffffffffffffff16908173ffffffffffffffffffffffffffffffffffffffff16815250505080806001019150506102d5565b508181935093505050915091565b6000806000848152602001908152602001600020600083815260200190815260200160002060009054906101000a900473ffffffffffffffffffffffffffffffffffffffff16905092915050565b600281908060018154018082558091505060019003906000526020600020016000909190919091505550565b6001600083815260200190815260200160002081908060018154018082558091505060019003906000526020600020016000909190919091505582600080848152602001908152602001600020600083815260200190815260200160002060006101000a81548173ffffffffffffffffffffffffffffffffffffffff021916908373ffffffffffffffffffffffffffffffffffffffff16021790555050505056fea2646970667358221220bac31f1c9eb8a3483c337436d2b1fffb96c2d66a1cce23fe304fb54ed6ba01f864736f6c63430006060033",
  "source": "pragma solidity >=0.4.22 <0.8.0;\nimport \"./LeaseTransaction.sol\";\nimport \"./User.sol\";\n\ncontract TransactionManager {\n    mapping(bytes32 => mapping(uint256 => LeaseTransaction)) private user_txns; //用戶租交易\n    mapping(bytes32 => uint256[]) private user_txn_list; //用戶所有交易集合\n    bytes32[] private user_list; //使用者名稱集合\n\n    function get_user_all_txns(bytes32 uid)\n        public\n        view\n        returns (uint256[] memory, address[] memory)\n    {\n        uint256[] memory txn_times = user_txn_list[uid];\n        address[] memory txn_addrs = new address[](txn_times.length);\n        for (uint256 i = 0; i < txn_times.length; i++) {\n            uint256 time = txn_times[i];\n            txn_addrs[i] = address(user_txns[uid][time]);\n        }\n        return (txn_times, txn_addrs);\n    }\n\n    function get_user_txn(bytes32 uid, uint256 time)\n        public\n        view\n        returns (address)\n    {\n        return address(user_txns[uid][time]);\n    }\n\n    function add_user(bytes32 uid) public {\n        user_list.push(uid);\n    }\n\n    function add_user_txn(\n        LeaseTransaction lt,\n        bytes32 uid,\n        uint256 time\n    ) public {\n        user_txn_list[uid].push(time);\n        user_txns[uid][time] = lt;\n    }\n}\n",
  "sourcePath": "/Users/hongwei/Documents/Project/ethereum-platform/contracts/TransactionManager.sol",
  "compiler": {
    "name": "solc",
    "version": "0.6.6+commit.6c089d02.Emscripten.clang"
  },
  "schemaVersion": "3.0.20",
  "updatedAt": "2020-10-07T14:10:57.888Z",
  "networkType": "ethereum",
  "devdoc": {
    "methods": {}
  },
  "userdoc": {
    "methods": {}
  }
}