{
  "contractName": "UserAccount",
  "abi": [
    {
      "inputs": [
        {
          "internalType": "contract User",
          "name": "_owner",
          "type": "address"
        }
      ],
      "stateMutability": "nonpayable",
      "type": "constructor"
    },
    {
      "inputs": [],
      "name": "create_date",
      "outputs": [
        {
          "internalType": "uint256",
          "name": "",
          "type": "uint256"
        }
      ],
      "stateMutability": "view",
      "type": "function"
    },
    {
      "inputs": [],
      "name": "update_date",
      "outputs": [
        {
          "internalType": "uint256",
          "name": "",
          "type": "uint256"
        }
      ],
      "stateMutability": "view",
      "type": "function"
    },
    {
      "inputs": [
        {
          "internalType": "uint256",
          "name": "value",
          "type": "uint256"
        }
      ],
      "name": "set_balance",
      "outputs": [],
      "stateMutability": "nonpayable",
      "type": "function"
    },
    {
      "inputs": [],
      "name": "get_owner",
      "outputs": [
        {
          "internalType": "address",
          "name": "",
          "type": "address"
        }
      ],
      "stateMutability": "view",
      "type": "function"
    },
    {
      "inputs": [],
      "name": "get_balance",
      "outputs": [
        {
          "internalType": "uint256",
          "name": "",
          "type": "uint256"
        }
      ],
      "stateMutability": "view",
      "type": "function"
    },
    {
      "inputs": [
        {
          "internalType": "contract UserAccount",
          "name": "receive_account",
          "type": "address"
        },
        {
          "internalType": "uint256",
          "name": "value",
          "type": "uint256"
        }
      ],
      "name": "send_money",
      "outputs": [],
      "stateMutability": "nonpayable",
      "type": "function"
    },
    {
      "inputs": [
        {
          "internalType": "uint256",
          "name": "value",
          "type": "uint256"
        }
      ],
      "name": "receive_ether",
      "outputs": [],
      "stateMutability": "nonpayable",
      "type": "function"
    }
  ],
  "bytecode": "0x608060405234801561001057600080fd5b5060405161039f38038061039f8339818101604052602081101561003357600080fd5b8101908080519060200190929190505050806000806101000a81548173ffffffffffffffffffffffffffffffffffffffff021916908373ffffffffffffffffffffffffffffffffffffffff1602179055504260028190555042600381905550506102fd806100a26000396000f3fe608060405234801561001057600080fd5b506004361061007d5760003560e01c806331d7fbb91161005b57806331d7fbb9146101185780636add0acf14610136578063ac7d7a3c14610164578063c1cfb99a146101b25761007d565b806308700f6d146100825780630ac298dc146100b057806325b49d49146100fa575b600080fd5b6100ae6004803603602081101561009857600080fd5b81019080803590602001909291905050506101d0565b005b6100b86101ea565b604051808273ffffffffffffffffffffffffffffffffffffffff1673ffffffffffffffffffffffffffffffffffffffff16815260200191505060405180910390f35b610102610213565b6040518082815260200191505060405180910390f35b610120610219565b6040518082815260200191505060405180910390f35b6101626004803603602081101561014c57600080fd5b810190808035906020019092919050505061021f565b005b6101b06004803603604081101561017a57600080fd5b81019080803573ffffffffffffffffffffffffffffffffffffffff16906020019092919080359060200190929190505050610229565b005b6101ba610237565b6040518082815260200191505060405180910390f35b806001600082825401925050819055504260038190555050565b60008060009054906101000a900473ffffffffffffffffffffffffffffffffffffffff16905090565b60035481565b60025481565b8060018190555050565b6102338282610241565b5050565b6000600154905090565b806001600082825403925050819055508173ffffffffffffffffffffffffffffffffffffffff166308700f6d826040518263ffffffff1660e01b815260040180828152602001915050600060405180830381600087803b1580156102a457600080fd5b505af11580156102b8573d6000803e3d6000fd5b5050505042600381905550505056fea2646970667358221220ade63961b038d4bffbfd2c81da3765006f777be3cdf7233ea5e06435a85f284864736f6c63430006060033",
  "immutableReferences": {},
  "source": "pragma solidity >=0.4.22 <0.8.0;\r\nimport \"./User.sol\";\r\n\r\ncontract UserAccount {\r\n    User owner;\r\n    uint256 private balance;\r\n    uint256 public create_date;\r\n    uint256 public update_date;\r\n\r\n    constructor(User _owner) public {\r\n        owner = _owner;\r\n        create_date = now;\r\n        update_date = now;\r\n    }\r\n\r\n    function set_balance(uint256 value) public {\r\n        balance = value;\r\n    }\r\n\r\n    function get_owner() public view returns (address) {\r\n        return address(owner);\r\n    }\r\n\r\n    function get_balance() public view returns (uint256) {\r\n        return balance;\r\n    }\r\n\r\n    function send_money(UserAccount receive_account, uint256 value) public {\r\n        // require(value > 0);\r\n        // require(balance >= value, \"out of balance\");\r\n\r\n        transfer_ether(receive_account, value);\r\n    }\r\n\r\n    function transfer_ether(UserAccount receive_account, uint256 value)\r\n        private\r\n    {\r\n        balance -= value;\r\n        receive_account.receive_ether(value);\r\n        update_date = now;\r\n    }\r\n\r\n    function receive_ether(uint256 value) public {\r\n        balance += value;\r\n        update_date = now;\r\n    }\r\n}\r\n",
  "sourcePath": "C:\\Users\\User\\Desktop\\ethereum-platform\\contracts\\UserAccount.sol",
  "compiler": {
    "name": "solc",
    "version": "0.6.6+commit.6c089d02.Emscripten.clang"
  },
  "schemaVersion": "3.2.4",
  "updatedAt": "2020-09-22T09:46:35.540Z",
  "devdoc": {
    "methods": {}
  },
  "userdoc": {
    "methods": {}
  }
}