{
  "contractName": "UserManager",
  "abi": [
    {
      "inputs": [],
      "name": "get_user_list",
      "outputs": [
        {
          "internalType": "bytes32[]",
          "name": "",
          "type": "bytes32[]"
        },
        {
          "internalType": "address[]",
          "name": "",
          "type": "address[]"
        }
      ],
      "stateMutability": "view",
      "type": "function",
      "constant": true
    },
    {
      "inputs": [
        {
          "internalType": "bytes32",
          "name": "uid",
          "type": "bytes32"
        },
        {
          "internalType": "address",
          "name": "user",
          "type": "address"
        }
      ],
      "name": "add_user",
      "outputs": [],
      "stateMutability": "nonpayable",
      "type": "function"
    },
    {
      "inputs": [
        {
          "internalType": "bytes32",
          "name": "uid",
          "type": "bytes32"
        }
      ],
      "name": "get_user",
      "outputs": [
        {
          "internalType": "address",
          "name": "",
          "type": "address"
        },
        {
          "internalType": "bytes32",
          "name": "",
          "type": "bytes32"
        },
        {
          "internalType": "bytes32",
          "name": "",
          "type": "bytes32"
        }
      ],
      "stateMutability": "view",
      "type": "function",
      "constant": true
    }
  ],
  "bytecode": "0x608060405234801561001057600080fd5b50610622806100206000396000f3fe608060405234801561001057600080fd5b50600436106100415760003560e01c80631101bfcf1461004657806360368e9f146100ed578063747fa91b14610169575b600080fd5b61004e6101b7565b604051808060200180602001838103835285818151815260200191508051906020019060200280838360005b8381101561009557808201518184015260208101905061007a565b50505050905001838103825284818151815260200191508051906020019060200280838360005b838110156100d75780820151818401526020810190506100bc565b5050505090500194505050505060405180910390f35b6101196004803603602081101561010357600080fd5b81019080803590602001909291905050506103f9565b604051808473ffffffffffffffffffffffffffffffffffffffff1673ffffffffffffffffffffffffffffffffffffffff168152602001838152602001828152602001935050505060405180910390f35b6101b56004803603604081101561017f57600080fd5b8101908080359060200190929190803573ffffffffffffffffffffffffffffffffffffffff16906020019092919050505061056e565b005b606080606060018054905067ffffffffffffffff811180156101d857600080fd5b506040519080825280602002602001820160405280156102075781602001602082028036833780820191505090505b509050606060018054905067ffffffffffffffff8111801561022857600080fd5b506040519080825280602002602001820160405280156102575781602001602082028036833780820191505090505b50905060008090505b6001805490508110156103ec576000806001838154811061027d57fe5b9060005260206000200154815260200190815260200160002060009054906101000a900473ffffffffffffffffffffffffffffffffffffffff168382815181106102c357fe5b602002602001019073ffffffffffffffffffffffffffffffffffffffff16908173ffffffffffffffffffffffffffffffffffffffff16815250506000806001838154811061030d57fe5b9060005260206000200154815260200190815260200160002060009054906101000a900473ffffffffffffffffffffffffffffffffffffffff1673ffffffffffffffffffffffffffffffffffffffff1663c0fbc7c56040518163ffffffff1660e01b815260040160206040518083038186803b15801561038c57600080fd5b505afa1580156103a0573d6000803e3d6000fd5b505050506040513d60208110156103b657600080fd5b81019080805190602001909291905050508282815181106103d357fe5b6020026020010181815250508080600101915050610260565b5080829350935050509091565b60008060008060008086815260200190815260200160002060009054906101000a900473ffffffffffffffffffffffffffffffffffffffff169050600073ffffffffffffffffffffffffffffffffffffffff168173ffffffffffffffffffffffffffffffffffffffff1614156104d7576040517f08c379a000000000000000000000000000000000000000000000000000000000815260040180806020018281038252600a8152602001807f6e6f74206578697374730000000000000000000000000000000000000000000081525060200191505060405180910390fd5b60008173ffffffffffffffffffffffffffffffffffffffff16633d5eb15f6040518163ffffffff1660e01b815260040160206040518083038186803b15801561051f57600080fd5b505afa158015610533573d6000803e3d6000fd5b505050506040513d602081101561054957600080fd5b8101908080519060200190929190505050905081868294509450945050509193909250565b8060008084815260200190815260200160002060006101000a81548173ffffffffffffffffffffffffffffffffffffffff021916908373ffffffffffffffffffffffffffffffffffffffff1602179055506001829080600181540180825580915050600190039060005260206000200160009091909190915055505056fea2646970667358221220d076e1bc04fd0551a5aabd0e231c86a90784420b27043ce9fc24baaf77b5781a64736f6c63430006060033",
  "source": "pragma solidity >=0.4.22 <0.8.0;\nimport \"./User.sol\";\n\ncontract UserManager {\n    mapping(bytes32 => User) private users; //使用者名稱對應使用者位址\n    bytes32[] private user_list; //使用者名稱集合\n\n    function get_user_list()\n        public\n        view\n        returns (bytes32[] memory, address[] memory)\n    {\n        address[] memory user_addrs = new address[](user_list.length);\n        bytes32[] memory uids = new bytes32[](user_list.length);\n\n        for (uint256 i = 0; i < user_list.length; i++) {\n            user_addrs[i] = address(users[user_list[i]]);\n            uids[i] = users[user_list[i]].get_uid();\n        }\n        return (uids, user_addrs);\n    }\n\n    function add_user(bytes32 uid, address user) public {\n        users[uid] = User(user);\n        user_list.push(uid);\n    }\n\n    function get_user(bytes32 uid)\n        public\n        view\n        returns (\n            address,\n            bytes32,\n            bytes32\n        )\n    {\n        User user = users[uid];\n        require(user != User(0), \"not exists\");\n        bytes32 password = user.get_password();\n\n        return (address(user), uid, password);\n    }\n}\n",
  "sourcePath": "/Users/hongwei/Documents/Project/ethereum-platform/contracts/UserManager.sol",
  "compiler": {
    "name": "solc",
    "version": "0.6.6+commit.6c089d02.Emscripten.clang"
  },
  "schemaVersion": "3.0.20",
  "updatedAt": "2020-09-28T09:39:04.837Z",
  "networkType": "ethereum",
  "devdoc": {
    "methods": {}
  },
  "userdoc": {
    "methods": {}
  }
}