{
  "contractName": "User",
  "abi": [
    {
      "inputs": [
        {
          "internalType": "address",
          "name": "_owner",
          "type": "address"
        },
        {
          "internalType": "bytes32",
          "name": "_name",
          "type": "bytes32"
        },
        {
          "internalType": "bytes32",
          "name": "_password",
          "type": "bytes32"
        }
      ],
      "payable": false,
      "stateMutability": "nonpayable",
      "type": "constructor"
    },
    {
      "constant": true,
      "inputs": [],
      "name": "owner",
      "outputs": [
        {
          "internalType": "address",
          "name": "",
          "type": "address"
        }
      ],
      "payable": false,
      "stateMutability": "view",
      "type": "function"
    },
    {
      "constant": true,
      "inputs": [],
      "name": "get_name",
      "outputs": [
        {
          "internalType": "bytes32",
          "name": "_name",
          "type": "bytes32"
        }
      ],
      "payable": false,
      "stateMutability": "view",
      "type": "function"
    },
    {
      "constant": false,
      "inputs": [
        {
          "internalType": "bytes32",
          "name": "_name",
          "type": "bytes32"
        }
      ],
      "name": "set_name",
      "outputs": [],
      "payable": false,
      "stateMutability": "nonpayable",
      "type": "function"
    },
    {
      "constant": true,
      "inputs": [],
      "name": "get_password",
      "outputs": [
        {
          "internalType": "bytes32",
          "name": "_password",
          "type": "bytes32"
        }
      ],
      "payable": false,
      "stateMutability": "view",
      "type": "function"
    },
    {
      "constant": false,
      "inputs": [
        {
          "internalType": "bytes32",
          "name": "_password",
          "type": "bytes32"
        }
      ],
      "name": "set_password",
      "outputs": [],
      "payable": false,
      "stateMutability": "nonpayable",
      "type": "function"
    }
  ],
  "bytecode": "0x608060405234801561001057600080fd5b506040516104113803806104118339818101604052606081101561003357600080fd5b81019080805190602001909291908051906020019092919080519060200190929190505050600073ffffffffffffffffffffffffffffffffffffffff168373ffffffffffffffffffffffffffffffffffffffff1614156100fb576040517f08c379a000000000000000000000000000000000000000000000000000000000815260040180806020018281038252600a8152602001807f4e656564206f776e65720000000000000000000000000000000000000000000081525060200191505060405180910390fd5b6000602060ff161415610176576040517f08c379a00000000000000000000000000000000000000000000000000000000081526004018080602001828103825260098152602001807f4e656564206e616d65000000000000000000000000000000000000000000000081525060200191505060405180910390fd5b6000602060ff1614156101f1576040517f08c379a000000000000000000000000000000000000000000000000000000000815260040180806020018281038252600d8152602001807f4e6565642070617373776f72640000000000000000000000000000000000000081525060200191505060405180910390fd5b826000806101000a81548173ffffffffffffffffffffffffffffffffffffffff021916908373ffffffffffffffffffffffffffffffffffffffff16021790555081600181905550806002819055505050506101c0806102516000396000f3fe608060405234801561001057600080fd5b50600436106100575760003560e01c80633a525c291461005c5780633d5eb15f1461007a5780637ba332e9146100985780638da5cb5b146100c6578063f850473a14610110575b600080fd5b61006461013e565b6040518082815260200191505060405180910390f35b610082610148565b6040518082815260200191505060405180910390f35b6100c4600480360360208110156100ae57600080fd5b8101908080359060200190929190505050610152565b005b6100ce61015c565b604051808273ffffffffffffffffffffffffffffffffffffffff1673ffffffffffffffffffffffffffffffffffffffff16815260200191505060405180910390f35b61013c6004803603602081101561012657600080fd5b8101908080359060200190929190505050610181565b005b6000600154905090565b6000600254905090565b8060018190555050565b6000809054906101000a900473ffffffffffffffffffffffffffffffffffffffff1681565b806002819055505056fea265627a7a72315820ba566668332703e6cd35a18e759c8d49f31a8cd6936b7ddddd9412bb29dc204164736f6c63430005100032",
  "source": "pragma solidity >=0.4.22 <0.8.0;\r\n\r\ncontract User {\r\n    address public owner;\r\n    bytes32 private name;\r\n    bytes32 private password;\r\n\r\n    modifier onlyOwner() {\r\n        require(msg.sender == owner);\r\n        _;\r\n    }\r\n\r\n    constructor(\r\n        address _owner,\r\n        bytes32 _name,\r\n        bytes32 _password\r\n    ) public {\r\n        require(_owner != address(0x0), \"Need owner\");\r\n        require(_name.length != 0, \"Need name\");\r\n        require(_password.length != 0, \"Need password\");\r\n\r\n        owner = _owner;\r\n        name = _name;\r\n        password = _password;\r\n    }\r\n\r\n    function get_name() public view returns (bytes32 _name) {\r\n        return name;\r\n    }\r\n\r\n    function set_name(bytes32 _name) public {\r\n        name = _name;\r\n    }\r\n\r\n    function get_password() public view returns (bytes32 _password) {\r\n        return password;\r\n    }\r\n\r\n    function set_password(bytes32 _password) public {\r\n        password = _password;\r\n    }\r\n}\r\n",
  "sourcePath": "D:\\Hongwei\\Project\\ethereum-platform\\contracts\\User.sol",
  "compiler": {
    "name": "solc",
    "version": "0.5.16+commit.9c3226ce.Emscripten.clang"
  },
  "schemaVersion": "3.2.3",
  "updatedAt": "2020-09-03T07:10:59.782Z",
  "devdoc": {
    "methods": {}
  },
  "userdoc": {
    "methods": {}
  }
}