{
  "contractName": "User",
  "abi": [
    {
      "inputs": [
        {
          "internalType": "bytes32",
          "name": "_uid",
          "type": "bytes32"
        },
        {
          "internalType": "bytes32",
          "name": "_password",
          "type": "bytes32"
        },
        {
          "internalType": "contract Global",
          "name": "g",
          "type": "address"
        }
      ],
      "stateMutability": "nonpayable",
      "type": "constructor"
    },
    {
      "inputs": [],
      "name": "get_uid",
      "outputs": [
        {
          "internalType": "bytes32",
          "name": "",
          "type": "bytes32"
        }
      ],
      "stateMutability": "view",
      "type": "function"
    },
    {
      "inputs": [],
      "name": "get_password",
      "outputs": [
        {
          "internalType": "bytes32",
          "name": "",
          "type": "bytes32"
        }
      ],
      "stateMutability": "view",
      "type": "function"
    },
    {
      "inputs": [
        {
          "internalType": "bytes32",
          "name": "_password",
          "type": "bytes32"
        }
      ],
      "name": "set_password",
      "outputs": [],
      "stateMutability": "nonpayable",
      "type": "function"
    },
    {
      "inputs": [],
      "name": "get_account",
      "outputs": [
        {
          "internalType": "address",
          "name": "",
          "type": "address"
        }
      ],
      "stateMutability": "view",
      "type": "function"
    },
    {
      "inputs": [
        {
          "internalType": "string",
          "name": "house_name",
          "type": "string"
        },
        {
          "internalType": "string",
          "name": "lon",
          "type": "string"
        },
        {
          "internalType": "string",
          "name": "lat",
          "type": "string"
        },
        {
          "internalType": "bytes32",
          "name": "lid",
          "type": "bytes32"
        }
      ],
      "name": "create_lease",
      "outputs": [],
      "stateMutability": "nonpayable",
      "type": "function"
    },
    {
      "inputs": [
        {
          "internalType": "uint256",
          "name": "action",
          "type": "uint256"
        },
        {
          "internalType": "address",
          "name": "action_user",
          "type": "address"
        },
        {
          "internalType": "address",
          "name": "lease",
          "type": "address"
        },
        {
          "internalType": "uint256",
          "name": "money",
          "type": "uint256"
        }
      ],
      "name": "create_lease_txn",
      "outputs": [],
      "stateMutability": "nonpayable",
      "type": "function"
    }
  ],
  "bytecode": "0x60806040523480156200001157600080fd5b50604051620035aa380380620035aa833981810160405260608110156200003757600080fd5b810190808051906020019092919080519060200190929190805190602001909291905050506000602060ff161415620000d8576040517f08c379a00000000000000000000000000000000000000000000000000000000081526004018080602001828103825260078152602001807f4e6565642069640000000000000000000000000000000000000000000000000081525060200191505060405180910390fd5b6000602060ff16141562000154576040517f08c379a000000000000000000000000000000000000000000000000000000000815260040180806020018281038252600d8152602001807f4e6565642070617373776f72640000000000000000000000000000000000000081525060200191505060405180910390fd5b60008173ffffffffffffffffffffffffffffffffffffffff1663d3388a1f6040518163ffffffff1660e01b815260040160206040518083038186803b1580156200019d57600080fd5b505afa158015620001b2573d6000803e3d6000fd5b505050506040513d6020811015620001c957600080fd5b8101908080519060200190929190505050905060008273ffffffffffffffffffffffffffffffffffffffff16637dd1bc256040518163ffffffff1660e01b815260040160206040518083038186803b1580156200022557600080fd5b505afa1580156200023a573d6000803e3d6000fd5b505050506040513d60208110156200025157600080fd5b8101908080519060200190929190505050905060008373ffffffffffffffffffffffffffffffffffffffff166368bb23ed6040518163ffffffff1660e01b815260040160206040518083038186803b158015620002ad57600080fd5b505afa158015620002c2573d6000803e3d6000fd5b505050506040513d6020811015620002d957600080fd5b8101908080519060200190929190505050905082600260006101000a81548173ffffffffffffffffffffffffffffffffffffffff021916908373ffffffffffffffffffffffffffffffffffffffff16021790555081600360006101000a81548173ffffffffffffffffffffffffffffffffffffffff021916908373ffffffffffffffffffffffffffffffffffffffff16021790555080600460006101000a81548173ffffffffffffffffffffffffffffffffffffffff021916908373ffffffffffffffffffffffffffffffffffffffff1602179055508560008190555084600181905550600260009054906101000a900473ffffffffffffffffffffffffffffffffffffffff1673ffffffffffffffffffffffffffffffffffffffff166325516f21600054306040516200040d9062000612565b808273ffffffffffffffffffffffffffffffffffffffff1673ffffffffffffffffffffffffffffffffffffffff168152602001915050604051809103906000f08015801562000460573d6000803e3d6000fd5b506040518363ffffffff1660e01b8152600401808381526020018273ffffffffffffffffffffffffffffffffffffffff1673ffffffffffffffffffffffffffffffffffffffff16815260200192505050600060405180830381600087803b158015620004cb57600080fd5b505af1158015620004e0573d6000803e3d6000fd5b50505050600360009054906101000a900473ffffffffffffffffffffffffffffffffffffffff1673ffffffffffffffffffffffffffffffffffffffff16639de7c5876000546040518263ffffffff1660e01b815260040180828152602001915050600060405180830381600087803b1580156200055c57600080fd5b505af115801562000571573d6000803e3d6000fd5b50505050600460009054906101000a900473ffffffffffffffffffffffffffffffffffffffff1673ffffffffffffffffffffffffffffffffffffffff16639de7c5876000546040518263ffffffff1660e01b815260040180828152602001915050600060405180830381600087803b158015620005ed57600080fd5b505af115801562000602573d6000803e3d6000fd5b5050505050505050505062000620565b6103ac80620031fe83390190565b612bce80620006306000396000f3fe60806040523480156200001157600080fd5b50600436106200006a5760003560e01c80633d5eb15f146200006f5780637bc693a8146200008f578063bb4c402a146200010a578063bca9e24c1462000156578063c0fbc7c51462000355578063f850473a1462000375575b600080fd5b62000079620003a6565b6040518082815260200191505060405180910390f35b6200010860048036036080811015620000a757600080fd5b8101908080359060200190929190803573ffffffffffffffffffffffffffffffffffffffff169060200190929190803573ffffffffffffffffffffffffffffffffffffffff16906020019092919080359060200190929190505050620003b0565b005b62000114620008c3565b604051808273ffffffffffffffffffffffffffffffffffffffff1673ffffffffffffffffffffffffffffffffffffffff16815260200191505060405180910390f35b62000353600480360360808110156200016e57600080fd5b81019080803590602001906401000000008111156200018c57600080fd5b8201836020820111156200019f57600080fd5b80359060200191846001830284011164010000000083111715620001c257600080fd5b91908080601f016020809104026020016040519081016040528093929190818152602001838380828437600081840152601f19601f820116905080830192505050505050509192919290803590602001906401000000008111156200022657600080fd5b8201836020820111156200023957600080fd5b803590602001918460018302840111640100000000831117156200025c57600080fd5b91908080601f016020809104026020016040519081016040528093929190818152602001838380828437600081840152601f19601f82011690508083019250505050505050919291929080359060200190640100000000811115620002c057600080fd5b820183602082011115620002d357600080fd5b80359060200191846001830284011164010000000083111715620002f657600080fd5b91908080601f016020809104026020016040519081016040528093929190818152602001838380828437600081840152601f19601f820116905080830192505050505050509192919290803590602001909291905050506200097d565b005b6200035f62000c08565b6040518082815260200191505060405180910390f35b620003a4600480360360208110156200038d57600080fd5b810190808035906020019092919050505062000c11565b005b6000600154905090565b60008042905060018614156200052d57303086868685600260009054906101000a900473ffffffffffffffffffffffffffffffffffffffff16604051620003f79062000c1b565b808873ffffffffffffffffffffffffffffffffffffffff1673ffffffffffffffffffffffffffffffffffffffff1681526020018773ffffffffffffffffffffffffffffffffffffffff1673ffffffffffffffffffffffffffffffffffffffff1681526020018673ffffffffffffffffffffffffffffffffffffffff1673ffffffffffffffffffffffffffffffffffffffff1681526020018573ffffffffffffffffffffffffffffffffffffffff1673ffffffffffffffffffffffffffffffffffffffff1681526020018481526020018381526020018273ffffffffffffffffffffffffffffffffffffffff1673ffffffffffffffffffffffffffffffffffffffff168152602001975050505050505050604051809103906000f08015801562000524573d6000803e3d6000fd5b509150620006a0565b60028614156200069f57308530868685600260009054906101000a900473ffffffffffffffffffffffffffffffffffffffff166040516200056e9062000c1b565b808873ffffffffffffffffffffffffffffffffffffffff1673ffffffffffffffffffffffffffffffffffffffff1681526020018773ffffffffffffffffffffffffffffffffffffffff1673ffffffffffffffffffffffffffffffffffffffff1681526020018673ffffffffffffffffffffffffffffffffffffffff1673ffffffffffffffffffffffffffffffffffffffff1681526020018573ffffffffffffffffffffffffffffffffffffffff1673ffffffffffffffffffffffffffffffffffffffff1681526020018481526020018381526020018273ffffffffffffffffffffffffffffffffffffffff1673ffffffffffffffffffffffffffffffffffffffff168152602001975050505050505050604051809103906000f0801580156200069b573d6000803e3d6000fd5b5091505b5b600460009054906101000a900473ffffffffffffffffffffffffffffffffffffffff1673ffffffffffffffffffffffffffffffffffffffff1663f11c43c483600054846040518463ffffffff1660e01b8152600401808473ffffffffffffffffffffffffffffffffffffffff1673ffffffffffffffffffffffffffffffffffffffff1681526020018381526020018281526020019350505050600060405180830381600087803b1580156200075457600080fd5b505af115801562000769573d6000803e3d6000fd5b50505050600460009054906101000a900473ffffffffffffffffffffffffffffffffffffffff1673ffffffffffffffffffffffffffffffffffffffff1663f11c43c4838773ffffffffffffffffffffffffffffffffffffffff1663c0fbc7c56040518163ffffffff1660e01b815260040160206040518083038186803b158015620007f357600080fd5b505afa15801562000808573d6000803e3d6000fd5b505050506040513d60208110156200081f57600080fd5b8101908080519060200190929190505050846040518463ffffffff1660e01b8152600401808473ffffffffffffffffffffffffffffffffffffffff1673ffffffffffffffffffffffffffffffffffffffff1681526020018381526020018281526020019350505050600060405180830381600087803b158015620008a257600080fd5b505af1158015620008b7573d6000803e3d6000fd5b50505050505050505050565b6000600260009054906101000a900473ffffffffffffffffffffffffffffffffffffffff1673ffffffffffffffffffffffffffffffffffffffff16633a4f78306000546040518263ffffffff1660e01b81526004018082815260200191505060206040518083038186803b1580156200093b57600080fd5b505afa15801562000950573d6000803e3d6000fd5b505050506040513d60208110156200096757600080fd5b8101908080519060200190929190505050905090565b600030858585604051620009919062000c29565b808573ffffffffffffffffffffffffffffffffffffffff1673ffffffffffffffffffffffffffffffffffffffff168152602001806020018060200180602001848103845287818151815260200191508051906020019080838360005b8381101562000a0a578082015181840152602081019050620009ed565b50505050905090810190601f16801562000a385780820380516001836020036101000a031916815260200191505b50848103835286818151815260200191508051906020019080838360005b8381101562000a7357808201518184015260208101905062000a56565b50505050905090810190601f16801562000aa15780820380516001836020036101000a031916815260200191505b50848103825285818151815260200191508051906020019080838360005b8381101562000adc57808201518184015260208101905062000abf565b50505050905090810190601f16801562000b0a5780820380516001836020036101000a031916815260200191505b50975050505050505050604051809103906000f08015801562000b31573d6000803e3d6000fd5b509050600360009054906101000a900473ffffffffffffffffffffffffffffffffffffffff1673ffffffffffffffffffffffffffffffffffffffff16630655243582600054856040518463ffffffff1660e01b8152600401808473ffffffffffffffffffffffffffffffffffffffff1673ffffffffffffffffffffffffffffffffffffffff1681526020018381526020018281526020019350505050600060405180830381600087803b15801562000be857600080fd5b505af115801562000bfd573d6000803e3d6000fd5b505050505050505050565b60008054905090565b8060018190555050565b610fe08062000c3883390190565b610f818062001c188339019056fe60806040526000600560006101000a81548160ff0219169083151502179055506000600560016101000a81548160ff0219169083151502179055506000600560026101000a81548160ff02191690831515021790555034801561006157600080fd5b50604051610fe0380380610fe0833981810160405260e081101561008457600080fd5b8101908080519060200190929190805190602001909291908051906020019092919080519060200190929190805190602001909291908051906020019092919080519060200190929190505050866000806101000a81548173ffffffffffffffffffffffffffffffffffffffff021916908373ffffffffffffffffffffffffffffffffffffffff16021790555085600160006101000a81548173ffffffffffffffffffffffffffffffffffffffff021916908373ffffffffffffffffffffffffffffffffffffffff16021790555084600260006101000a81548173ffffffffffffffffffffffffffffffffffffffff021916908373ffffffffffffffffffffffffffffffffffffffff16021790555083600360006101000a81548173ffffffffffffffffffffffffffffffffffffffff021916908373ffffffffffffffffffffffffffffffffffffffff160217905550826004819055508160068190555080600860006101000a81548173ffffffffffffffffffffffffffffffffffffffff021916908373ffffffffffffffffffffffffffffffffffffffff16021790555050505050505050610da7806102396000396000f3fe608060405234801561001057600080fd5b50600436106100885760003560e01c8063730a9c691161005b578063730a9c691461021157806387cbd81d14610270578063ab2f2637146102cf578063e64553e0146102f157610088565b806306010a481461008d578063284d0e68146100ec57806360f936ba1461010a57806367e404ce146101c7575b600080fd5b610095610335565b6040518080602001828103825283818151815260200191508051906020019060200280838360005b838110156100d85780820151818401526020810190506100bd565b505050509050019250505060405180910390f35b6100f46103c1565b6040518082815260200191505060405180910390f35b61014c6004803603602081101561012057600080fd5b81019080803573ffffffffffffffffffffffffffffffffffffffff1690602001909291905050506103cb565b6040518080602001828103825283818151815260200191508051906020019080838360005b8381101561018c578082015181840152602081019050610171565b50505050905090810190601f1680156101b95780820380516001836020036101000a031916815260200191505b509250505060405180910390f35b6101cf61058d565b604051808273ffffffffffffffffffffffffffffffffffffffff1673ffffffffffffffffffffffffffffffffffffffff16815260200191505060405180910390f35b6102196105b2565b6040518080602001828103825283818151815260200191508051906020019060200280838360005b8381101561025c578082015181840152602081019050610241565b505050509050019250505060405180910390f35b610278610693565b6040518080602001828103825283818151815260200191508051906020019060200280838360005b838110156102bb5780820151818401526020810190506102a0565b505050509050019250505060405180910390f35b6102d761088e565b604051808215151515815260200191505060405180910390f35b6103336004803603602081101561030757600080fd5b81019080803573ffffffffffffffffffffffffffffffffffffffff169060200190929190505050610911565b005b606080600267ffffffffffffffff8111801561035057600080fd5b5060405190808252806020026020018201604052801561037f5781602001602082028036833780820191505090505b5090506006548160008151811061039257fe5b602002602001018181525050600754816001815181106103ae57fe5b6020026020010181815250508091505090565b6000600454905090565b606080600160009054906101000a900473ffffffffffffffffffffffffffffffffffffffff1673ffffffffffffffffffffffffffffffffffffffff168373ffffffffffffffffffffffffffffffffffffffff161415610461576040518060400160405280600681526020017fe7a79fe696b900000000000000000000000000000000000000000000000000008152509050610584565b600260009054906101000a900473ffffffffffffffffffffffffffffffffffffffff1673ffffffffffffffffffffffffffffffffffffffff168373ffffffffffffffffffffffffffffffffffffffff1614156104f4576040518060400160405280600681526020017fe5809fe696b900000000000000000000000000000000000000000000000000008152509050610583565b6000809054906101000a900473ffffffffffffffffffffffffffffffffffffffff1673ffffffffffffffffffffffffffffffffffffffff168373ffffffffffffffffffffffffffffffffffffffff161415610582576040518060400160405280600f81526020017fe4baa4e69893e799bce8b5b7e696b9000000000000000000000000000000000081525090505b5b5b80915050919050565b6000809054906101000a900473ffffffffffffffffffffffffffffffffffffffff1681565b606080600367ffffffffffffffff811180156105cd57600080fd5b506040519080825280602002602001820160405280156105fc5781602001602082028036833780820191505090505b509050600560009054906101000a900460ff168160008151811061061c57fe5b602002602001019015159081151581525050600560019054906101000a900460ff168160018151811061064b57fe5b602002602001019015159081151581525050600560029054906101000a900460ff168160028151811061067a57fe5b6020026020010190151590811515815250508091505090565b606080600467ffffffffffffffff811180156106ae57600080fd5b506040519080825280602002602001820160405280156106dd5781602001602082028036833780820191505090505b5090506000809054906101000a900473ffffffffffffffffffffffffffffffffffffffff168160008151811061070f57fe5b602002602001019073ffffffffffffffffffffffffffffffffffffffff16908173ffffffffffffffffffffffffffffffffffffffff1681525050600160009054906101000a900473ffffffffffffffffffffffffffffffffffffffff168160018151811061077957fe5b602002602001019073ffffffffffffffffffffffffffffffffffffffff16908173ffffffffffffffffffffffffffffffffffffffff1681525050600260009054906101000a900473ffffffffffffffffffffffffffffffffffffffff16816002815181106107e357fe5b602002602001019073ffffffffffffffffffffffffffffffffffffffff16908173ffffffffffffffffffffffffffffffffffffffff1681525050600360009054906101000a900473ffffffffffffffffffffffffffffffffffffffff168160038151811061084d57fe5b602002602001019073ffffffffffffffffffffffffffffffffffffffff16908173ffffffffffffffffffffffffffffffffffffffff16815250508091505090565b6000600560029054906101000a900460ff161580156108b95750600560009054906101000a900460ff165b80156108d15750600560019054906101000a900460ff165b15610909576108de610a24565b426007819055506001600560026101000a81548160ff0219169083151502179055506001905061090e565b600090505b90565b6000809050600160009054906101000a900473ffffffffffffffffffffffffffffffffffffffff1673ffffffffffffffffffffffffffffffffffffffff168273ffffffffffffffffffffffffffffffffffffffff16141561097557600190506109d1565b600260009054906101000a900473ffffffffffffffffffffffffffffffffffffffff1673ffffffffffffffffffffffffffffffffffffffff168273ffffffffffffffffffffffffffffffffffffffff1614156109d057600290505b5b60018114156109fa576001600560006101000a81548160ff021916908315150217905550610a20565b6002811415610a1f576001600560016101000a81548160ff0219169083151502179055505b5b5050565b6000600860009054906101000a900473ffffffffffffffffffffffffffffffffffffffff1673ffffffffffffffffffffffffffffffffffffffff16633a4f7830600160009054906101000a900473ffffffffffffffffffffffffffffffffffffffff1673ffffffffffffffffffffffffffffffffffffffff1663c0fbc7c56040518163ffffffff1660e01b815260040160206040518083038186803b158015610acc57600080fd5b505afa158015610ae0573d6000803e3d6000fd5b505050506040513d6020811015610af657600080fd5b81019080805190602001909291905050506040518263ffffffff1660e01b81526004018082815260200191505060206040518083038186803b158015610b3b57600080fd5b505afa158015610b4f573d6000803e3d6000fd5b505050506040513d6020811015610b6557600080fd5b810190808051906020019092919050505090506000600860009054906101000a900473ffffffffffffffffffffffffffffffffffffffff1673ffffffffffffffffffffffffffffffffffffffff16633a4f7830600260009054906101000a900473ffffffffffffffffffffffffffffffffffffffff1673ffffffffffffffffffffffffffffffffffffffff1663c0fbc7c56040518163ffffffff1660e01b815260040160206040518083038186803b158015610c2057600080fd5b505afa158015610c34573d6000803e3d6000fd5b505050506040513d6020811015610c4a57600080fd5b81019080805190602001909291905050506040518263ffffffff1660e01b81526004018082815260200191505060206040518083038186803b158015610c8f57600080fd5b505afa158015610ca3573d6000803e3d6000fd5b505050506040513d6020811015610cb957600080fd5b810190808051906020019092919050505090508173ffffffffffffffffffffffffffffffffffffffff1663ac7d7a3c826004546040518363ffffffff1660e01b8152600401808373ffffffffffffffffffffffffffffffffffffffff1673ffffffffffffffffffffffffffffffffffffffff16815260200182815260200192505050600060405180830381600087803b158015610d5557600080fd5b505af1158015610d69573d6000803e3d6000fd5b50505050505056fea264697066735822122014b7270704089f2920b2e9d546845ce93aa8cbd2162be6ca6f8be4d86a3301d164736f6c6343000606003360806040523480156200001157600080fd5b5060405162000f8138038062000f81833981810160405260808110156200003757600080fd5b8101908080519060200190929190805160405193929190846401000000008211156200006257600080fd5b838201915060208201858111156200007957600080fd5b82518660018202830111640100000000821117156200009757600080fd5b8083526020830192505050908051906020019080838360005b83811015620000cd578082015181840152602081019050620000b0565b50505050905090810190601f168015620000fb5780820380516001836020036101000a031916815260200191505b50604052602001805160405193929190846401000000008211156200011f57600080fd5b838201915060208201858111156200013657600080fd5b82518660018202830111640100000000821117156200015457600080fd5b8083526020830192505050908051906020019080838360005b838110156200018a5780820151818401526020810190506200016d565b50505050905090810190601f168015620001b85780820380516001836020036101000a031916815260200191505b5060405260200180516040519392919084640100000000821115620001dc57600080fd5b83820191506020820185811115620001f357600080fd5b82518660018202830111640100000000821117156200021157600080fd5b8083526020830192505050908051906020019080838360005b83811015620002475780820151818401526020810190506200022a565b50505050905090810190601f168015620002755780820380516001836020036101000a031916815260200191505b50604052505050836000806101000a81548173ffffffffffffffffffffffffffffffffffffffff021916908373ffffffffffffffffffffffffffffffffffffffff1602179055508260019080519060200190620002d492919062000311565b508160099080519060200190620002ed92919062000311565b5080600890805190602001906200030692919062000311565b5050505050620003c0565b828054600181600116156101000203166002900490600052602060002090601f016020900481019282601f106200035457805160ff191683800117855562000385565b8280016001018555821562000385579182015b828111156200038457825182559160200191906001019062000367565b5b50905062000394919062000398565b5090565b620003bd91905b80821115620003b95760008160009055506001016200039f565b5090565b90565b610bb180620003d06000396000f3fe608060405234801561001057600080fd5b50600436106100625760003560e01c80633e1f5d3f146100675780634b5176e6146101b95780635fbd6ad1146103da57806382996d9f1461054a57806386d1a69f14610554578063c30d7ad51461055e575b600080fd5b6101b76004803603604081101561007d57600080fd5b810190808035906020019064010000000081111561009a57600080fd5b8201836020820111156100ac57600080fd5b803590602001918460018302840111640100000000831117156100ce57600080fd5b91908080601f016020809104026020016040519081016040528093929190818152602001838380828437600081840152601f19601f8201169050808301925050505050505091929192908035906020019064010000000081111561013157600080fd5b82018360208201111561014357600080fd5b8035906020019184600183028401116401000000008311171561016557600080fd5b91908080601f016020809104026020016040519081016040528093929190818152602001838380828437600081840152601f19601f82011690508083019250505050505050919291929050505061058c565b005b6101c16105be565b604051808b73ffffffffffffffffffffffffffffffffffffffff1673ffffffffffffffffffffffffffffffffffffffff16815260200180602001806020018a151515158152602001898152602001888152602001878152602001868152602001806020018060200185810385528e818151815260200191508051906020019080838360005b83811015610261578082015181840152602081019050610246565b50505050905090810190601f16801561028e5780820380516001836020036101000a031916815260200191505b5085810384528d818151815260200191508051906020019080838360005b838110156102c75780820151818401526020810190506102ac565b50505050905090810190601f1680156102f45780820380516001836020036101000a031916815260200191505b50858103835287818151815260200191508051906020019080838360005b8381101561032d578082015181840152602081019050610312565b50505050905090810190601f16801561035a5780820380516001836020036101000a031916815260200191505b50858103825286818151815260200191508051906020019080838360005b83811015610393578082015181840152602081019050610378565b50505050905090810190601f1680156103c05780820380516001836020036101000a031916815260200191505b509e50505050505050505050505050505060405180910390f35b610548600480360360a08110156103f057600080fd5b810190808035906020019064010000000081111561040d57600080fd5b82018360208201111561041f57600080fd5b8035906020019184600183028401116401000000008311171561044157600080fd5b91908080601f016020809104026020016040519081016040528093929190818152602001838380828437600081840152601f19601f820116905080830192505050505050509192919290803590602001906401000000008111156104a457600080fd5b8201836020820111156104b657600080fd5b803590602001918460018302840111640100000000831117156104d857600080fd5b91908080601f016020809104026020016040519081016040528093929190818152602001838380828437600081840152601f19601f8201169050808301925050505050505091929192908035906020019092919080359060200190929190803590602001909291905050506108aa565b005b610552610a80565b005b61055c610a9d565b005b61058a6004803603602081101561057457600080fd5b8101908080359060200190929190505050610aba565b005b81600990805190602001906105a2929190610ad6565b5080600890805190602001906105b9929190610ad6565b505050565b6000606080600080600080600060608060008060009054906101000a900473ffffffffffffffffffffffffffffffffffffffff1690508060016002600360009054906101000a900460ff1660045460055460065460075460096008888054600181600116156101000203166002900480601f0160208091040260200160405190810160405280929190818152602001828054600181600116156101000203166002900480156106ae5780601f10610683576101008083540402835291602001916106ae565b820191906000526020600020905b81548152906001019060200180831161069157829003601f168201915b50505050509850878054600181600116156101000203166002900480601f01602080910402602001604051908101604052809291908181526020018280546001816001161561010002031660029004801561074a5780601f1061071f5761010080835404028352916020019161074a565b820191906000526020600020905b81548152906001019060200180831161072d57829003601f168201915b50505050509750818054600181600116156101000203166002900480601f0160208091040260200160405190810160405280929190818152602001828054600181600116156101000203166002900480156107e65780601f106107bb576101008083540402835291602001916107e6565b820191906000526020600020905b8154815290600101906020018083116107c957829003601f168201915b50505050509150808054600181600116156101000203166002900480601f0160208091040260200160405190810160405280929190818152602001828054600181600116156101000203166002900480156108825780601f1061085757610100808354040283529160200191610882565b820191906000526020600020905b81548152906001019060200180831161086557829003601f168201915b505050505090509a509a509a509a509a509a509a509a509a509a505090919293949596979899565b6000855114156109545760018054600181600116156101000203166002900480601f01602080910402602001604051908101604052809291908181526020018280546001816001161561010002031660029004801561094a5780601f1061091f5761010080835404028352916020019161094a565b820191906000526020600020905b81548152906001019060200180831161092d57829003601f168201915b5050505050610956565b845b6001908051906020019061096b929190610ad6565b50600084511415610a165760028054600181600116156101000203166002900480601f016020809104026020016040519081016040528092919081815260200182805460018160011615610100020316600290048015610a0c5780601f106109e157610100808354040283529160200191610a0c565b820191906000526020600020905b8154815290600101906020018083116109ef57829003601f168201915b5050505050610a18565b835b60029080519060200190610a2d929190610ad6565b506000831415610a3f57600454610a41565b825b6004819055506000821415610a5857600554610a5a565b815b6005819055506000811415610a7157600754610a73565b805b6007819055505050505050565b6001600360006101000a81548160ff021916908315150217905550565b6000600360006101000a81548160ff021916908315150217905550565b6000811415610acb57600654610acd565b805b60068190555050565b828054600181600116156101000203166002900490600052602060002090601f016020900481019282601f10610b1757805160ff1916838001178555610b45565b82800160010185558215610b45579182015b82811115610b44578251825591602001919060010190610b29565b5b509050610b529190610b56565b5090565b610b7891905b80821115610b74576000816000905550600101610b5c565b5090565b9056fea2646970667358221220d96a6b0238b8a0932d8eaa997eb37d9dca64dbd9c0c7f4807d47e5c5f51399c664736f6c63430006060033a26469706673582212200d503b7bb186133b29e9092a0da35efae5f551ae9ac3c3389190fcc354731f3364736f6c6343000606003360806040526103e860015534801561001657600080fd5b506040516103ac3803806103ac8339818101604052602081101561003957600080fd5b8101908080519060200190929190505050806000806101000a81548173ffffffffffffffffffffffffffffffffffffffff021916908373ffffffffffffffffffffffffffffffffffffffff160217905550426002819055504260038190555050610304806100a86000396000f3fe608060405234801561001057600080fd5b506004361061007d5760003560e01c806331d7fbb91161005b57806331d7fbb9146101185780636add0acf14610136578063ac7d7a3c14610164578063c1cfb99a146101b25761007d565b806308700f6d146100825780630ac298dc146100b057806325b49d49146100fa575b600080fd5b6100ae6004803603602081101561009857600080fd5b81019080803590602001909291905050506101d0565b005b6100b86101ea565b604051808273ffffffffffffffffffffffffffffffffffffffff1673ffffffffffffffffffffffffffffffffffffffff16815260200191505060405180910390f35b610102610213565b6040518082815260200191505060405180910390f35b610120610219565b6040518082815260200191505060405180910390f35b6101626004803603602081101561014c57600080fd5b810190808035906020019092919050505061021f565b005b6101b06004803603604081101561017a57600080fd5b81019080803573ffffffffffffffffffffffffffffffffffffffff16906020019092919080359060200190929190505050610230565b005b6101ba61023e565b6040518082815260200191505060405180910390f35b806001600082825401925050819055504260038190555050565b60008060009054906101000a900473ffffffffffffffffffffffffffffffffffffffff16905090565b60035481565b60025481565b806001819055504260038190555050565b61023a8282610248565b5050565b6000600154905090565b806001600082825403925050819055508173ffffffffffffffffffffffffffffffffffffffff166308700f6d826040518263ffffffff1660e01b815260040180828152602001915050600060405180830381600087803b1580156102ab57600080fd5b505af11580156102bf573d6000803e3d6000fd5b5050505042600381905550505056fea2646970667358221220e79e835a45da9ad6a9460742a0a6e8de750c4f8b8fb6f9aadb7b0373424b23a464736f6c63430006060033",
  "source": "// SPDX-License-Identifier: MIT\npragma solidity >=0.4.22 <0.8.0;\nimport \"./UserAccount.sol\";\nimport \"./AccountManager.sol\";\nimport \"./LeaseTransaction.sol\";\nimport \"./TransactionManager.sol\";\nimport \"./Lease.sol\";\nimport \"./Global.sol\";\n\ncontract User {\n    bytes32 private uid; //ID\n    bytes32 private password; //\n    AccountManager private ACM; //\n    LeaseManager private LM; //\n    TransactionManager private TM; //\n\n    constructor(\n        bytes32 _uid,\n        bytes32 _password,\n        Global g\n    ) public {\n        require(_uid.length != 0, \"Need id\");\n        require(_password.length != 0, \"Need password\");\n\n        address acm_addr = g.acm_addr(); //\n        address lm_addr = g.lm_addr(); //\n        address tm_addr = g.tm_addr(); //\n        ACM = AccountManager(acm_addr);\n        LM = LeaseManager(lm_addr);\n        TM = TransactionManager(tm_addr);\n\n        uid = _uid;\n        password = _password;\n        ACM.add_account(uid, new UserAccount(this)); //\n        LM.add_user(uid); //\n        TM.add_user(uid); //\n    }\n\n    function get_uid() public view returns (bytes32) {\n        return uid;\n    }\n\n    function get_password() public view returns (bytes32) {\n        return password;\n    }\n\n    function set_password(bytes32 _password) public {\n        password = _password;\n    }\n\n    function get_account() public view returns (address) {\n        return ACM.get_account(uid);\n    }\n\n    // \n    function create_lease(\n        string memory house_name,\n        string memory lon, //\n        string memory lat, //\n        bytes32 lid //key\n    ) public {\n        Lease l = new Lease(this, house_name, lon, lat);\n        LM.add_user_lease(l, uid, lid);\n    }\n\n    // \n    function create_lease_txn(\n        uint256 action,\n        address action_user,\n        address lease,\n        uint256 money\n    ) public {\n        LeaseTransaction lt;\n        uint256 txn_time = now;\n        if (action == 1) {\n            //\n            lt = new LeaseTransaction(\n                this,\n                this,\n                User(action_user),\n                Lease(lease),\n                money,\n                txn_time,\n                ACM\n            );\n        } else if (action == 2) {\n            //\n            lt = new LeaseTransaction(\n                this,\n                User(action_user),\n                this,\n                Lease(lease),\n                money,\n                txn_time,\n                ACM\n            );\n        }\n        TM.add_user_txn(lt, uid, txn_time); //\n        TM.add_user_txn(lt, User(action_user).get_uid(), txn_time); //action user\n    }\n}\n",
  "sourcePath": "/Users/hongwei/Documents/Project/ethereum-platform/contracts/User.sol",
  "compiler": {
    "name": "solc",
    "version": "0.6.6+commit.6c089d02.Emscripten.clang"
  },
  "schemaVersion": "3.0.20",
  "updatedAt": "2020-10-07T14:10:20.282Z",
  "devdoc": {
    "methods": {}
  },
  "userdoc": {
    "methods": {}
  }
}